:020000040800F2
:1000000000090020B101000851230008092300085D
:10001000312300080923000829230008B301000840
:10002000B3010008B3010008B30100085133000810
:10003000B3010008B3010008B3010008B3010008D0
:10004000B3010008B3010008B3010008B3010008C0
:10005000B3010008B3010008A9400008D14000081E
:10006000F94000082141000849410008B301000897
:10007000B3010008B3010008B3010008B301000890
:10008000B3010008B3010008B3010008BD22000855
:10009000E9220008F9220008B301000871410008B4
:1000A000B3010008B3010008B3010008B301000860
:1000B00045420008B3010008B3010008B30100087D
:1000C000B3010008B3010008B3010008B301000840
:1000D000B3010008B3010008B3010008B301000830
:1000E000D5410008B3010008B3010008B3010008BE
:1000F000B3010008B3010008B3010008B301000810
:10010000B3010008B3010008B3010008B3010008FF
:10011000B3010008B3010008B3010008B3010008EF
:10012000B3010008B3010008B3010008B3010008DF
:10013000B3010008B3010008B3010008B3010008CF
:10014000B3010008B3010008B3010008B3010008BF
:10015000B3010008B3010008B3010008B3010008AF
:10016000B3010008B3010008B3010008B30100089F
:10017000B3010008B3010008B3010008B30100088F
:10018000B3010008B3010008B3010008B30100087F
:10019000B3010008B3010008B3010008B30100086F
:1001A000050F000800000000000000000000000033
:1001B00002E000F000F8FEE772B6374880F30888E6
:1001C000364880F3098836483649086040F2000016
:1001D000CCF200004EF63471CEF200010860BFF39D
:1001E0004F8FBFF36F8F40F20000C0F2F0004EF669
:1001F0008851CEF200010860BFF34F8FBFF36F8FBD
:100200004FF00000E1EE100A4EF63C71CEF2000114
:100210000860062080F31488BFF36F8F03F064FD3D
:1002200003F0E6FD4FF055301F491B4A91423CBF99
:1002300041F8040BFAE71D49184A91423CBF41F8C6
:10024000040BFAE71A491B4A1B4B9A423EBF51F86E
:10025000040B42F8040BF8E700201849184A9142B1
:100260003CBF41F8040BFAE703F042FD03F00EFE39
:10027000144C154DAC4203DA54F8041B8847F9E7D7
:1002800000F042F8114C124DAC4203DA54F8041B52
:100290008847F9E703F02ABD00090020001100207B
:1002A0000000000808ED00E0000100200009002027
:1002B00018450008001100207C110020801100204A
:1002C000FC3A0020A0010008A4010008A4010008D5
:1002D000A40100082DE9F04F2DED108AC1F80CD0D3
:1002E000C3689D46BDEC108ABDE8F08F002383F300
:1002F00011882846A047002003F09AF9FEE703F092
:1003000023F900DFFEE70000F8B500F00DFE03F072
:100310008DFC074603F0DEFC0646C0BB274B9F4220
:1003200035D001339F4235D0254B27F0FF029A424A
:1003300033D1F8B200F03EFC354642F2107400F0C2
:100340003FFC08B10024254601F0DEF848B3032045
:1003500000F03AF80024254636B11A4B9F4203D0EC
:1003600003F0B0FC00242546002003F069FC0DB129
:1003700000F040F800F056FC01F0F2FF0546ACB981
:1003800000F098FC4FF47A7003F058F9F7E735461F
:100390000024D4E704460125D1E705464FF47A74DA
:1003A000CDE7B4F57A7F08BF0125D5E701F0D8FF86
:1003B000431BA342E4D900F01DF8DDE7010007B0BC
:1003C000000008B0263A09B0084B187003280CD872
:1003D000DFE800F008050208022000F003BE02205A
:1003E00000F0F6BD024B00225A60704780110020D9
:1003F0008411002010B501F087F830B1234B03229F
:100400001A70234B00225A6010BD224B224A1C4610
:1004100019680131F8D004339342F9D16268A242DD
:10042000F2D31E4B9B6803F1006303F5C0439A426D
:10043000EAD203F019FC03F02BFC002000F08EFD43
:100440000220FFF7C1FF164B9A6D00229A65996F43
:100450009A67996FD96DDA65D96FDA67D96F196EB6
:100460001A66D3F88010C3F88020D3F8803072B6B3
:100470004FF0E0233021C3F8084DD4E9003281F376
:1004800011889D4683F308881047BDE7801100203E
:100490008411002000600008206000080011002086
:1004A00000100240094A136849F2690099B21B0C16
:1004B00000FB01331360064B186844F2506182B2AE
:1004C000000C01FB0200186080B27047141100207C
:1004D0001011002010B500211022044600F09CFDF0
:1004E000034B03CB206061601868A06010BD00BFA3
:1004F0009075FF1F2DE9F041ADF54C7D0DF12C08F5
:100500006AAC40F2751207460D460CA80021C8F8E7
:10051000001000F081FD4FF4C4720021204600F06D
:100520007BFD01F01DFF274B4FF47A72B0FBF2F018
:10053000186093E80700022384E807000DF5E570D2
:100540002382FFF7C7FF42F204631F49238407A8F1
:1005500003F084FF0E2384F832310DF2DB2207AB67
:100560000DF1240C1E4603CE6645106051603346E3
:1005700002F10802F6D130681060B38893804146DA
:100580000122204600F094FD00230393AB7E0293EA
:1005900005F11903019380B20123CDE90480009392
:1005A000E97E06A3D3E90023384602F0A1FA0DF54F
:1005B0004C7DBDE8F08100BFAFF300809E6AC4218E
:1005C000818A46EE8C1100206C4400082DE9F04130
:1005D0002C4C237ADAB080460D465BBB27A928460F
:1005E00000F088FE0746002842D19DF89D60C82E85
:1005F0003ED801464FF4A662204600F00DFD4FF4B0
:100600008073C4F8F8314FF40073C4F80C334FF41E
:100610004073C4F8203432460DF19E0104F1090004
:1006200000F0E8FC26449DF89C30777223720BB9E9
:10063000EB7E23728122002106AC27A800F0ECFC9F
:100640000122214627A800F09BFE00230393AB7EE6
:10065000029305F1190380B201932823CDE90440E8
:100660000093E97E05A3D3E90023404602F040FA57
:100670005AB0BDE8F08100BFAFF30080264172722E
:10068000DF25D7B7B0320020F0B5254E4FF48A757C
:1006900005FB0065F1B096F8D83085F8DC30002411
:1006A000D822214685F8E8403AA800F0B5FC06F1CA
:1006B000090000F0A9FCD5F8E4308DF8F000C2B2D2
:1006C00006AF06F109010DF1F100CDE93A3400F071
:1006D00091FC394601223AA800F088FE80B2CDE9AB
:1006E000047008230127CDE9023706F1D8030193EE
:1006F00030230093317A0B4807A3D3E9002302F09B
:10070000F7F9A04206DD01F02BFEC5F8E0003846FF
:1007100071B0F0BD2046FBE778F6339F93CACD8DCC
:10072000B0320020A42100202DE9F0411D4D1E4EC5
:100730001E4F86B0284602F007FA034658B300243D
:10074000CDE90344ADF81440027B8DF8142099687C
:100750004068029403AA03C21B68DFF8548043F088
:100760000043029301F0FEFD821941F10003009461
:1007700002A9384601F0A6F8A04205DD284602F09D
:10078000E7F988F80040D5E798F80030072B05D83E
:10079000013388F8003006B0BDE8F081014802F06E
:1007A000D7F9F8E7A421002040420F00D82100200B
:1007B000E537002070B50D4614461E4602F0F4F8E9
:1007C00050B9022E10D1012C0ED112A3D3E900236F
:1007D000C5E90023012007E0282C10D005D8012C02
:1007E00009D0052C0FD0002070BD302CFBD10BA3FD
:1007F000D3E90023ECE70BA3D3E90023E8E70BA33D
:10080000D3E90023E4E70BA3D3E90023E0E700BF2B
:10081000AFF30080401DA12026812A0B78F6339F7C
:1008200093CACD8D9E6AC421818A46EE264172729A
:10083000DF25D7B7F017304A39059E5638B505463B
:100840000E4C0021013500F0ABFBA4F82C55B4F898
:100850002C0500F08DFB78B1B4F82C0500F098FB66
:10086000014648B9B4F82C0500F09AFBB4F82C35D1
:100870000133A4F82C35EAE738BD00BFB0320020C0
:1008800010B50A4B0A4A1A6003F5805393F86020AA
:100890003AB9DC6D2CB1204600F0B4FE204603F0DE
:1008A0001DFDBDE81040034800F0ACBED82100207B
:1008B000B8440008203200202DE9F04F8FB000AF7F
:1008C00005460C4602F070F8002849D1237E022B21
:1008D0001BD1E38A012B18D101F042FD0646FFF738
:1008E000E1FD03464FF4C870DFF8C482B3FBF0F2B9
:1008F00006F5167602FB103316FA83F3C8F80030BB
:10090000E37E33B9A34B00221A703C37BD46BDE8E5
:10091000F08F07F12401204600F0A0FC0028F4D15C
:1009200007F11400FFF7D6FD97F8264007F11401F0
:10093000224607F1270003F01BFD0028E2D10F2C0F
:1009400008D8944B1C70D8F80030A3F51673C8F87B
:100950000030DAE797F82410284602F01DF8D4E7B3
:10096000E38A282B2BD010D8012B23D0052BCCD1F8
:10097000BFF34F8F8849894BCA6802F4E062134382
:10098000CB60BFF34F8F00BFFDE7302BBDD1844E4E
:10099000E17E327A9142B8D1607E3146002291F8F0
:1009A000DC50854200F0A5800132042A01F58A71ED
:1009B000F5D1AAE721462846FFF79CFDA5E7214689
:1009C0002846FFF703FEA0E7B2F8EC507B6005F184
:1009D00003094FEA99094FEA8902D11DC908A8EB1A
:1009E000C1039D46EB460021584600F015FB04F17B
:1009F000EE012A463144584600F0FCFA7B6813B9F0
:100A0000012000F0ABFA96F8D20000F0B1FA0446EB
:100A100030B9307200F0CCFA204600F09FFAB1E015
:100A2000D6F8D4203AB996F8D200B6F82C258242EE
:100A300001D8FFF703FFD6F8D4202A44944208D205
:100A400096F8D200B6F82C250130824201D8FFF783
:100A5000F5FE70685FFA89F2594600F0E5FA08B9C8
:100A6000C54679E0726896F8D2002A447260D6F8DA
:100A7000D42005EB0209C6F8D49000F079FA81453C
:100A800009D396F8D220D6F8D4000132001B86F89C
:100A9000D220C6F8D400FF2D0FD80024347200F005
:100AA00087FA204600F05AFA00F02EFD3D4B1881DF
:100AB00008B9FFF79FFCC54627E7BB6896F8D90041
:100AC0000AFB0362FB68D2F8E41082F8E83001F513
:100AD0008061C2F8E030C2F8E410FFF7D5FDFFF7FF
:100AE00023FE96F8D920013202F0030286F8D920BD
:100AF000B6E74FF48A7A0AFB02F505F1EA013144C0
:100B0000204600F0A5FCF86000287FF4FEAE3544D6
:100B1000012285F8E82001F023FCD5F8E020D6ED8D
:100B2000007ADFED216A801A192838BF192040F6B3
:100B3000B832904228BF1046B8EE677A07EE900AA6
:100B4000F8EEE77A67EEA67ADFED186AE7EE267A26
:100B5000FCEEE77AC6ED007A96F8D930BB60BA6849
:100B600073680AFB02F4321992F8E81059B1D2F80E
:100B7000E4108B42E8463FF427AF002182F8E810EA
:100B8000C2F8E010C5467368064A9B0A0133138118
:100B9000BBE600BF9D21002000ED00E00400FA0547
:100BA000B03200208C110020CDCCCC3D6666663F73
:100BB000A0210020014B1870704700BF9811002041
:100BC00038B54FF00054134B22689A4220D1124B93
:100BD000627D12481A70237D03724FF48073C0F84F
:100BE000F8314FF40073C0F80C3300254FF4407314
:100BF000C0F820340A49C0F8E450C922093000F096
:100C0000F9F9E0222946204600F006FA012038BD15
:100C10000020FCE79AAD44C598110020B0320020B6
:100C20001600002037B500F06FFC194D19492881D6
:100C30000223012218486B7101F02EFA0023019360
:100C4000164B174900931748174B4FF4805201F089
:100C50007BFE164B197811B1124801F09DFE01F090
:100C60007FFB0446FFF71EFC4FF4C873B0FBF3F2A2
:100C700002FB130304F5167010FA83F00C4B186096
:100C800003F028F808B10F232B8103B030BD00BF5B
:100C90008C11002040420F00D8210020B507000829
:100CA0009C110020A4210020B90800089811002000
:100CB000A02100202DE9F04F2DED028B0FF23829F5
:100CC000D9E90089834C93B00BAE9FED7E8BFFF783
:100CD0002BFD814FDFF828A200230A93ADF83430B2
:100CE0000B9373604FF0000B5B468DED008B01257D
:100CF0000DF11D0207A938468DF81C508DF81DB066
:100D000001F078F99DF81C30002B40F0A5802046BA
:100D100001F04AFE0646002845D1704F01F020FB45
:100D20003B6898423FD301F01BFB8246FFF7BAFBBA
:100D30004FF4C873B0FBF3F202FB13030AF516700D
:100D400010FA83F03860664F97F800B0CBF1100AC4
:100D5000BBF1000F14BF33462B465FFA8AFA0EA888
:100D60008DF82830FFF7B6FBBAF1060F28BF4FF019
:100D7000060A0EAB03EB0B0152460DF1290000F001
:100D800039F90AAB0393182302930AF10102554B78
:100D9000D2B2CDE90053049220464CA3D3E90023FC
:100DA00001F048FE3E7001F0DBFA4F4A4F4D1368E8
:100DB000C31AB3F57A7F2ED3106001F0D3FA02463E
:100DC0000B46204601F0CEFE204601F0EDFD10B3AB
:100DD0002B7A474E002B14BF03230223737101F0BB
:100DE000BFFA0EAF4FF47A730122B0FBF3F039462D
:100DF0003060304600F00AFA182302933D4B01930D
:100E000080B240F25513CDE90370009342464B4641
:100E1000204601F00FFE2B7A93B101F0A1FA0026D3
:100E200007464FF48A7A95F8D900304400F0030061
:100E30000AFB005393F8E82092B30136042EF2D156
:100E4000C82002F0FBFB2B7A002B7FF43DAF13B0E0
:100E5000BDEC028BBDE8F08FDAF8143083F00103AB
:100E6000CAF81430594610220EA800F0D5F80DF13A
:100E70001E0308AA0AA9384600F024FE96E80300DB
:100E80000FAB83E803009DF834308DF844300A9BA3
:100E90000E930EA9DDE90823204602F037F821E77A
:100EA000D3F8E02042B12B68FA2B38BFFA23BA1AE4
:100EB0000533B2EB430FC0D3FFF7E6FB0028BCD1EC
:100EC000BEE700BF0000000000000000401DA120A0
:100ED00026812A0BA4210020D8210020A021002057
:100EE0009D2100209C210020E0370020B03200200E
:100EF0008C110020E4370020F1C6A7C1D068080F8C
:100F00000004004808B5054800F078FEBDE8084038
:100F1000034A0449002003F0DBB900BFD8210020B8
:100F2000203800208108000870B502F023FD094E2A
:100F3000094D3080002428683388834208D902F0A4
:100F400015FD2B6804440133B4F5C04F2B60F2D378
:100F500070BD00BF14380020E837002002F0BCBD8F
:100F600000F10060920000F5C04002F03FBD0000BB
:100F7000054B1A68054B1B889B1A834202D9104403
:100F800002F0F4BC00207047E8370020143800203D
:100F9000024B1B68184402F0EFBC00BFE83700208A
:100FA000024B1B68184402F0F9BC00BFE837002070
:100FB000064991F8243033B10023086A81F82430BF
:100FC0000822FFF7CDBF0120704700BFEC3700209B
:100FD000022802BF024B4FF480329A61704700BF73
:100FE00000040048022802BF014B01229A617047A9
:100FF0000004004810B50023934203D0CC5CC454D5
:101000000133F9E710BD000003460246D01A12F979
:10101000011B0029FAD1704702440346934202D0D3
:1010200003F8011BFAE770472DE9F8431F4D1446FA
:1010300095F824200746884652BBDFF870909CB391
:1010400095F824302BB92022FF2148462F62FFF764
:10105000E3FF95F82400C0F10802A24228BF22460F
:10106000D6B24146920005EB8000FFF7C3FF95F82A
:101070002430A41B1E44F6B2082E17449044E4B258
:1010800085F82460DBD1FFF793FF0028D7D108E073
:101090002B6A03EB82038342CFD0FFF789FF00283E
:1010A000CBD10020BDE8F8830120FBE7EC3700201E
:1010B0002DE9F8430D46044600219046284640F2AB
:1010C0007912FFF7A9FF234620220021284601F0CC
:1010D000BFFE231D02222021284601F0B9FE631D18
:1010E00003222221284601F0B3FEA31D032225215D
:1010F000284601F0ADFE04F10803102228212846FD
:1011000001F0A6FE04F1100308223821284601F060
:101110009FFE04F1110308224021284601F098FEA9
:1011200004F1120308224821284601F091FE04F13F
:10113000140320225021284601F08AFE04F11803EE
:1011400040227021284601F083FE04F1200308228A
:10115000B021284601F07CFE04F121030822B821C9
:10116000284601F075FE04F12207C0263B463146B1
:1011700008222846083601F06BFEB6F5A07F07F17D
:101180000107F3D1314604F132030822284601F069
:101190005FFE94F83260002704F13309F900BE4283
:1011A00001F5A4711FD8F70007F5A476B8F1000F78
:1011B00008D1314604F599730722284601F048FE0C
:1011C00007F24F1694F83201502828BF50200746E6
:1011D00004EB0009B046A1450DD106EBC70007306E
:1011E000C008BDE8F88309EB07030822284601F090
:1011F0002FFE0137D2E704F2331341460822284676
:1012000001F026FE08F108080134E4E713B50446AE
:101210000846002101602346C0F8031020220190F7
:1012200001F016FE0198231D0222202101F010FE7C
:101230000198631D0322222101F00AFE0198A31DDB
:101240000322252101F004FE019804F10803102275
:10125000282101F0FDFD072002B010BDF7B5047F85
:1012600005460E462CB1838A122B02D9012003B009
:10127000F0BD0023194607220096284601F0ACFC79
:10128000731C0093012200230721284601F0A4FCCF
:10129000D4B9B31C0093052223460821284601F047
:1012A0009BFC0D24B378102BE0D83746B278BB1BDB
:1012B000934210D32B7FA88A0734E408B3B9844241
:1012C00094BF00200120D2E7AB8ADB00083BDB089B
:1012D000B3700824E6E7FB1C009321460023082294
:1012E000284601F079FC08340137DFE7201A18BFDF
:1012F0000120BCE7F7B5047F05460E462CB1838A72
:10130000CA2B02D9012003B0F0BD00231946009674
:101310000822284601F060FC731CD4B9082200930F
:1013200011462346284601F057FC10247378C82B39
:10133000E8D8012372785F1C013B934210D32B7FC6
:10134000A88A0734E408B3B9844294BF002001207E
:10135000D9E7AB8ADB00083BDB0873700824E5E7BC
:10136000F3190093214600230822284601F034FC9B
:1013700008343B46DEE7201A18BF0120C3E700000F
:101380002DE9F8430D4604461646002181222846E1
:10139000FFF742FE234608220021284601F058FDAF
:1013A000C6B9631C07220821284601F051FD0F260B
:1013B00094F901306778002BB8BF7F2704EB070949
:1013C000B0464C4508D10736082010FB0760C0081E
:1013D000BDE8F8830826EBE7A31C4146082228460F
:1013E00001F036FD08F108080134EAE72DE9F04183
:1013F0000D46044616460021CE222846FFF70CFE75
:10140000234628220021284601F022FDBEB904F11E
:10141000080308222821284601F01AFD302614F876
:10142000080FC82828BFC82080460027B84506EB0B
:10143000C70106D806EBC800C008BDE8F081282621
:10144000EDE70137E3190822284601F001FDEDE739
:10145000F7B5047F05460E4634B1838AB3F5827F23
:1014600002D9012003B0F0BD009601231022002113
:10147000284601F0B1FBDCB9B31C009309222346D6
:101480001021284601F0A8FB19247388B3F5807F4A
:10149000E7D837467288BB1B934210D32B7FA88AAC
:1014A0000734E408B3B9844294BF00200120D9E78F
:1014B000AB8ADB00103BDB0873801024E5E73B1DA3
:1014C0000093214600230822284601F085FB0834BA
:1014D0000137DFE7201A18BF0120C3E730B5094DF7
:1014E0000A4491420DD011F8013B5840082340F3C3
:1014F0000004013B2C4013F0FF0384EA5000F6D1B6
:10150000EFE730BD2083B8EDF7B5384A1068516871
:101510006B4603C36A4636493648082302F038FF53
:101520000446002833D10A25334A106851686B46B7
:1015300003C36A4631492F48082302F029FF0446B5
:10154000002849D00369B3F5D03F45D8B0F86610FC
:1015500040F2264291423FD1294A024402F15C0105
:101560008B4239D35C3B234900209E1AFFF7B6FF1C
:101570003246074604F164010020FFF7AFFFA3687D
:101580009F4229D1E368984208BF002524E00369FF
:10159000B3F5D03F27D8418B40F22642914220D16B
:1015A000174A024402F110018B4218D3103B114933
:1015B00000209D1AFFF792FF2A46064604F1180103
:1015C0000020FFF78BFFA3689E4202D1E368984298
:1015D00001D00D25A8E70025284603B0F0BD102551
:1015E000A2E70C25A0E70B259EE700BF7C4400087E
:1015F000DC9F01000060000885440008909F010006
:1016000008A0FFF710B5037C044613B9006802F088
:10161000A7FE204610BD00000023BFF35B8FC36010
:10162000BFF35B8FBFF35B8F8360BFF35B8F70474C
:10163000BFF35B8F0068BFF35B8F704770B50546E3
:101640000C30FFF7F5FF05F1080604463046FFF7BA
:10165000EFFFA04206D930466D68FFF7E9FF254449
:10166000281A70BD3046FFF7E3FF201AF9E70000A3
:1016700070B50546406898B105F10800FFF7D8FF3E
:1016800005F10C0604463046FFF7D2FF844230468F
:1016900094BF6D680025FFF7CBFF013C2C44201A56
:1016A00070BD000038B50C460546FFF7C7FFA042E5
:1016B00010D305F10800FFF7BBFF04446868B4FBD2
:1016C000F0F100FB1144BFF35B8F0120AC60BFF36E
:1016D0005B8F38BD0020FCE72DE9F041144607463A
:1016E0000D46FFF7C5FF844228BF0446D4B1B84673
:1016F00058F80C6B4046FFF79BFF3044286040468B
:101700007E68FFF795FF331A9C4203D86C60012076
:10171000BDE8F0816B60A41B3B68AB602044E860CF
:101720000220F5E72046F3E738B50C460546FFF7FB
:101730009FFFA04210D305F10C00FFF779FF04448E
:101740006868B4FBF0F100FB1144BFF35B8F01202C
:10175000EC60BFF35B8F38BD0020FCE72DE9FF4153
:10176000884669460746FFF7B7FF6C4606B204EBAA
:10177000C6060025B44209D06268206808EB05015E
:10178000FFF738FC636808341D44F3E72946384600
:10179000FFF7CAFF284604B0BDE8F081F8B505465A
:1017A0000C300F46FFF744FF05F1080604463046AB
:1017B000FFF73EFFA042304688BF6C68FFF738FF56
:1017C000201A386020B130462C68FFF731FF2044E2
:1017D000F8BD000073B5144606460D46FFF72EFF10
:1017E000844228BF04460190DCB101A93046FFF7CE
:1017F000D5FF019B33B93268C5E90233C5E900243E
:1018000001200CE09C4238BF019428600198686078
:101810008442F5D93368AB60241AEC60022002B030
:1018200070BD2046FBE700002DE9FF410F466946E9
:10183000FFF7D0FF6C4600B204EBC0050026AC42B7
:1018400009D0D4F8048054F8081BB8194246FFF7B1
:10185000D1FB4644F3E7304604B0BDE8F081000018
:1018600038B50546FFF7E0FF044601462846FFF776
:1018700019FF204638BD000010B4026854681A46AB
:1018800023465DF8044B184700207047002070473E
:1018900070470000002070470E20704700F5805010
:1018A00090F8C800C0F340007047000000F5805079
:1018B00090F9D0007047000000F58050C0F8CC10BF
:1018C00001207047F7B50C68BDF8207014F0005483
:1018D00070D10D7B082D6DD8302585F311884569B1
:1018E000AE6876010CD4AC68240108D4AC6814F05E
:1018F00080545DD184F31188204603B0F0BD0124EB
:101900000E6804F1180C002EB8BFF6004FEA0C1C4C
:10191000B4BF46F00406760545F80C600E680FFA71
:1019200084FC16F0804F18BF05EB0C1E05EB0C1C59
:101930001EBFDEF8806146F00206CEF880610E7BA5
:10194000CCF8846105EB04158E68C5F88C614E688F
:10195000C5F88861DCF8805145F00105CCF880516C
:1019600000EB441641F268052E4405EB441505448E
:10197000C6E9002308350E4601F10C0C56F804EBBD
:1019800045F804EB6645F9D1843436882E8000EBA7
:10199000441407F00305267926F00B06354325711C
:1019A000002484F31188009700F0FCFC0120A4E7D8
:1019B0000224A5E74FF0FF309FE7000013B500F5C4
:1019C00080540191E06DFFF753FE1F280AD9019959
:1019D000E06D2022FFF7C2FEA0F1200358425841DB
:1019E00002B010BD0020FBE708B5302383F3118857
:1019F00000F58050C06DFFF70FFE002383F31188C0
:101A000008BD00000022026082814260826070474F
:101A100010B500220023C0E90023002304460381FF
:101A20000C30FFF7EFFF204610BD0000F0B5054673
:101A300000F580500C4690F8C83013F0040FC3F343
:101A4000800108BF114661F3820304F1840680F827
:101A5000C83005EB461389B01B79D8072ED57AB369
:101A600019072DD46846FFF7D3FF05EB441303F5A0
:101A7000835303F1180703AA1033186859681446F2
:101A800003C40833BB422246F7D1186820609B8804
:101A9000A380DDE90E23CDE900230123ADF8083052
:101AA0002B686946DB6B2846984705EB46152B7972
:101AB0001A075CBF43F008032B7101E0002AF4D140
:101AC00009B0F0BD2DE9F0479A4688B00746884630
:101AD0009146302383F3118807F580546846FFF759
:101AE00097FFE06DFFF7AAFD1F282AD9E06D20229D
:101AF0006946FFF7B5FE202823D103AD444605AB68
:101B00002E4603CE9E4220606160354604F10804F3
:101B1000F6D130682060B388A380DDE90023C9E9ED
:101B20000023BDF80830AAF80030002383F31188A1
:101B300053464A464146384608B0BDE8F04700F0F3
:101B40001FBC002080F3118808B0BDE8F0870000BA
:101B50002DE9F84F0023C0E90133254B044640F836
:101B6000183B0F46FFF74EFF04F12800FFF750FF28
:101B700004F1480804F582554646083530462036BB
:101B8000FFF746FFAE42F9D104F580554FF480537C
:101B90004FF00009C5E91339C5F848800123EE6507
:101BA00004F5875804F58456C5F8549085F85830E4
:101BB00085F86030083608F108084FF0000A4FF049
:101BC000000B46E908ABA6F11800FFF71BFF203613
:101BD00046F8289C4645F4D185F8D07017B10548E1
:101BE00000F0B8FB044B63612046BDE8F88F00BFEE
:101BF000B8440008904400080064004010B5044B4D
:101C0000197804464A1C1A70FFF7A2FF204610BD3F
:101C10001C3800202DE9F047002950D0294B2A4FCD
:101C2000B7FBF1F599428CBF0A231123581EB5FB6F
:101C3000F3FC03FB1C53C4B22BB102280346F5D8B6
:101C40000020BDE8F0870CF1FF36B6F5806FF7D2C3
:101C5000C4EBC40E0EF103034FEAE309C3F3C70359
:101C6000A4EB030809F1010A4FF47A755FFA88F0D2
:101C700009FB05555AFA88F8B5FBF8F5B5F5617F0B
:101C8000C1BF0EF1FF33C3F3C703E01AC0B25C1C3F
:101C900050FA84F40CFB04F4B7FBF4F4A142CFD166
:101CA000013BDBB20F2BCBD80138C0B20728C7D815
:101CB0000021107116809170D3700120C1E7084691
:101CC000BFE700BF3F420F0000B4C40470B5054633
:101CD0000E464FF47A746B695B6803F00103B342FC
:101CE00007D04FF47A7001F0A9FC013CF3D12046F3
:101CF00070BD0120FCE7000030B54269936913F024
:101D0000700F16D000230B4C936103F1840200EB9B
:101D1000421211794D0709D5890707D5416954F851
:101D200023508D60117941F0040111710133032BAF
:101D3000EBD130BDA444000873B51D464369164677
:101D40009A68D207044609D59A6801219960C2F3BE
:101D50004002CDE900650021FFF768FE63699A68DB
:101D6000D1050BD59A684FF480719960C2F3402277
:101D7000CDE9006501212046FFF758FE63699A68A6
:101D8000D2030BD59A684FF480319960C2F3404278
:101D9000CDE9006502212046FFF748FE04F5805397
:101DA000D3F8CC0010B103681B699847204602B0F5
:101DB000BDE87040FFF7A0BFF8B5044646690029AA
:101DC00072D106F10C073868800770D006EB011558
:101DD0003868D5F8B00110F0040FD5F8B0011ABF7B
:101DE000C00840F00040400DA061D5F8B0C11CF023
:101DF000020F1CBF40F08040A061D5F8B40106EB93
:101E0000011100F00F0084F82400D1F8B801207708
:101E1000D1F8B801000A6077D1F8B801000CA077BA
:101E2000D1F8B801000EE077D1F8BC0184F82000A9
:101E3000D1F8BC01000A84F82100D1F8BC01000CE3
:101E400084F82200D1F8BC11090E84F8231038213F
:101E5000396004F1340004F1180104F1240551F84B
:101E6000046B40F8046BA942F9D109880180C4E9E8
:101E70000A2321460023238651F8283B2046DB6BAA
:101E8000984704F5805393F8C820D3F8CC0042F06B
:101E9000040283F8C82010B103681B6998472046E4
:101EA000BDE8F840FFF728BF06F110078BE7F8BD43
:101EB00010B5044600F056FA02460B4652EA0301FA
:101EC00002D0013A63F100030449086820B12146B9
:101ED000BDE81040FFF770BF10BD00BF18380020EC
:101EE000F0B5302181F31188DFF848C000F5835147
:101EF0000831002404F1840500EB45152E7977079D
:101F00000ED4F6060CD5D1E9007697429E4107D251
:101F100046695CF82470B7602E7946F004062E718D
:101F20000134032C01F12001E4D1002383F3118853
:101F3000F0BD00BFA444000808B5302383F3118826
:101F4000FFF7DAFE002383F3118808BDF8B5436973
:101F50000546986800F0E050B0F1E05F0F4621D0F0
:101F6000F8B1302383F3118805F58354103400262B
:101F700006F1840305EB43131B791A0706D50136D6
:101F8000032E04F12004F3D1012007E05B07F6D40F
:101F90002146384600F040FA0028F0D1002383F3B0
:101FA0001188F8BD0120FCE708B5302383F31188C0
:101FB00000F58050C06DFFF741FB002383F31188CB
:101FC00043090CBF0120002008BD0000F8B51D46E4
:101FD000002313700F4606461446FFF7E5FF80F016
:101FE0000100387025B129463046FFF7AFFF207059
:101FF000F8BD00002DE9B8410C4615461F46804645
:1020000000F0B0F90B462178024609B9287850B1A2
:102010004046FFF765FFFFF78FFF3B462A46214604
:10202000FFF7D4FF0120BDE8B881000070B530266D
:1020300086F31188174B9A6D42F000729A659A6B7D
:1020400042F000729A639A6B22F000729A63002346
:1020500083F3118800F5805494F8C83013F001051B
:1020600016D1A9B186F311880321132001F0E2F9FA
:102070000321142001F0DEF90321152001F0DAF923
:1020800094F8C83043F0010384F8C83085F3118810
:1020900070BD00BF001002402DE9F04700F58055EB
:1020A00088B095F8D030012B04468846164600F2D9
:1020B0008180814F57F823200AB947F82300D7F8C9
:1020C00000A0C4F80C802674BAF1000F64D095F813
:1020D000D030012B70D001212046FFF7A7FF30231D
:1020E00083F311886269136823F002031360626945
:1020F000136843F001031360636900275F6187F38E
:10210000118801212046FFF7E1FD002800F09580AD
:10211000E86DFFF781FA04F58359BA4609F1080919
:10212000202200216846FEF777FF02A8FFF76AFC2D
:10213000CDF818A06A4609EB07030DF1180E944676
:10214000BCE80300F44518605960624603F10803D7
:10215000F5D1DCF80000186020379CF804201A71D3
:10216000602FDDD195F8C8306FF38203002785F822
:10217000C8306A4641462046ADF80070ADF802709E
:102180008DF80470FFF746FD636948BB4FF40042C9
:102190001A6008B0BDE8F08741F2D80002F0A0F85C
:1021A000814610B15146FFF7D3FCC7F80090B9F152
:1021B000000F8CD10020ECE7386803681B6B984750
:1021C0000146002887D13868FFF730FF3868036878
:1021D00032465B684146984700287FF47CAFE9E7C8
:1021E00061221A609DF802309DF803201B0612043C
:1021F00002F4702203F040731343BDF80020C2F3D1
:10220000090213439DF804201205022E02F4E00295
:102210000CBF4FF000410021134362690B43D361AF
:10222000636913225A616269136823F00103136022
:1022300039462046FFF74AFD08B96369A6E795F8D5
:10224000D03093BB6169D1F8002242F00102C1F89D
:1022500000226169D1F8002222F47C5222F00E02A1
:10226000C1F800226169D1F8002242F46062C1F82D
:1022700000226269C2F814326269C2F804326269EB
:1022800041F6FF71C2F80C126269C2F8403262690D
:10229000C2F8443263690122C3F81C226269D2F891
:1022A000003223F00103C2F8003295F8C83043F041
:1022B000020385F8C8306CE71838002008B500F034
:1022C00051F850EA0103024602D0421E61F10001BA
:1022D000044B186810B10B46FFF72EFDBDE808400F
:1022E00001F06AB81838002008B50020FFF7E0FDBB
:1022F000BDE8084001F060B808B50120FFF7D8FD3F
:10230000BDE8084001F058B800B59BB0EFF3098173
:1023100068226846FEF76EFEEFF30583014B9B6B68
:10232000FEE700BF00ED00E008B5FFF7EDFF00009D
:1023300000B59BB0EFF3098168226846FEF75AFEAC
:10234000EFF30583014B5B6BFEE700BF00ED00E0A0
:10235000FEE700000FB408B5029801F01FF9FEE790
:1023600001F0FEBB01F0E0BB13B56C4684E806004B
:10237000031D94E8030083E80500012002B010BDAE
:1023800073B58568019155B11B885B0707D4D0E907
:1023900000369B6B9847019AC1B23046A84701208E
:1023A00002B070BDF0B5866889B005460C465EB1D6
:1023B000BDF838305B070AD4D0E900379B6B9847EB
:1023C0002246C1B23846B047012009B0F0BD002214
:1023D0000023CDE900230023ADF808300A4603AB03
:1023E00001F10806106851681C4603C40832B24265
:1023F0002346F7D1106820609288A280FFF7B2FFD1
:102400000423ADF808302B68CDE90001DB6B694689
:1024100028469847D8E7000030B503680968DD0F03
:10242000B5EBD17F23F0604421F060424FEAD170D8
:102430000BD0002BB8BFA40C0029B8BF920C94425B
:1024400002D034BF0120002030BD944205D1C1F339
:102450008070C3F380738342F6D194422CBF002076
:102460000120F1E72DE9F041456A15B94162BDE867
:10247000F0814B6823F06047C3F38A464FEAD37E6E
:10248000C3F3807816EA230638BF3E46AC462B4697
:102490005A68BEEBD27F22F060440AD0002A18DAD4
:1024A000A40CB44217D19D420FD10D60DEE7134654
:1024B000EEE7A74207D102F08044C2F380724245A2
:1024C0000BD054B1EFE708D2EDE7CCF800100B6069
:1024D000CDE7B44201D0B442E5D81A689C46002A40
:1024E000E5D11960C3E700002DE9F047089D01F030
:1024F00007044FEAD508224405F0070500EBD10098
:102500004FF47F49944201D1BDE8F08704F00707FA
:1025100005F0070A57453E4638BF5646C6F108063D
:10252000111B8E4228BF0E46E10808EBD50E415C18
:1025300013F80EC0B94029FA06F721FA0AF1FFB2E2
:102540008CEA010147FA0AF739408CEA010C03F8DA
:102550000EC034443544D5E780EA0120082341F217
:10256000210201B24000002980B203F1FF33B8BF5D
:10257000504013F0FF03F4D17047000038B50C460B
:102580008D18A54200D138BD14F8011BFFF7E4FFF8
:10259000F7E7000042684AB11368436043898189C4
:1025A00001339BB29942438138BF83811046704703
:1025B00070B588B0202204460D4668460021FEF71B
:1025C0002BFD20460495FFF7E5FF024658B16B4608
:1025D000054608AE1C4603CCB44228606960234619
:1025E00005F10805F6D1104608B070BD082817D9C6
:1025F00009280CD00A280CD00B280CD00C280CD0A1
:102600000D280CD00E2814BF4020302070470C201D
:102610007047102070471420704718207047202002
:1026200070470000082817D90C280CD910280CD99D
:1026300014280CD918280CD920280CD930288CBF84
:102640000F200E207047092070470A2070470B208A
:1026500070470C2070470D20704700002DE9F843AB
:10266000078C072F04461ED9D0E9029800254FF6A3
:10267000FF73C5F12006A5F1200029FA05F108FA3B
:1026800006F628FA00F031430143C9B21846FFF7B5
:1026900063FF0835402D0346EBD1E1693A46BDE8BA
:1026A000F843FFF76BBF4FF6FF70BDE8F8830000FB
:1026B00010B54B6823B9CA8A63F30902CA8210BDF8
:1026C00004691A681C600361C38A013BC3824A60C3
:1026D000EFE700002DE9F84F1D46CB8A0F46C3F304
:1026E00009010529814692460B4630D00020AAB246
:1026F00007F11A049EB2042E1FFA80F80FD89045F5
:1027000003F1010306D3FB8A0A4462F30903FB8247
:1027100001201AE01AF80060E6540130EAE790451B
:10272000F1D2A1F1050B1C237C68BBFBF3F203FB88
:1027300012BB1FFA8BF6002C45D14846FFF72AFF43
:10274000044638B978606FF00200BDE8F88F4FF0AA
:102750000008E6E7002606607860ADB24FF0000B97
:10276000454510D90AEB0803221D13F8011B9155AA
:10277000B1B208F101081B291FFA88F82BD0454592
:1027800006F10106F1D8FB8AC3F30902154465F38B
:102790000903BCE7013292B21C462368002BF9D131
:1027A0006B1F0B441C21B3FBF1F301339BB29A4224
:1027B000D3D2BBF1000FD0D14846FFF7EBFE20B9D2
:1027C000C4F800B0BFE70122E7E7C0F800B05E46FA
:1027D00020600446C1E74545D5D94846FFF7DAFEF3
:1027E00008B92060AFE7C0F800B0002620600446BA
:1027F000B6E700002DE9F04F2DED028B1C4683B0AB
:102800005B69019207468846002B00F09A80238C72
:102810002BB1E269002A00F09480072B35D807F12C
:102820000C00FFF7B7FE054638B96FF002052846E1
:1028300003B0BDEC028BBDE8F08F14220021FEF73F
:10284000EBFB228CE16905F10800FEF7D3FB208C3D
:10285000013080B2FFF7E6FEFFF7C8FE013880B214
:102860002084013028746369228C1B782A4403F089
:102870001F0363F03F0348F000411372384669605C
:102880002946FFF7EFFD0125D1E700F10C034FF0DA
:10289000000908EE103A4FF0800A4E464D4618EEF9
:1028A000100AFFF777FE83460028BED014220021CD
:1028B000FEF7B2FB002E3AD1019BABF808300222A2
:1028C0000BF1080E1FFA82FC0CF10100BCF1060F9F
:1028D000218C80B201D88E422BD3FFF7A3FEFFF7E5
:1028E00085FE62691278013802F01F028E4208BF2D
:1028F0004FF0400A42EA49121BFA80F14AEA020A02
:10290000013048F0004281F808A08BF81000CBF8A5
:10291000042059463846FFF7A5FD238C0135B34204
:102920002DB289F001094FF0000AB8D17FE70022EB
:10293000C6E7E169895D0EF802100136B6B20132D0
:10294000C0E76FF0010572E7F8B515460E46302274
:10295000002104461F46FEF75FFB069B6360B5F54A
:10296000001F079BA76034BF6A094FF6FF72A3627E
:1029700097B2E66104F1100000239A4206D80023C2
:102980000360A782E3822383E360F8BD066001331E
:1029900030462036F1E7000003781BB94BB2002B1C
:1029A000C8BF01707047000000787047F8B50C464A
:1029B000C969074611B9238C002B37D1257E1F2DFD
:1029C00034D8387828BB228C072A2CD8268A36F0AF
:1029D00003032BD14FF6FF70FFF7D0FD20F001006D
:1029E0003102400441EA0561400C41EA40254FF6BE
:1029F000FF72234629463846FFF7FCFE002807DD14
:102A0000626913780133DBB21F2B88BF0023137078
:102A1000F8BD218A2D0645EA012505432046FFF72A
:102A20001DFE0246E5E76FF00300F1E76FF00100DD
:102A3000EEE7000070B58AB0044616460021282251
:102A400068461D46FEF7E8FABDF83830ADF810309C
:102A50000F9B05939DF840308DF81830119B07931C
:102A60006946BDF84830ADF820302046CDE9026512
:102A7000FFF79CFF0AB070BD2DE9F041D369054610
:102A80000C4616460BB9138C5BBB377E1F2F28D81C
:102A900095F80080B8F1000F26D03046FFF7DEFD34
:102AA0003378210241EAC33141EA0801338A41EA1D
:102AB000076141EA03410246334641F0800128465E
:102AC000FFF798FE00280ADD3378012B07D17269E1
:102AD00013780133DBB21F2B88BF00231370BDE8CE
:102AE000F0816FF00100FAE76FF00300F7E70000F4
:102AF000F0B58BB004460D461746002128226846E3
:102B00001E46FEF789FA9DF84C305A1E5342534137
:102B10008DF800309DF84030ADF81030119B0593D2
:102B20009DF848308DF81830149B07936A46BDF81D
:102B30005430ADF8203029462046CDE90276FFF723
:102B40009BFF0BB0F0BD0000406A00B1043070473D
:102B5000436A1A68426202691A600361C38A013BD0
:102B6000C38270472DE9F041D0F82080194E1446F9
:102B70001D464146002709B9BDE8F081D1E902238D
:102B8000A21A65EB0303964277EB03031ED2036A96
:102B90008B420DD1FFF78CFD036A1B68036203694A
:102BA0000B60C38A0161016A013BC3828846E2E788
:102BB000FFF77EFD0B68C8F8003003690B60C38A1D
:102BC0000161013BC382D8F80010D4E78846096848
:102BD000D1E700BF80841E002DE9F04F8BB00D4679
:102BE000DDF8509014469B468046002800F019817D
:102BF000B9F1000F00F01581531E3F2B00F2118137
:102C0000012A03D1BBF1000F40F00B810023CDE975
:102C10000833B8F81430B5EBC30F4FEAC30703D33A
:102C200000200BB0BDE8F08F2B199F42D8F80C3074
:102C30003ABF7F1BFFB227461BB9D8F81030002BD4
:102C40007AD0272D4ED8C5F12806B7424FF00003A1
:102C50002CBFF6B23E4600932946D8F8080008ABD0
:102C60003246FFF741FCA7EB060A35445FFA8AFAC1
:102C7000B8F8143003F10053053BDB000493D8F897
:102C80000C3003932821039B13B1BAF1000F2CD110
:102C9000D8F8100040B1BAF1000F05D0009608AB8B
:102CA0005246691AFFF720FC38B2002FB8D06607E9
:102CB0000AD00AAB03EBD401624211F8083C02F0DF
:102CC0000702134101F8083C082C3CD9102C40F2B3
:102CD000B580202C40F2B780BBF1000F00F09C8043
:102CE000082334E0BA460026C2E7049BE02B28BF45
:102CF000E02306930B44AB42059314D95A1B039867
:102D00000096924534BF5246D2B2691A08AB0430DD
:102D10000792FFF7E9FB079A1644AAEB020A15444B
:102D2000F6B25FFA8AFA049B069A05999B1A0493F5
:102D3000039B1B680393A6E70093D8F8080008AB31
:102D40003A462946AEE7BBF1000F13D00123B4EB9E
:102D5000C30F6CD0082C12D89DF82030621E23FAC5
:102D600002F2D50706D54FF0FF3202FA04F42343EE
:102D70008DF820309DF8203089F8003051E7102C74
:102D800012D8BDF82030621E23FA02F2D10706D510
:102D90004FF0FF3202FA04F42343ADF82030BDF8BF
:102DA0002030A9F800303CE7202C0FD80899631E8A
:102DB00021FA03F3DA0705D54FF0FF3202FA04F4E3
:102DC0000C430894089BC9F800302AE7402C2BD00C
:102DD000DDE90865611EC4F12102A4F1210326FA90
:102DE00001F105FA02F225FA03F311431943CB0767
:102DF00012D50122A4F12003C4F1200102FA03F349
:102E000022FA01F1A240524243EA010363EB430379
:102E100032432B43CDE90823DDE90823C9E9002328
:102E2000FFE66FF00100FCE66FF00800F9E6082C01
:102E3000A0D9102CB3D9202CEED8C3E7BBF1000FDA
:102E4000ADD0022383E7BBF1000FBBD004237EE7A4
:102E500030B5012A144638BF0124402C85B028BF64
:102E600040240025012ACDE9025518D81B788DF899
:102E7000083063070AD004AB03EBD405624215F8AF
:102E8000083C02F00702934005F8083C0091034615
:102E90002246002102A8FFF727FB05B030BD082A13
:102EA000E4D9102A03D81B88ADF80830E1E7202ABE
:102EB0008DBFD3E900231B680293CDE90223D8E735
:102EC00010B5CB681BB98B600B618B8210BD046998
:102ED0001A681C600361C38A013BC382CA60F0E7C1
:102EE00003064CBFC0F3C0300220704708B502464D
:102EF000FFF7F6FF022806D15306C2F30F2001D1D7
:102F000000F0030008BDC2F30740FBE72DE9F04FD6
:102F100093B0CDE903230A6804461046FFF7E0FFAB
:102F2000022814BFC2F306260026002A0D46824658
:102F300080F2F78112F0C04940F0F381097B00294B
:102F400000F0EF81022803D02378B34240F0EC81F7
:102F5000C2F304630693104602F07F030593FFF764
:102F6000C5FF059B29444FEA834848EA0A4848EAD6
:102F70004668CE7800230022CDE90823F309834672
:102F800048EA0008029367D0059B009302466768F1
:102F9000534608A92046B847002800F0C881276A90
:102FA0004FB9414604F10C00FFF702FB074690B908
:102FB0006FF0020054E03B6998450DD03F68002F48
:102FC000F9D1414604F10C00FFF7F2FA0746002858
:102FD000EED0236A3B60276297F817C006F01F08FF
:102FE000CCF3840CACEB08001FFA80FE0028B8BFBD
:102FF0000EF12000A8EB0C031FFA83FED7E9022193
:10300000B8BF00B2002B0793BEBF0EF120031BB266
:10301000079352EA010338D0039BDFF824E39A1A9E
:10302000049B4FF0000C63EB010196457CEB010320
:103030002BD36B7B97F81AE0734519D1029B002BB9
:1030400078D0012821DC7868F8B9DFF8F0C294451F
:1030500070EB010316D337E0276A27B96FF00C0035
:1030600013B0BDE8F08F3B699845B5D03F68F4E7F1
:10307000B24890427CEB010301D30020F0E7029BB1
:10308000002BFAD0079B0F2B17DCFA7DB30002F060
:10309000030203F07C031343FB7539462046FFF718
:1030A00007FB6B7BBB76029B3BB9FB7DC3F38402C2
:1030B000013262F38603FB75D0E76A7BBB7E9A42DE
:1030C000DBD1029B002B35D0B309022B32D0039BFE
:1030D000BB60049BFB60142200210DA8FDF79CFF40
:1030E000039B0A93049B0B932B1D0C932B7BADF836
:1030F0003EB0013BDBB2ADF83C30069B8DF8423070
:10310000059B8DF8433094F82C308DF840A083F067
:1031100001038DF844308DF84180A3680AA9204648
:103120009847FB7DC3F38403013303F01F039B0225
:10313000FB82A2E7FB7DC6F34012B2EBD31F40F047
:10314000F980C3F38403434540F0FC80029A2B7B53
:10315000B609002A52D016F0010661D1032B40F2C5
:10316000F480039BBB60049BFB60FB8A66F309034E
:10317000FB822B7BAE1D033BDBB23246394604F1AA
:103180000C00FFF7A7FA00280CDA39462046FFF7B3
:103190008FFAFB7DC3F38403013303F01F039B020B
:1031A000FB8205E7DDE90884AB883B834FF6FF73BC
:1031B000C9F12000A9F1200228FA09F104FA00F06F
:1031C000014324FA02F211431846C9B2FFF7C4F9C9
:1031D00009F10809B9F1400F0346E9D1B8822A7B09
:1031E000033AD2B23146FFF7C9F9FB7DB882DA4320
:1031F000C2F3C01262F3C713FB753EE786B92E1DFA
:10320000013BDBB23246394604F10C00FFF762FAAB
:103210000028BADB2A7BB88A013AD2B23146E2E70B
:10322000F98AC1F30901013B0429DAB25BD8281DF0
:10323000002307F11B069A4208D910F801CB06F8C3
:1032400001C0013101330529DBB2F4D103990A91A0
:1032500004990B91934207F11B010C9138BF043381
:1032600079680D9134BF55FA83F300230E93FB8ADE
:10327000ADF83EB0C3F309031A44069B8DF8423003
:10328000059B8DF8433094F82C30ADF83C2083F04A
:1032900001038DF8443000238DF840A08DF8418063
:1032A0007B602A7BB88A013A291DFFF767F93B8BBF
:1032B000B882834203D1A3680AA9204698472046D2
:1032C0000AA9FFF7FDFDFB7DBA8AC3F3840301332E
:1032D00003F01F039B02FB823B8B9A420CBF002032
:1032E0006FF01000BCE67B68002BAFD0052001E03A
:1032F0001C3033461E68002EFAD1091A081D2E1DF7
:10330000184401EB090CBCF11B0F5FFA89F39DD83F
:103310009A429BD916F8013B00F8013B09F10109DB
:10332000EFE76FF009009BE66FF00A0098E66FF098
:103330000B0095E66FF00D0092E600BF40420F00D3
:1033400080841E006FF00E008AE66FF00F0087E6A3
:10335000EFF3098305494A6B22F001024A6368339F
:1033600083F30988002383F31188704700EF00E09E
:10337000302080F3118862B60C4B0D4AD96821F4D5
:10338000E0610904090C0A43DA60D3F8FC2009491A
:1033900042F08072C3F8FC200A6842F001020A6021
:1033A0002022DA7783F82200704700BF00ED00E0AA
:1033B0000003FA05001000E010B5302383F31188F4
:1033C0000E4B5B6813F4006314D0F1EE103AEFF388
:1033D0000984683C4FF08073E361094BDB6B236623
:1033E00084F3098800F0A4F810B1064BA36110BD66
:1033F000054BFBE783F31188F9E700BF00ED00E020
:1034000000EF00E0FF020008020300084FF0E02395
:10341000002258684FF0FF31930003F1604303F539
:10342000614301329042C3F88010C3F88011F3D297
:103430007047000000F1604303F561430901C9B220
:1034400083F80013012200F01F039A4043099B00F8
:1034500003F1604303F56143C3F880211A607047AC
:1034600000230375826803691B6899689142FBD247
:103470005A6803604260106058607047002303750B
:10348000826803691B6899689142FBD85A68036097
:10349000426010605860704708B50846302383F3D7
:1034A00011880B7D032B05D0042B0DD02BB983F392
:1034B000118808BD8B6900221A604FF0FF338361C9
:1034C000FFF7CEFF0023F2E7D1E9003213605A6024
:1034D000F3E70000FFF7C4BF054BD968087518680B
:1034E00002681A60536001220275D860FCF7F2BED0
:1034F0002838002030B50C4BDD684B1C87B00446E3
:103500000FD02B46094A684600F02AF92046FFF7FB
:10351000E3FF009B13B1684600F02CF9A86907B0DF
:1035200030BDFFF7D9FFF9E72838002099340008AB
:10353000044B1A68DB6890689B68984294BF00202F
:103540000120704728380020084B10B51C68D86847
:1035500022681A60536001222275DC60FFF78EFF3B
:1035600001462046BDE81040FCF7B4BE28380020D4
:1035700038B5074C074908480123002523706560CA
:1035800000F0EEFB0223237085F3118838BD00BFE5
:10359000503A0020FC4400082838002008B572B6D4
:1035A000044B186500F0ACFA00F05CFB024B032200
:1035B0001A70FEE728380020503A002000F010B9B9
:1035C0008B60022308618B82084670478368A3F1F1
:1035D000840243F8142C026943F8442C426943F8EE
:1035E000402C094A43F8242CC26843F8182C0222C4
:1035F00003F80C2C002203F80B2C044A43F8102C7F
:10360000A3F12000704700BFED0200082838002019
:1036100008B5FFF7DBFFBDE80840FFF75BBF000020
:10362000024BDB6898610F20FFF756BF2838002057
:10363000302383F31188FFF7F3BF000008B501467C
:10364000302383F311880820FFF754FF002383F30E
:10365000118808BD10B503689C68A2420CD85C684C
:103660008A600B604C602160596099688A1A9A6080
:103670004FF0FF33836010BD1B68121BECE70000A6
:103680000A2938BF0A2170B504460D460A2660197A
:1036900000F060FB00F04CFB041BA54203D8751C36
:1036A0002E460446F3E70A2E04D9BDE870400120F7
:1036B00000F096BB70BD0000F8B5144B0D46D96103
:1036C00003F1100141600A2A1969826038BF0A2299
:1036D000016048601861A818144600F02DFB0A2705
:1036E00000F026FB431BA342064606D37C1C281988
:1036F00000F030FB27463546F2E70A2F04D9BDE833
:10370000F840012000F06CBBF8BD00BF2838002055
:10371000F8B506460D4600F00BFB0F4A134653F86A
:10372000107F9F4206D12A4601463046BDE8F84048
:10373000FFF7C2BFD169BB68441A2C1928BF2C46B9
:10374000A34202D92946FFF79BFF22463146034890
:10375000BDE8F840FFF77EBF283800203838002049
:1037600010B4C0E9032300235DF8044B4361FFF765
:10377000CFBF000010B5194C236998420DD0D0E995
:103780000032816813605A609A680A449A60002384
:1037900003604FF0FF33A36110BD2346026843F876
:1037A000102F53600022026022699A4203D1BDE8C3
:1037B000104000F0C9BA936881680B44936000F030
:1037C000B7FA2269E1699268441AA242E4D9114425
:1037D000BDE81040091AFFF753BF00BF283800208A
:1037E0002DE9F047DFF8BC8008F110072C4ED8F81F
:1037F000105000F09DFAD8F81C40AA68031B9A42AA
:103800003ED81444D5E900324FF00009C8F81C40F6
:1038100013605A60C5F80090D8F81030B34201D157
:1038200000F092FA89F31188D5E9033128469847C8
:10383000302383F311886B69002BD8D000F078FA1D
:103840006A69A0EB04094A4582460DD2022000F0C5
:10385000C7FA0022D8F81030B34208D151462846A2
:10386000BDE8F047FFF728BF121A2244F2E712EB37
:10387000090938BF4A4629463846FFF7EBFEB5E747
:10388000D8F81030B34208D01444211AC8F81C00EC
:10389000A960BDE8F047FFF7F3BEBDE8F08700BFC1
:1038A000383800202838002038B500F041FA054AA1
:1038B000D2E90845031B181945F10001C2E90801C6
:1038C00038BD00BF2838002000207047FEE7000008
:1038D000704700004FF0FF3070470000BFF34F8F7C
:1038E000024A1369DB03FCD4704700BF002002408A
:1038F00008B5094B1B7873B9FFF7F0FF074B5A69FE
:10390000002ABFBF064A9A6002F188329A601A689C
:1039100022F480621A6008BD683A0020002002404C
:103920002301674508B50B4B1B7893B9FFF7D6FF0A
:10393000094B5A6942F000425A611A6842F48052B7
:103940001A601A6822F480521A601A6842F480627F
:103950001A6008BD683A0020002002403F289ABF44
:1039600000F58030C0020020704700004FF4006076
:1039700070470000402070473F2808B50BD8FFF77C
:10398000EDFF00F500630268013204D10430834288
:10399000F9D1012008BD0020FCE700003F2810B548
:1039A00004461FD8FFF79AFFFFF7A2FF0E4BF32242
:1039B0001A6102225A615A6942EAC0025A615A697E
:1039C00042F480325A61FFF789FF4FF40061FFF73C
:1039D000C5FF00F043F9FFF7A5FF2046BDE8104002
:1039E000FFF7CABF002010BD002002402DE9F843B8
:1039F00040EA020313F00703144606D0304B40F2AE
:103A000041321A600020BDE8F88385182D4A95429E
:103A10000CD92B4A40F246311160F3E7031D1B68B5
:103A20004A68934208D1083C08300831072C14D961
:103A300002680B689A42F1D0FFF75AFFFFF74EFF7A
:103A4000214E08314FF001084FF00009012CA1F17F
:103A5000080706D8FFF766FF01E0002CECD1012033
:103A6000D1E7C6F81480054651F8083C45F8043BF8
:103A700051F8043C4360FFF731FF336943F0010321
:103A80003361C6F81490026851F8083C9A420CD091
:103A90000B4B40F26E321A600C4B18600C4B1C60E2
:103AA0000C4B1F60FFF73EFFACE72D6851F8043C5C
:103AB0009D4201F10801EBD1083C0830C6E700BF88
:103AC000643A00200000020800200240583A00201A
:103AD000603A00205C3A0020084908B50B7828B10C
:103AE0001BB9FFF705FF01230B7008BD002BFCD0AD
:103AF000BDE808400870FFF715BF00BF683A002016
:103B000002484FF47F4100F0ABB800BF0001002035
:103B10000846114600F006BC012000F003BC00007E
:103B2000084600F01DBC000038B5EFF311859DB9C3
:103B3000EFF30584C4F30804302334B183F3118810
:103B4000FFF7B2FE85F3118838BD83F31188FFF7C4
:103B5000ABFE84F3118838BDBDE83840FFF7A4BE42
:103B600038B5FFF7E1FF114C114AC00840EA417037
:103B7000A0FB025EC908A0FB040C1CEB050CA1FB1A
:103B800004404FF000035B41A1FB02121CEB040C4C
:103B900043EB000011EB0E0142F10002411842F12B
:103BA0000000090941EA007038BD00BFCFF753E3B8
:103BB000A59BC42010B50244064BD2B2904200D15E
:103BC00010BD441C00B253F8200041F8040BE0B2D1
:103BD000F4E700BF50280040114B30B5D3F89040B7
:103BE000240409D4D3F89040C3F89040D3F890400F
:103BF00044F40044C3F890400A4C236843F48073B3
:103C000023600244084BD2B2904200D130BD441C24
:103C100000B251F8045B43F82050E0B2F4E700BF73
:103C200000100240007000405028004007B50122FB
:103C300001A90020FFF7BEFF019803B05DF804FB67
:103C400013B50446FFF7F2FFA04205D0012201A9F7
:103C500000200194FFF7C0FF02B010BD70470000C4
:103C60007047000070470000074B45F255521A603C
:103C700002225A6040F6FF729A604CF6CC421A60FB
:103C8000024B01221A70704700300040703A002049
:103C9000034B1B781BB1034B4AF6AA221A607047EC
:103CA000703A002000300040054B1A6832B902F12A
:103CB000804202F50432D2F894201A60704700BFA7
:103CC0006C3A0020024B4FF40002C3F89420704776
:103CD0000010024008B5FFF7E7FF024B1868C0F379
:103CE000407008BD6C3A002070470000FEE70000FD
:103CF0000A4B0B480B4A90420BD30B4BDA1C121A9F
:103D0000C11E22F003028B4238BF00220021FDF7C2
:103D100083B953F8041B40F8041BECE794450008F2
:103D2000FC3A0020FC3A0020FC3A002000F0BAB82F
:103D30004FF08043586A70474FF080430022586329
:103D40001A610222DA6070474FF080430022DA6085
:103D5000704700004FF0804358637047FEE7000053
:103D600070B51B4B01630025044686B05860856220
:103D70000E46FFF7FDFA04F11003C4E904334FF0D7
:103D8000FF33C4E90635C4E90044A560E562FFF7E6
:103D9000CFFF2B460246C4E9082304F134010D4A43
:103DA000256580232046FFF70BFC0123E0600A4ACB
:103DB0000375009272680192B268CDE90223074B45
:103DC0006846CDE90435FFF723FC06B070BD00BF9F
:103DD000503A0020084500080D4500085D3D0008E8
:103DE000024AD36A1843D062704700BF28380020C7
:103DF000254BDA6A42F0070210B4DA62DA6A22F07E
:103E00000702DA62DA6ADA6C42F00702DA64DA6E22
:103E100042F00702DA664FF09042DB6E4FF0AA31B3
:103E200000234FF0105053604FF419249160D0607C
:103E30004FF6FF705061136254624FF02A541460C1
:103E40004FF6FE74C2F80434C2F80814C2F80C34F9
:103E5000C2F814440124C2F82034C2F82434C2F851
:103E60000044C2F80438C2F80818C2F80C38C2F886
:103E70001408C2F82038C2F82438C2F800385DF8B7
:103E8000044B00F04FB800BF0010024008B500F02E
:103E900005FAFFF76DFBBDE80840FFF705BF00001E
:103EA000704700000F4B9A6D42F001029A659A6FBD
:103EB00042F001029A670C4A9B6F936843F001033A
:103EC00093604FF080434F229A624FF0FF32DA62E4
:103ED00000229A615A63DA605A6001225A611A60BC
:103EE000704700BF00100240002004E04FF0804205
:103EF00008B51169D3680B40D9B2C9439B0711615A
:103F000007D5302383F31188FFF758FB002383F391
:103F1000118808BD08B5FFF779FABDE8084000F040
:103F200099B900005A4B4FF0FF319A6A99629A6A28
:103F300000229A62986AD86A60F00700D862D86A4C
:103F400000F00700D862D86A186B1963186B1A63FF
:103F5000186B986B9963986B9A63986BD86BD9635D
:103F6000D86BDA63D86B186C1964196C1A641A6C04
:103F7000484A4FF4E06111601A6E474942F001026D
:103F80001A66D3F8802022F00102C3F88020D3F80B
:103F900080209A6D42F080529A659A6F22F080528A
:103FA0009A679A6F4FF440720A604A6912F480620D
:103FB000FBD14A601A6822F0F00242F060021A60F7
:103FC0001A6842F001021A601A689107FCD50022B3
:103FD0009A609A6812F00C02FBD1D3F8901011F499
:103FE000407F1EBF4FF48031C3F89010C3F890207B
:103FF00061221A601A689207FCD500229A609A68BA
:1040000012F00C0FFBD169221A60D3F8942022F42D
:10401000706242F4C062C3F894201A6842F480725D
:104020001A601A685005FCD5D3F8902022F00322BC
:10403000C3F89020194ADA601A6842F080721A6058
:104040001A689101FCD5164A1A611A6842F080621A
:104050001A601A681201FCD500229A600D49114AB3
:10406000C3F888200A6822F0070242F004020A60BE
:104070000A6802F00702042AFAD19A6842F00302A1
:104080009A609A6802F00C020C2AFAD1704700BFBD
:104090000010024000200240007000401214000195
:1040A000100C100055550134074A08B5536903F048
:1040B0000103536123B1054A13680BB15068984757
:1040C000BDE80840FFF778B900040140743A0020C9
:1040D000074A08B5536903F00203536123B1054A47
:1040E00093680BB1D0689847BDE80840FFF764B902
:1040F00000040140743A0020074A08B5536903F0F0
:104100000403536123B1054A13690BB15069984701
:10411000BDE80840FFF750B900040140743A0020A0
:10412000074A08B5536903F00803536123B1054AF0
:1041300093690BB1D0699847BDE80840FFF73CB9D7
:1041400000040140743A0020074A08B5536903F09F
:104150001003536123B1054A136A0BB1506A9847A3
:10416000BDE80840FFF728B900040140743A002078
:10417000164B10B55C6904F478725A61A30604D535
:10418000134A936A0BB1D06A9847600604D5104A67
:10419000136B0BB1506B9847210604D50C4A936BF7
:1041A0000BB1D06B9847E20504D5094A136C0BB1EB
:1041B000506C9847A30504D5054A936C0BB1D06C9D
:1041C0009847BDE81040FFF7F7B800BF0004014072
:1041D000743A0020194B10B55C6904F47C425A61B2
:1041E000620504D5164A136D0BB1506D984723052F
:1041F00004D5134A936D0BB1D06D9847E00404D5F4
:104200000F4A136E0BB1506E9847A10404D50C4AA7
:10421000936E0BB1D06E9847620404D5084A136FB1
:104220000BB1506F9847230404D5054A936F0BB127
:10423000D06F9847BDE81040FFF7BEB800040140BA
:10424000743A002008B5FFF751FEBDE80840FFF7BB
:10425000B3B80000062108B50846FFF7EBF80621C1
:104260000720FFF7E7F806210820FFF7E3F806210B
:104270000920FFF7DFF806210A20FFF7DBF8062107
:104280001720FFF7D7F806212820FFF7D3F8BDE85D
:10429000084007211C20FFF7CDB8000008B5FFF744
:1042A00039FE00F007F8FFF7FBFDBDE80840FFF717
:1042B0003DBD00000023054A19460133102BC2E919
:1042C000001102F10802F8D1704700BF743A0020D3
:1042D0000B460146184600F02DB8000000F040B82B
:1042E000012838BF012010B50446204600F030F800
:1042F00030B900F007F808B900F00CF88047F4E78F
:1043000010BD0000024B1868BFF35B8F704700BF01
:10431000F43A002008B5062000F084F80120FFF7E9
:10432000D5FA0000024B0A4601461868FFF7F0BBB9
:104330001811002010B5054C13462CB10A46014651
:104340000220AFF3008010BD2046FCE70000000013
:10435000024B01461868FFF7DFBB00BF18110020B1
:10436000024B01461868FFF7DBBB00BF18110020A5
:1043700010B501390244904201D1002005E00378D4
:1043800011F8014FA34201D0181B10BD0130F2E714
:104390002DE9F041A3B1C91A17780144044603F18D
:1043A000FF3C8C42204601D9002009E00578BD423F
:1043B00004F10104F5D10CEB0405D618A54201D196
:1043C000BDE8F08115F8018D16F801EDF045F5D046
:1043D000E7E700001F2938B504460D4604D9162327
:1043E00003604FF0FF3038BD426C12B152F82130FB
:1043F0004BB9204600F030F82A4601462046BDE879
:10440000384000F017B8012B0AD0591C03D11623ED
:1044100003600120E7E7002442F82540284698473A
:104420000020E0E7024B01461868FFF7D3BF00BF4A
:104430001811002038B5074D0023044608461146E0
:104440002B60FFF747FA431C02D12B6803B12360AE
:1044500038BD00BFF83A0020FFF736BA034611F81E
:10446000012B03F8012B002AF9D17047706F676F99
:104470002E63616E6D6167697374000040A2E4F1A0
:10448000646891060041A3E5F265699207000000A7
:104490004261642043414E496661636520696E64F0
:1044A00065782E0080000000008000000000800081
:1044B00000000000000000007918000899200008A2
:1044C000F51F0008B9180008C5180008C51A00082B
:1044D00089180008991800088D1800089518000818
:1044E00091180008E91900089D18000869230008C0
:1044F000AD180008BD19000863300000F84400083A
:1045000080380020503A00206D61696E0069646C4B
:10451000650000000000000026040000000000000C
:1045200000A0010000000000FE2A0100D2040000EB
:104530001C1100200000000000000000000000002E
:10454000000000000000000000000000000000006B
:10455000000000000000000000000000000000005B
:10456000000000000000000000000000000000004B
:10457000000000000000000000000000000000003B
:10458000000000000000000000000000000000002B
:044590000000000027
:00000001FF
