:020000040800F2
:1000000000070020F1020008C53200087D32000818
:10001000A53200087D3200089D320008F302000876
:10002000F3020008F3020008F3020008B1420008DE
:10003000F3020008F3020008F3020008F3020008CC
:10004000F3020008F3020008F3020008F3020008BC
:10005000F3020008F302000881710008AD71000886
:10006000D971000805720008317200087543000854
:100070009D430008C9430008F543000821440008D7
:100080004944000875440008F30200085D32000886
:10009000F30200086D320008F30200085D720008E8
:1000A000F3020008F3020008F3020008F30200085C
:1000B000F3020008F3020008F3020008F30200084C
:1000C000F3020008F3020008F3020008F30200083C
:1000D000F3020008F3020008F3020008F30200082C
:1000E000C1720008F3020008F3020008F3020008DE
:1000F000F3020008F3020008F3020008A14400081C
:10010000F3020008F302000835730008F302000848
:10011000F3020008F3020008F3020008F3020008EB
:10012000CD440008F5440008214500084D4500086D
:1001300079450008F3020008F3020008F302000802
:10014000F3020008F3020008F3020008F3020008BB
:10015000A1450008CD450008F9450008F302000854
:10016000F3020008F3020008F3020008F30200089B
:10017000F302000801680008F3020008F302000817
:10018000F3020008F3020008F3020008F30200087B
:10019000F3020008F3020008F3020008F30200086B
:1001A000F3020008F3020008F3020008F30200085B
:1001B000F3020008F3020008F3020008F30200084B
:1001C000F3020008F3020008F3020008F30200083B
:1001D000F3020008ED670008F3020008F3020008CC
:1001E000F3020008F3020008F3020008F30200081B
:1001F000F3020008F3020008F3020008F30200080B
:10020000F3020008F3020008F3020008F3020008FA
:10021000F3020008F3020008F3020008F3020008EA
:10022000F3020008F3020008F3020008F3020008DA
:10023000F3020008F3020008F3020008F3020008CA
:10024000F3020008F3020008F3020008F3020008BA
:10025000F3020008F3020008F3020008F3020008AA
:10026000F3020008F3020008F3020008F30200089A
:10027000F3020008F3020008F3020008F30200088A
:10028000F3020008F3020008F3020008F30200087A
:10029000F3020008F3020008F3020008F30200086A
:1002A000F3020008F3020008F3020008F30200085A
:1002B000F3020008F3020008F3020008F30200084A
:1002C000F3020008F3020008F3020008F30200083A
:1002D000F3020008F3020008F3020008F30200082A
:1002E000E51600080000000000000000000000000B
:1002F00002E000F000F8FEE772B6374880F30888A5
:10030000364880F3098836483649086040F20000D4
:10031000CCF200004EF63471CEF200010860BFF35B
:100320004F8FBFF36F8F40F20000C0F2F0004EF627
:100330008851CEF200010860BFF34F8FBFF36F8F7B
:100340004FF00000E1EE100A4EF63C71CEF20001D3
:100350000860062080F31488BFF36F8F05F0BCFCA3
:1003600006F0CAFC4FF055301F491B4A91423CBF72
:1003700041F8040BFAE71D49184A91423CBF41F885
:10038000040BFAE71A491B4A1B4B9A423EBF51F82D
:10039000040B42F8040BF8E700201849184A914270
:1003A0003CBF41F8040BFAE705F0D4FC06F028FD49
:1003B000144C154DAC4203DA54F8041B8847F9E796
:1003C00000F042F8114C124DAC4203DA54F8041B11
:1003D0008847F9E705F0BCBC000700200023002097
:1003E0000000000808ED00E00001002000070020E8
:1003F000A079000800230020C8230020C823002083
:10040000786F0020E0020008E4020008E40200081F
:10041000E40200082DE9F04F2DED108AC1F80CD050
:10042000D0F80CD0BDEC108ABDE8F08F002383F328
:1004300011882846A047002004F02EFFFEE704F0B4
:10044000ADFE00DFFEE70000F8B501F0B1F901F004
:1004500011FB05F0C5FB074605F034FC0546A8BBBB
:100460001F4B9F4232D001339F4232D027F0FF0210
:100470001C4B9A4230D12E4642F21074F8B200F072
:1004800081FF00F085FF08B10024264601F074FDCD
:1004900020B10024032000F079F8264635B1124B34
:1004A0009F4203D0002405F005FC2646002005F0FD
:1004B000A1FB0EB100F080F801F0B0FA00F09CFF53
:1004C000204600F037F900F077F8F9E72E460024CF
:1004D000D7E704460126D4E7064641F28834D0E740
:1004E000010007B0000008B0263A09B008B501F0D5
:1004F00031F9A0F120035842584108BD07B541F237
:100500001203022101A8ADF8043001F041F903B053
:100510005DF804FB38B5302383F31188174803686E
:100520000BB104F085FF0023154A4FF47A7113488C
:1005300004F074FF002383F31188124C236813B175
:100540002368013B2360636813B16368013B636008
:100550000D4D2B7833B963687BB9022001F0D0F9D7
:10056000322363602B78032B07D163682BB90220F9
:1005700001F0C6F94FF47A73636038BDC8230020D8
:1005800015050008E8240020E0230020084B18701F
:1005900003280CD8DFE800F008050208022001F06B
:1005A000ADB9022001F0A8B9024B00225A60704791
:1005B000E0230020E8240020F8B501F0DDFC30B194
:1005C000544B03221A700022534B5A60F8BD534B10
:1005D000534A1C4619680131F8D004339342F9D1CB
:1005E0006268504B9A42F1D94F4B9B6803F100630C
:1005F00003F500339A42E9D205F030FB05F042FBE7
:10060000002001F0EFF80220FFF7C0FF474B002168
:10061000D3F8E820C3F8E810D3F81021C3F810117C
:10062000D3F81021D3F8EC20C3F8EC10D3F8142140
:10063000C3F81411D3F81421D3F8F020C3F8F01044
:10064000D3F81821C3F81811D3F81821D3F8802053
:1006500042F00062C3F88020D3F8802022F00062CC
:10066000C3F88020D3F88020D3F8802042F00072B5
:10067000C3F88020D3F8802022F00072C3F88020D5
:10068000D3F8803072B64FF0E023C3F8084DD4E9B8
:100690000004BFF34F8FBFF36F8F254AC2F8841059
:1006A000BFF34F8F536923F480335361BFF34F8FF0
:1006B000D2F8803043F6E076C3F3C905C3F34E3376
:1006C0005B0103EA060C29464CEA81770139C2F83E
:1006D0007472F9D2203B13F1200FF2D1BFF34F8F88
:1006E000BFF36F8FBFF34F8FBFF36F8F536923F447
:1006F000003353610023C2F85032BFF34F8FBFF372
:100700006F8F302383F31188854680F30888204754
:100710005CE700BFE0230020E8240020000002087E
:1007200020000208FFFF01080023002000440258B7
:1007300000ED00E02DE9F04F93B0B74B2022FF21F0
:1007400000900AA89D6801F013F9B44A1378A3B980
:100750000121B34811700360302383F311880368CB
:100760000BB104F065FE0023AE4A4FF47A71AC4839
:1007700004F054FE002383F31188009B13B1AA4BAD
:10078000009A1A60A94A1378032B03D00023137030
:10079000A54A53604FF0000A009CD3465646D14606
:1007A000012001F0ABF824B19F4B1B68002B00F037
:1007B0002C82002000F0CEFF0390039B002B01DA77
:1007C00000F062FE039B002BEDDB012001F094F8AA
:1007D000039B213B1F2BE3D801A252F823F000BF5B
:1007E00061080008890800081D090008A107000821
:1007F000A1070008A1070008AF0900087F0B000847
:10080000990A0008FB0A0008230B0008490B00089E
:10081000A10700085B0B0008A1070008CD0B00082A
:1008200001090008A1070008110C00086D08000864
:1008300001090008A1070008FB0A0008A107000839
:10084000A1070008A1070008A1070008A1070008E8
:10085000A1070008A1070008A10700081D0900085A
:100860000220FFF743FE002840F0F981009B02219F
:1008700005A8BAF1000F08BF1C4641F21233ADF8CB
:10088000143000F085FF8BE74FF47A7000F062FFC0
:10089000071EEBDB0220FFF729FE0028E6D0013F10
:1008A000052F00F2DE81DFE807F0030A0D10133692
:1008B0000523042105A8059300F06AFF17E0042131
:1008C0005548F9E704215A48F6E704215948F3E767
:1008D0004FF01C08404608F1040800F085FF042191
:1008E000059005A800F054FFB8F12C0FF2D10120BB
:1008F0004FF0000900FA07F747EA0B0B5FFA8BFB92
:1009000001F082F826B10BF00B030B2B08BF00247B
:10091000FFF7F4FD44E704214748CDE7002EA5D0BA
:100920000BF00B030B2BA1D10220FFF7DFFD0746D5
:1009300000289BD00120002600F054FF0220FFF782
:1009400025FE1FFA86F8404600F05CFF0446B0B171
:10095000039940460136A1F140025142514100F055
:1009600069FF0028EDD1BA46044641F21213022174
:1009700005A83E46ADF8143000F00AFF10E7254602
:100980000120FFF703FE244B9B68AB4207D92846A2
:1009900000F02AFF013040F067810435F3E70025BD
:1009A000224BBA463E461D701F4B5D60A8E7002EE5
:1009B0003FF45CAF0BF00B030B2B7FF457AF02201F
:1009C000FFF7E4FD322000F0C5FEB0F10008FFF6AD
:1009D0004DAF18F003077FF449AF0F4A08EB05034A
:1009E000926893423FF642AFB8F5807F3FF73EAF43
:1009F000124BB845019323DD4FF47A7000F0AAFE44
:100A00000390039A002AFFF631AF039A0137019B46
:100A100003F8012BEDE700BF00230020E4240020B1
:100A2000C823002015050008E8240020E02300204A
:100A300004230020082300200C230020E4230020AE
:100A4000C820FFF753FD074600283FF40FAF1F2DC6
:100A500011D8C5F120020AAB25F0030084494245B4
:100A6000184428BF4246019200F05CFF019AFF2122
:100A70007F4800F07DFF4FEAA803C8F387027C4956
:100A80002846019300F07CFF064600283FF46DAF36
:100A9000019B05EB830533E70220FFF727FD0028C4
:100AA0003FF4E4AE00F0D8FE00283FF4DFAE0027AC
:100AB000B846704B9B68BB4218D91F2F11D80A9BB0
:100AC00001330ED027F0030312AA134453F8203C3D
:100AD00005934046042205A9043701F037FA804601
:100AE000E7E7384600F080FE0590F2E7CDF8148085
:100AF000042105A800F04CFE02E70023642104A8AD
:100B0000049300F03BFE00287FF4B0AE0220FFF714
:100B1000EDFC00283FF4AAAE049800F093FE059087
:100B2000E6E70023642104A8049300F027FE0028D0
:100B30007FF49CAE0220FFF7D9FC00283FF496AE6C
:100B4000049800F081FEEAE70220FFF7CFFC0028BE
:100B50003FF48CAE00F090FEE1E70220FFF7C6FC08
:100B600000283FF483AE05A9142000F08BFE074651
:100B70000421049004A800F00BFE3946B9E73220A6
:100B800000F0E8FD071EFFF671AEBB077FF46EAE06
:100B9000384A07EB0903926893423FF667AE02209A
:100BA000FFF7A4FC00283FF461AE27F003074F4491
:100BB000B9453FF4A5AE484609F1040900F014FE1A
:100BC0000421059005A800F0E3FDF1E74FF47A70E9
:100BD000FFF78CFC00283FF449AE00F03DFE0028F2
:100BE00044D00A9B01330BD008220AA9002000F050
:100BF000C7FE00283AD02022FF210AA800F0B8FE44
:100C0000FFF77CFC1C4804F04DFB13B0BDE8F08FEF
:100C1000002E3FF42BAE0BF00B030B2B7FF426AE14
:100C20000023642105A8059300F0A8FD07460028CD
:100C30007FF41CAE0220FFF759FC804600283FF4E9
:100C400015AEFFF75BFC41F2883004F02BFB0598F2
:100C500000F00EFF46463C4600F0D6FEA0E50646F4
:100C60004EE64FF0000901E6BA467EE637467CE6DE
:100C7000E423002000230020A0860100094A49F255
:100C80006900136899B21B0C00FB013344F25061F8
:100C90001360054B186882B2000C01FB020018605B
:100CA00080B270471423002010230020002110225E
:100CB00010B5044600F05CFE034B03CB206061607E
:100CC0001868A06010BD00BF00E8F11F2DE9F041D9
:100CD000ADF54E7D0D46002140F275126CAC074615
:100CE0000EA80D9100F044FE4FF4C472002120467E
:100CF00000F03EFE0DF1340802F0ECFA4FF47A7287
:100D0000244BB0FBF2F0186093E80700022384E85C
:100D100007000DF5E9702382FFF7C8FF4FF4645315
:100D20001D4906A8238406F0A3FB19230DF2E32234
:100D30000DF1300C84F8323106AB1E46083203CE7A
:100D4000664542F8080C42F8041C3346F5D1337866
:100D5000414620461370012200F0E2FE002380B2DB
:100D6000E97E0393AB7E029305F1190301930123FE
:100D7000009306A3D3E90023CDE90480384602F0AE
:100D800067FE0DF54E7DBDE8F08100BF9E6AC4216F
:100D9000818A46EEF0240020807400082DE9F0419D
:100DA0002C4CDAB080460D46237A5BBB27A9284637
:100DB00000F0D8FF0746002842D19DF89D60C82E5C
:100DC0003ED801464FF4A662204600F0D1FD4FF414
:100DD000807332460DF19E01C4F8F8314FF4007370
:100DE00004F109002644C4F80C334FF44073C4F8EE
:100DF000203400F097FD9DF89C30777223720BB978
:100E0000EB7E237206AC8122002127A800F0B0FD02
:100E10000122214627A800F0EBFF002380B2E97EE3
:100E20000393AB7E029305F1190301932823CDE9C7
:100E300004400093404605A3D3E9002302F008FED6
:100E40005AB0BDE8F08100BFAFF300802641727256
:100E5000DF25D7B7F8490020F0B5254E4FF48A7545
:100E6000F1B0002405FB006596F8D830D822214661
:100E700085F8DC303AA885F8E84006AF00F078FD48
:100E800006F1090000F06CFDD5F8E430C2B206F1BD
:100E900009018DF8F0000DF1F100CDE93A3400F0D0
:100EA00041FD394601223AA800F0D8FF082380B25C
:100EB000317ACDE9047001270E48CDE9023706F1F9
:100EC000D80301933023009307A3D3E9002302F052
:100ED000BFFDA04206DD02F0FDF9C5F8E00038468E
:100EE00071B0F0BD2046FBE778F6339F93CACD8DF5
:100EF000F8490020083500202DE9F0411D4D86B04D
:100F00001D4E1E4F284602F0CFFD034658B3002465
:100F1000DFF86C80ADF814400294CDE90344027B05
:100F20008DF8142003AA9968406803C21B6843F037
:100F30000043029302F0D0F982190094384641F13F
:100F4000000302A901F00CFAA04205DD284602F0D8
:100F5000AFFD88F80040D5E798F80030072B05D89A
:100F6000013388F8003006B0BDE8F081014802F096
:100F70009FFDF8E70835002040420F00383500207B
:100F80002D4F002070B50D4614461E4602F0BCFCE5
:100F900050B9022E10D1012C0ED112A3D3E9002397
:100FA0000120C5E9002307E0282C10D005D8012C2A
:100FB00009D0052C0FD0002070BD302CFBD10BA325
:100FC000D3E90023ECE70BA3D3E90023E8E70BA365
:100FD000D3E90023E4E70BA3D3E90023E0E700BF54
:100FE000AFF30080401DA12026812A0B78F6339FA5
:100FF00093CACD8D9E6AC421818A46EE26417272C3
:10100000DF25D7B7F017304A39059E5638B5054663
:101010000E4C0021013500F00DFCA4F82C55B4F85D
:101020002C0500F0EFFB78B1B4F82C0500F0FAFBCA
:10103000014648B9B4F82C0500F0FCFBB4F82C3597
:101040000133A4F82C35EAE738BD00BFF849002089
:101050000A4B0B4A10B51A6003F5805393F84820E9
:101060003AB95C6C2CB1204600F0FEFF204606F039
:10107000B5F90448BDE8104000F0F6BF383500204F
:101080002C750008684500202DE9F04F8FB005460B
:101090000C4600AF02F038FC002849D1237E022B19
:1010A0001BD1E38A012B18D102F014F90646FFF791
:1010B000E5FD03464FF4C87006F51676DFF8C082EA
:1010C000B3FBF0F202FB103316FA83F3C8F80030DA
:1010D000E37E33B9A34B00221A703C37BD46BDE80E
:1010E000F08F07F12401204600F0F0FD0028F4D134
:1010F00007F11400FFF7DAFD97F8264007F1140115
:1011000007F12700224606F081F90028E2D10F2CD2
:1011100008D8944B1C70D8F80030A3F51673C8F8A3
:101120000030DAE797F82410284602F0E5FBD4E710
:10113000E38A282B2BD010D8012B23D0052BCCD120
:10114000BFF34F8F8849894BCA6802F4E0621343AA
:10115000CB60BFF34F8F00BFFDE7302BBDD1844E76
:10116000E17E327A9142B8D1607E3146002291F818
:10117000DC50854200F0A580013201F58A71042A15
:10118000F5D1AAE721462846FFF7A0FDA5E72146AD
:101190002846FFF703FEA0E7B2F8EC507B6005F1AC
:1011A00003094FEA99094FEA8902D11DC908A8EB42
:1011B000C10300219D46EB46584600F0D9FB04F1DF
:1011C000EE012A465846314400F0ACFB7B6813B967
:1011D000012000F007FB96F8D20000F013FB044654
:1011E00030B9307200F038FB204600F0FBFAB1E075
:1011F000D6F8D4203AB996F8D200B6F82C25824217
:1012000001D8FFF703FFD6F8D4202A44944208D22D
:1012100096F8D200B6F82C250130824201D8FFF7AB
:10122000F5FE5FFA89F25946706800F0A9FB08B92B
:10123000C54679E0726896F8D2002A447260D6F802
:10124000D42005EB0209C6F8D49000F0DBFA814502
:1012500009D396F8D220D6F8D4000132001B86F8C4
:10126000D220C6F8D400FF2D0FD80024347200F02D
:10127000F3FA204600F0B6FA00F07EFE3D4B1881EE
:1012800008B9FFF799F9C54627E7BB6896F8D90072
:101290000AFB0362FB68D2F8E41082F8E83001F53B
:1012A0008061C2F8E030C2F8E410FFF7D5FDFFF727
:1012B00023FE96F8D920013202F0030286F8D920E5
:1012C000B6E74FF48A7A20460AFB02F505F1EA01F7
:1012D000314400F0F5FDF86000287FF4FEAE0122F5
:1012E000354485F8E82001F0F5FFD5F8E020D6ED8B
:1012F000007A801A40F6B832B8EE677ADFED1E6ADF
:10130000192838BF1920904228BF104607EE900ACE
:10131000F8EEE77A67EEA67ADFED186AE7EE267A4E
:10132000FCEEE77AC6ED007A96F8D930BB60BA6871
:1013300073680AFB02F4321992F8E81059B1D2F836
:10134000E410E8468B423FF427AF002182F8E81012
:10135000C2F8E010C5467368064A9B0A0133138140
:10136000BBE600BF0135002000ED00E00400FA05F7
:10137000F8490020F0240020CDCCCC3D6666663FC5
:1013800004350020014B1870704700BFFC2400207A
:1013900038B54FF00054144B22689A4221D1627D37
:1013A0000025124B12481A70C922237D09301149B9
:1013B00000F8013C4FF48073C0F8DB50C0F8EF3107
:1013C0004FF40073C0F803334FF44073C0F8173480
:1013D00000F0A8FAE0222946204600F0C9FA0120D0
:1013E00038BD0020FCE700BF9AAD44C5FC240020B6
:1013F000F84900201600002037B500F0BDFD194D5A
:1014000002230022184928816B710123174801F03B
:1014100023FB002316494FF480520193154B1648C5
:101420000093164B02F040FA154B197811B112488F
:1014300002F062FA01F04EFF0446FFF71FFC4FF482
:10144000C873B0FBF3F202FB130304F5167010FA35
:1014500083F00C4B186004F035FC08B10F232B818E
:1014600003B030BDF024002040420F00383500208A
:1014700000250020850F000808350020891000088D
:10148000FC240020043500202DE9F04F8C4C2DED7C
:10149000028B85A7D7E9006795B00FF21429D9E927
:1014A00000899FED858BFFF727FD0DAD0023DFF849
:1014B00024B20C93ADF83C300D936B6000234FF0D9
:1014C000010A0DF1250209A958468DF825308DF83D
:1014D00024A08DED008B01F065FE9DF824200023F3
:1014E000002A40F0AE80204602F00EFA05460028A1
:1014F00047D1DFF8E4B101F0EDFEDBF800309842AF
:101500003FD301F0E7FE0790FFF7B8FB4FF4C87335
:10151000079AB0FBF3F101FB130302F5167010FA02
:1015200083F0CBF8000010A8DFF8B0B19BF80010F2
:10153000002914BF2B46534607918DF83030FFF732
:10154000B5FB079910AB0DF13100C1F11002194440
:10155000D2B2062A28BF0622079200F0E3F9079AC2
:101560000CAB2046039301321823D2B20293554BA1
:1015700004923246CDE900A33B4602F00BFA8BF809
:10158000005001F0A7FE504A504D1368C31AB3F53E
:101590007A7F32D3106001F09FFE02460B46204650
:1015A00002F090FA204602F0AFF930B32B7A0DF139
:1015B000400BDFF82CA1002B14BF032302238AF871
:1015C000053001F087FE4FF47A7301225946B0FBD3
:1015D000F3F0CAF80000504600F050FB182380B228
:1015E000424602933A4B019340F25513CDE903B0C2
:1015F000009320464B4602F0CDF92B7AABB101F0B7
:1016000069FE4FF0000A83464FF48A7295F8D900BC
:10161000504400F0030002FB005393F8E81071B34C
:101620000AF1010ABAF1040FF0D1C82003F03AFE22
:101630002B7A002B7FF435AF15B0BDEC028BBDE8E3
:10164000F08F1946102210A800F092F90DF1260330
:101650000AAA0CA9584601F08FF811AB95E80300CF
:1016600083E803009DF83C3010A920468DF84C30EB
:101670000C9B1093DDE90A2302F0F8FB1EE7D3F878
:10168000E01049B12B68ABEB0101FA2B38BFFA230C
:101690000533B1EB430FC3D3FFF7DEFB4FF48A7280
:1016A0000028BDD1C1E700BF401DA12026812A0B23
:1016B000F1C6A7C1D068080F0000000000000000BC
:1016C0000835002000350020284F0020F849002070
:1016D0002C4F002038350020043500200135002033
:1016E000F024002008B5054801F0EEF8044A054949
:1016F0000020BDE8084005F06BBE00BF3835002073
:101700006C4F0020511000080F4B70B51B780C4631
:101710000133DBB2012B11D80C4D4FF47A732968D9
:10172000A2FB033222460E6A01462846B047844295
:1017300004D1074B002201201A7070BD4FF4FA70DB
:1017400003F0B0FD0020F8E71823002068520020C5
:101750005C4F0020002307B5024601210DF1070070
:101760008DF80730FFF7D0FF20B19DF8070003B0D8
:101770005DF804FB4FF0FF30F9E700000A46042152
:1017800008B5FFF7C1FF80F00100C0B2404208BDBC
:1017900030B4054C0A46014623682046DD69034BF8
:1017A000AC4630BC604700BF68520020A0860100F4
:1017B00070B50A4E00240A4D04F0A4F83080286861
:1017C0003388834208D904F099F82B680444013324
:1017D000B4F5003F2B60F2D370BD00BF5E4F002018
:1017E000304F002004F05CB900F1006000F50030DB
:1017F0000068704700F10060920000F5003004F0CE
:10180000DDB80000054B1A68054B1B889B1A834204
:1018100002D9104404F072B800207047304F002005
:101820005E4F0020024B1B68184404F06DB800BFE7
:10183000304F0020024B1B68184404F077B800BFFB
:10184000304F00200020704700F1FF5000F58F104E
:10185000D0F8000870470000064991F8243033B1F1
:1018600000230822086A81F82430FFF7C3BF012053
:10187000704700BF344F0020014B1868704700BF0D
:101880000010005C194B01380322084470B51D6834
:10189000174BC5F30B042D0C1E88A6420BD15C68B8
:1018A0000A46013C824213460FD214F9016F4EB131
:1018B00002F8016BF6E7013A03F10803ECD181422B
:1018C0000B4602D22C2203F8012B0424094A168865
:1018D000AE4204D1984284BF967803F8016B013C74
:1018E00002F10402F3D1581A70BD00BF0010005C71
:1018F0001C230020C87400087047000070470000D7
:101900007047000070B504464FF47A764CB1412C14
:10191000254628BF412506FB05F0641B03F0C2FCE9
:10192000F4E770BD002310B5934203D0CC5CC454DF
:101930000133F9E710BD0000013810B510F9013F7F
:101940003BB191F900409C4203D11AB10131013AF7
:10195000F4E71AB191F90020981A10BD1046FCE77F
:1019600003460246D01A12F9011B0029FAD170472A
:1019700002440346934202D003F8011BFAE7704782
:101980002DE9F8431F4D14460746884695F8242054
:1019900052BBDFF870909CB395F824302BB920220D
:1019A000FF2148462F62FFF7E3FF95F824004146E8
:1019B000C0F1080205EB8000A24228BF2246D6B241
:1019C0009200FFF7AFFF95F82430A41B17441E4484
:1019D0009044E4B2F6B2082E85F82460DBD1FFF71C
:1019E0003BFF0028D7D108E02B6A03EB8203834238
:1019F000CFD0FFF731FF0028CBD10020BDE8F8831E
:101A00000120FBE7344F0020024B1A78024B1A707A
:101A1000704700BF5C4F00201823002010B5114C08
:101A2000114802F083FF21460F4802F0ABFF246803
:101A30004FF47A70D4F89020D2F8043843F00203BF
:101A4000C2F80438FFF75EFF0849204603F0A8F803
:101A5000D4F89020D2F8043823F00203C2F80438F6
:101A600010BD00BF3877000868520020407700089A
:101A700070470000F0B5A1B071B60023012000242A
:101A800080261A46194602F05FFE4FF4D067214ABD
:101A90003D25136923BBD2F810310BBB036804F159
:101AA000006199600368C3F80CD003685E60036846
:101AB0001F6001680B6843F001030B6001680B684D
:101AC00023F01E030B6001680B68DB07FCD4037B6B
:101AD0008034416805FA03F3B4F5001F0B60D8D1D8
:101AE00002F072FEB4F5001F11D000240A4E0B4D17
:101AF000012003F0D5FF3388A34205D9286820448C
:101B0000013403F013FFF6E7002003F0C9FF61B6CC
:101B100021B0F0BD002000525E4F0020304F002069
:101B20002DE9F8430D46044600219046284640F230
:101B30007912FFF71DFF234620220021284604F1D9
:101B4000220702F035F9231D022220212846C02653
:101B500002F02EF9631D03222221284602F028F903
:101B6000A31D03222521284602F022F904F10803CF
:101B700010222821284602F01BF904F11003082244
:101B80003821284602F014F904F1110308224021FB
:101B9000284602F00DF904F11203082248212846D4
:101BA00002F006F904F1140320225021284602F025
:101BB000FFF804F1180340227021284602F0F8F8DB
:101BC00004F120030822B021284602F0F1F804F1C4
:101BD00021030822B821284602F0EAF831460836E7
:101BE0003B4608222846013702F0E2F8B6F5A07F0E
:101BF000F4D1314604F132030822284602F0D8F825
:101C0000002794F8326004F13309F900BE4201F56F
:101C1000A4711FD8F70007F5A476B8F1000F08D11A
:101C2000314607F24F1604F599730722284602F051
:101C3000BFF894F83201B046502828BF502007461C
:101C400004EB0009A1450DD106EBC7000730C00821
:101C5000BDE8F88309EB070308222846013702F0A4
:101C6000A7F8D2E704F2331341460822284608F1C8
:101C70000808013402F09CF8E4E7000013B50446BC
:101C8000084600212022234601900160C0F803107D
:101C900002F08EF8231D01980222202102F088F81C
:101CA000631D01980322222102F082F8A31D0198EE
:101CB0000322252102F07CF8019804F10803102288
:101CC000282102F075F8072002B010BDF7B5047F97
:101CD00005460E462CB1838A122B02D9012003B08F
:101CE000F0BD0023072228460096194601F024FF84
:101CF000731C0122072100932846002301F01CFFDA
:101D0000D4B9B31C052208212846009323460D248C
:101D100001F012FFB378102BE0D83746BB1BB27826
:101D2000934210D307342B7FA88AE408B3B98442C6
:101D300094BF00200120D2E7AB8A0824DB00083BD7
:101D4000DB08B370E6E7FB1C214608222846009317
:101D500000230834013701F0EFFEDFE7201A18BF37
:101D60000120BCE7F7B5047F05460E462CB1838AF7
:101D7000CA2B02D9012003B0F0BD00230822284657
:101D80000096194601F0D8FE731CD4B908220093BE
:101D9000234610241146284601F0CEFE7378C82B46
:101DA000E8D801235F1C7278013B934210D30734BB
:101DB0002B7FA88AE408B3B9844294BF0020012095
:101DC000D9E7AB8A0824DB00083BDB087370E5E742
:101DD000F3192146082228460093002301F0ACFEA7
:101DE00008343B46DEE7201A18BF0120C3E7000095
:101DF0002DE9F8430D460446164600218122284667
:101E0000FFF7B6FD234608220021284601F0D0FF47
:101E1000C6B90F26631C07220821284601F0C8FF17
:101E200094F90130B0466778002BB8BF7F2704EBE8
:101E300007094C4508D10736082010FB0760C00889
:101E4000BDE8F8830826EBE7A31C41460822284694
:101E500008F10808013401F0ABFFEAE72DE9F04191
:101E60000D46044616460021CE222846FFF780FD87
:101E7000234628220021284601F09AFFBEB93026C9
:101E800004F1080308222821284601F091FF14F8E4
:101E9000080F0027C82828BFC8208046B84506EB91
:101EA000C70106D806EBC800C008BDE8F0812826A7
:101EB000EDE7013708222846E31901F079FFEDE745
:101EC000F7B5047F05460E4634B1838AB3F5827FA9
:101ED00002D9012003B0F0BD0123102200212846C1
:101EE000009601F029FEDCB9B31C09221021284616
:101EF00000932346192401F01FFE7388B3F5807FF9
:101F0000E7D83746BB1B7288934210D307342B7F28
:101F1000A88AE408B3B9844294BF00200120D9E71D
:101F2000AB8A1024DB00103BDB087380E5E73B1D28
:101F3000214608222846009300230834013701F087
:101F4000FBFDDFE7201A18BF0120C3E730B50A44C4
:101F5000084D91420DD011F8013B5840082340F341
:101F60000004013B2C4013F0FF0384EA5000F6D13B
:101F7000EFE730BD2083B8EDF7B5354A6B46106802
:101F800051686A4603C308233249334805F04EFAC4
:101F9000044688BB0A25314A6B46106851686A4678
:101FA00003C308232E492C4805F040FA04460028B4
:101FB00045D00369B3F5F01F41D8B0F86620392A3F
:101FC0003DD1284A024402F15C018B4237D35C3B8D
:101FD000214900209E1AFFF7B9FF04F1640107466A
:101FE00032460020FFF7B2FFA3689F4227D1E36883
:101FF000984208BF002522E00369B3F5F01F25D8F9
:10200000428B392A20D1174A024402F110018B4237
:1020100018D3103B104900209D1AFFF797FF04F1D9
:10202000180106462A460020FFF790FFA3689E424B
:1020300002D1E368984201D00D25ACE7002528467F
:1020400003B0F0BD1025A6E70C25A4E70B25A2E7F9
:10205000D8740008DCFF1D0000000208E1740008CD
:1020600090FF1D000800FEF710B5037C044613B96D
:10207000006805F0C3F9204610BD00000023BFF33F
:102080005B8FC360BFF35B8FBFF35B8F8360BFF376
:102090005B8F7047BFF35B8F0068BFF35B8F704748
:1020A00070B505460C30FFF7F5FF044605F108064C
:1020B0003046FFF7EFFFA04206D96D683046FFF7C4
:1020C000E9FF2544281A70BD3046FFF7E3FF201AC8
:1020D000F9E7000070B505464068A0B105F10C06AF
:1020E00005F10800FFF7D6FF04463046FFF7D2FFA0
:1020F000844204F1FF34304694BF6D680025FFF739
:10210000C9FF2C44201A70BD38B50C460546FFF7B0
:10211000C7FFA04210D305F10800FFF7BBFF04443E
:102120006868BFF35B8FB4FBF0F100FB1144012042
:10213000AC60BFF35B8F38BD0020FCE72DE9F041B8
:10214000144607460D46FFF7C5FF844228BF0446E4
:10215000D4B1B84658F80C6B4046FFF79BFF3044AB
:10216000286040467E68FFF795FF331A9C4203D8EB
:1021700001206C60BDE8F081A41B6B603B682044CB
:10218000AB60E8600220F5E72046F3E738B50C467F
:102190000546FFF79FFFA04210D305F10C00FFF7A3
:1021A00079FF04446868BFF35B8FB4FBF0F100FB78
:1021B00011440120EC60BFF35B8F38BD0020FCE7C9
:1021C0002DE9FF418846694607466C46FFF7B6FF92
:1021D000002506B204EBC606B4420AD0626808EBDA
:1021E000050120680834FFF79DFB54F8043C1D44AA
:1021F000F2E729463846FFF7C9FF284604B0BDE894
:10220000F0810000F8B505460C300F46FFF742FF9D
:1022100005F1080604463046FFF73CFFA042304671
:1022200088BF6C68FFF736FF201A386020B12C6831
:102230003046FFF72FFF2044F8BD000073B5144669
:1022400006460D46FFF72CFF8442019028BF044646
:10225000DCB101A93046FFF7D5FF019B33B93268E5
:10226000C5E90233C5E9002401200CE09C42286046
:1022700038BF0194019884426860F5D93368241A04
:102280000220AB60EC6002B070BD2046FBE70000AE
:102290002DE9FF410F4669466C46FFF7CFFF00B2BC
:1022A000002604EBC005AC4209D0D4F80480B8196C
:1022B00054F8081B42464644FFF734FBF3E7304628
:1022C00004B0BDE8F081000038B50546FFF7E0FF37
:1022D000044601462846FFF717FF204638BD000098
:1022E0007047000010B41346026814680022A44628
:1022F0005DF8044B6047000000F5805090F85904E9
:102300007047000000F5805090F8520470470000BC
:1023100000F5805090F95804704700004E20704737
:10232000302383F3118800F58052D2F89C34D2F820
:1023300098041844D2F894341844D2F87C341844E1
:10234000D2F88C341844D2F888341844002383F32C
:102350001188704700F58050C0F854140120704770
:102360002DE9F04F0C4600F5805185B01F4691F8DD
:10237000523405469046BDF838909BB1D1F8783478
:102380000133C1F878342368980006D4237B082BE6
:102390000BD9627B0AB10F2B07D9D1F87C340133FA
:1023A000C1F87C344FF0FF3010E0302383F3118804
:1023B000EB6AD3F8C42012F4001B0AD0D1F88034A1
:1023C00000200133C1F8803480F3118805B0BDE8E6
:1023D000F08F20684822D3F8C4300028C3F3044AA1
:1023E0006B6AB4BF40F08040800412FB0A334FEAAE
:1023F0004A161860226852004FEA0A6244BF40F051
:1024000000501860207B42EA00425A60607B10B3A3
:1024100042F440125A60D1F8B0240132C1F8B0241D
:10242000AA1902F58352117B41F020011173207B20
:10243000039300F0ABFF0330039B80105FFA8BF235
:102440000BF1010B82420DDA04EB820103EB8202F5
:1024500049689160F2E7AA1902F58352117B60F393
:102460004511E3E70122EB6A05EB4A1102FA0AF291
:1024700001F58251C3F8D020AB19183104F10C02D8
:1024800003F58253C3E90487234653F8040B9342B0
:1024900041F8040BF9D11B882E440B8041F26803EC
:1024A00046F803A006F5805609F0030396F86C2061
:1024B00043F0100322F01F02134386F86C30002310
:1024C00083F3118842463B4621462846CDF80090CA
:1024D00000F022FF012079E72DE9F04700F5805652
:1024E000044696F85254002D40F00381037C032BE0
:1024F00040F0948028462B462F465FFA80FC944596
:1025000010DA01EBCC0E51F83CC0BCF1000F04DB3B
:10251000DEF804C0BCF1000F02DB01370130ECE74C
:102520000133FBE7302080F31188E06AF3B9D0F87B
:10253000803043F00203C0F880304E23E06A002F61
:102540006FD1D0F8803043F00103C0F880306A4B7F
:102550006A4A1B6803F1805303F52C539B00934296
:10256000A36240F2B080664800F0AEFE4D2B42D828
:10257000DFF884814FEA034EDFF88891D8F800C075
:102580004EEA8C0EC0F884E00CF1805000F52C501F
:102590008000606103EB0C00D4F82CC0C3F14E0343
:1025A000C8F80000DCF8800040F03000CCF8800073
:1025B0004FF0000CD4F81480E6465FFA8CF08242AB
:1025C000BCDD01EBC00A51F83000002810DBDAF85E
:1025D00004A0BAF1000F0BDA09EA00400AF07F0A02
:1025E00040EA0A0040F0084048F82E000EF1010EC3
:1025F0000CF1010CE1E7836923F00103836100F032
:1026000069FE0646E36A9B69D90704D500F062FEBD
:10261000831BFA2BF6D9002383F311882846BDE8E3
:10262000F087B7EB530F3DD2DFF8CCE04FEA074C11
:10263000DEF800304CEA830CC0F888C003F180500B
:1026400003EB4703002700F52C50CEF80030BC46C2
:102650008000A061E06AD0F8803043F00C03C0F83D
:102660008030D4F818E0FBB29A427FF770AF51F88F
:10267000330001EBC3080028D8F8043001DB002B3D
:102680000EDB20F0604023F0604340F0005043F048
:1026900000434EF83C000EEBCC000CF1010C436003
:1026A0000137E0E7836923F00103836100F012FE44
:1026B0000646E36A9B69DA07ADD500F00BFE831B83
:1026C000FA2BF6D9A7E7E26A936923F00103936135
:1026D00000F000FE0746E36A9B69DB0705D500F0C2
:1026E000F9FDC31BFA2BF6D995E7012586F852545C
:1026F00091E7002592E700BF684F0020FCB500403D
:10270000EC7400080000FF0713B500F58054019138
:10271000606CFFF7DFFC1F280AD920220199606C4A
:10272000FFF74EFDA0F120035842584102B010BD02
:102730000020FBE708B5302383F3118800F58050B3
:10274000406CFFF79BFC002383F3118808BD000059
:102750000022026082814260826070470022002372
:1027600010B5C0E90023002304460C3020F8043CD7
:10277000FFF7EEFF204610BD2DE9F0479A4688B0DE
:10278000074688469146302383F3118807F5805425
:102790006846FFF7E3FF606CFFF782FC1F282ED925
:1027A00020226946606CFFF78FFD202827D194F81E
:1027B000523423B303AD444605AB2E46083403CE52
:1027C0009E4244F8080C44F8041C3546F5D13068A4
:1027D0002060B388A380DDE90023C9E90023BDF8A8
:1027E0000830AAF80030002383F3118853464A4684
:1027F0004146384608B0BDE8F04700F07BBD0020F8
:1028000080F3118808B0BDE8F08700002DE9F84F8B
:102810000023064600F58154054688461034C0E979
:102820000133264B46F8303B374638462037FFF712
:1028300095FFA742F9D105F580544FF4805305F573
:10284000A3594FF0000A26630026676405F58357F5
:1028500009F110094FF0000B1037E663C4E90D369B
:10286000012384F8403084F84830A7F1180020375D
:1028700047E910ABFFF76CFF47F8286C4F45F4D1E0
:1028800084F85884A4F85A64A4F85C64A4F85E64DC
:1028900084F86064A4F86264A4F86464A4F86664CC
:1028A00084F86864B8F1000F02D0054800F00CFD10
:1028B000044B2846EB62BDE8F88F00BF2C7500087A
:1028C0001075000800A00040044B10B519780446AC
:1028D0004A1C1A70FFF79AFF204610BD654F002072
:1028E0002DE9F04300295AD02E4E2F48B6FBF1F4C3
:1028F00081428CBF0A201120431EB4FBF0F700FB7D
:102900001740DDB220B1022B1846F5D8002032E086
:102910007B1EB3F5806F2ED2C5EBC5084FF47A73DA
:1029200008F103044FEAE40EC4F3C7040EF10109F1
:10293000281B0EFB033E5FFA80FC59FA80F0BEFBB9
:10294000F0F0B0F5617F18DC83B2601C5CFA80F0B7
:102950007843B6FBF0F08142D8D1611E0F29D5D85B
:102960000CF1FF310729D1D8012013805780107155
:10297000547182F806C0BDE8F08308F1FF34E0101E
:10298000C4F3C70400F1010E2D1B00FB03335FFAF3
:1029900085FC5EFA85F5B3FBF5F39BB2D5E70846F7
:1029A000E9E700BF00B4C4043F420F0030B50D4B4F
:1029B00005200D4D1C786C438C420ED159780120B6
:1029C000518099785171D9789171197911715B7928
:1029D00003EB83035B00138030BD013803F1060372
:1029E000E8D1F9E76C75000840420F0038B540F2B5
:1029F0007772C36A154CC3F8BC200722C36AC3F8B8
:102A0000C8202268C16A930043F4C023C1F8A030F3
:102A100002F1805302F16C01C56A03F52C53EA32CE
:102A200089009B00226041F0E061094AC361C5F85A
:102A3000C01003F5D87103F56A7341629342836253
:102A400002D9044800F040FC38BD00BF684F0020A8
:102A5000FCB50040EC7400082DE9F04F00F58055FE
:102A60001F4689B0044695F8583489469046012B94
:102A700004D90026304609B0BDE8F08FA04A52F8CC
:102A8000231009B942F823009E48C4F80C9001783D
:102A90002774C9B9302383F311889B4BD3F8EC20FA
:102AA00042F48072C3F8EC20D3F8942042F4807290
:102AB000C3F89420D3F8942022F48072C3F89420B1
:102AC0000123037081F3118895F851647EB9302396
:102AD00083F311880321132001F080FE03211520C8
:102AE00001F07CFE012385F8513486F311883023F0
:102AF00083F31188E26A936923F01003936100F075
:102B0000E9FB8246E36A9E6916F0080609D000F0E8
:102B1000E1FBA0EB0A03FA2BF4D9002686F3118817
:102B2000A8E79A6942F001029A6100F0D3FB82465D
:102B3000E36A9A69D00706D400F0CCFBA0EB0A0345
:102B4000FA2BF5D9E9E79A694FF0000A42F0020240
:102B50009A61E36AC3F854A08AF3118804F5825B92
:102B6000686CFFF78BFA0BF1100B202200216846EE
:102B7000FEF7FEFE02A8FFF7EBFD6A460BEB06032D
:102B80000DF1180ECDF818A094460833BCE80300E8
:102B9000F44543F8080C43F8041C6246F4D1DCF811
:102BA000000020361860B6F5806F9CF804201A717A
:102BB000DBD1002304F5A252494620461A3285F89B
:102BC000503485F85334FFF78BFE064690B9E26A1D
:102BD000936923F00103936100F07CFB0546E36AEF
:102BE0009B69D9077FF545AF00F074FB431BFA2BB7
:102BF000F5D93EE795F85E34C5F86C94591E95F802
:102C00005F34E26A013B1B0243EA416395F86014BA
:102C100001390B43B5F85C14013943EA0143D36130
:102C2000B8F1000F36D004F5A352414620460232D7
:102C3000FFF7BCFE90B9E26A936923F00103936148
:102C400000F048FB0546E36A9B69DA077FF511AFA0
:102C500000F040FB431BFA2BF5D90AE795F86724EF
:102C6000C5F87084511E95F86824E36A013A120190
:102C700042EA012295F8661401390A43B5F8641452
:102C8000013942EA014242F40002DA604FF4206264
:102C9000E36A9A64E36A4FF000082046C3F8BC80F8
:102CA000FFF7A4FE85F859846FF04042E36A1A6585
:102CB000164AE36A5A654FF00222E36A9A654FF0BA
:102CC000FF32E36AC3F8E0200322E36A9742DA6541
:102CD0003FF4D0AEE26A936923F00103936100F000
:102CE000F9FA0746E36A9B69DB0705D500F0F2FABB
:102CF000C31BFA2BF6D9BCE6012385F85234B9E69A
:102D0000604F0020644F002000440258550200022A
:102D10002DE9F04F054689B090469946002741F2CB
:102D2000680A00F58056EB6AD3F8D830FB40D80724
:102D300051D505EB47124FEA471B52441379190747
:102D400049D4D6F884340133C6F8843405F5A55344
:102D5000C3E9008913799A0605EB0B0248BFD6F840
:102D6000B434524444BF0133C6F8B434137943F049
:102D700008031371DB0723D596F8533403B305F525
:102D800082546846FFF7EAFC03AB18345C4404F154
:102D9000080C2068083454F8041C1A46644503C221
:102DA0001346F6D12068694610602846A2889A80AA
:102DB0000123ADF808302B68CDE90089DB6B98471B
:102DC000D6F8A834D6F854040133C6F8A83410B1A4
:102DD00003681B6998470137202FA4D109B0BDE8CB
:102DE000F08F00002DE9F04F0F468DB0044600F043
:102DF00073FA82468946002F5BD1E36AD3F8A0209C
:102E000012F4FE0F03D100200DB0BDE8F08FD3F80F
:102E1000A420920141BF04F58051D1F898240132D9
:102E2000C1F89824D3F8A4205606ECD0D3F8A450C7
:102E3000E669C5F305254823E8464FF0000B03FB80
:102E400005664046FFF784FC326851004ABF22F015
:102E50006043C2F38A4343F00043920048BF43F00B
:102E600080430093736813F400131BBF012304F520
:102E700080528DF80D308DF80D301EBFD2F8B83469
:102E80000133C2F8B834F38803F00F038DF80C3027
:102E90009DF80C0000F07AFA5FFA8BF3984225D97E
:102EA000F2180CA90BF1010B127A0B4403F82C2C2D
:102EB000EEE7012FA7D1E36AD3F8B02012F4FE0F9A
:102EC000A1D0D3F8B420950141BF04F58051D1F8C9
:102ED00098240132C1F89824D3F8B420500692D037
:102EE000D3F8B450266AC5F30525A4E7EFB9E36A21
:102EF000C3F8A85004A807ADFFF730FC98E80F000E
:102F000007C52B800023204604A9ADF8183023689C
:102F100004F58054DB6BCDE904A9984758B1D4F887
:102F200090340133C4F890346EE7012FE2D1E36AA4
:102F3000C3F8B850DEE7D4F8943401200133C4F864
:102F4000943461E72DE9F04105460F4600F58054C1
:102F5000012639462846FFF745FF10B184F853642F
:102F6000F7E7D4F8A834D4F854040133C4F8A834EB
:102F700020B10368BDE8F0411B691847BDE8F08146
:102F8000C36AF0B51A6C12F47F0F2BD01B6C00F5DE
:102F9000805441F268054FF0010CC4F8AC340023B2
:102FA000471900EB43125E012A44117911F0020F18
:102FB00015D0490713D4B959C66A0CFA01F1D6F8ED
:102FC000CCE011EA0E0F0AD0C6F8D410117941F006
:102FD00004011171D4F88C240132C4F88C2401331B
:102FE000202BDED1F0BD000010B5264C264B226808
:102FF0000AB340B31A6D92050FD54FF400721A65EB
:1030000000F06AF950EA01020B4602D0013861F182
:10301000000302462068FFF77BFE1B4A136D9B01ED
:103020002AD523684FF0007103F580531165012202
:1030300083F8592420E001221A6510221A654FF402
:1030400080521A6510BD196DC80702D4196D490761
:1030500005D50521104619650021FFF773FF0A4BBE
:103060001A6DD00602D41A6D510605D550220121E1
:103070001A652068FFF766FF2068BDE81040FFF77B
:103080007FBF00BF604F002000A0004008B5302384
:1030900083F31188FFF774FF002383F3118808BDC1
:1030A000C36AD3F8C00010F07C5005D0D3F8C40038
:1030B00080F40010C0F340507047000008B5302382
:1030C00083F3118800F58050406CFEF7E9FF002380
:1030D00083F3118843090CBF0120002008BD0000C4
:1030E00000F5805393F8592462B1C16A8A6922F0CD
:1030F00001028A61D3F89C240132C3F89C24002287
:1031000083F85924704700002DE9F743302181F3FB
:10311000118800F58251002541F2680E4FF0010838
:10312000103100F5805C00EB451474442679770774
:103130001CD4F6061AD58E69D0F82C9008FA06F63B
:10314000D9F8CC703E4211D04F6801970F68974272
:10315000019F9F410AD2C9F8D460267946F004063F
:103160002671DCF888440134CCF8884401352031DC
:10317000202DD8D1002383F3118803B0BDE8F0835C
:10318000F8B51E4600230F46054613701446FFF798
:1031900095FF80F0010038701EB12846FFF780FFD0
:1031A0002070F8BD2DE9F04F85B099460D46804658
:1031B000164691F800B0DDE90EA30293137801934F
:1031C00000F08AF82B7804460F4613B93378002BA9
:1031D00041D022463B464046FFF796FFFFF756FF99
:1031E000FFF77EFF4B4632462946FFF7C9FF2B7893
:1031F00033B1BBF1000F03D0012005B0BDE8F08F63
:10320000337813B1019B002BF6D108F5805303935B
:103210005445029B77EB03031DD2039BD3F8540460
:10322000C8B10368AAEB04011B6898474B463246B5
:1032300029464046FFF7A4FF2B7813B1BBF1000FDE
:10324000DAD1337813B1019B002BD5D100F044F8CB
:1032500004460F46DCE70020CFE7000008B5002059
:10326000FFF7C2FEBDE8084001F05AB808B50120DA
:10327000FFF7BAFEBDE8084001F052B800B59BB0B8
:10328000EFF3098168226846FEF74CFBEFF30583F4
:10329000014B9B6BFEE700BF00ED00E008B5FFF7B8
:1032A000EDFF000000B59BB0EFF30981682268468E
:1032B000FEF738FBEFF30583014B5B6BFEE700BFC6
:1032C00000ED00E0FEE700000FB408B5029801F041
:1032D0008FFFFEE702F026BC02F008BC13B56C4677
:1032E000031D84E8060094E8030083E8050001203C
:1032F00002B010BD73B58568019155B11B885B079D
:1033000007D4D0E900369B6B9847019AC1B230468A
:10331000A847012002B070BDF0B5866889B00546A7
:103320000C465EB1BDF838305B070AD4D0E90037EF
:103330009B6B98472246C1B23846B047012009B07E
:10334000F0BD0022002301F10806CDE9002300238F
:103350000A46ADF8083003AB1068083252F8041C76
:103360001C46B24203C42346F6D1106820609288FE
:10337000A280FFF7B1FF0423ADF808302B68CDE938
:103380000001DB6B694628469847D7E7082817D91C
:1033900009280CD00A280CD00B280CD00C280CD0F3
:1033A0000D280CD00E2814BF4020302070470C2070
:1033B0007047102070471420704718207047202055
:1033C000704700002DE9F041456A15B94162BDE83A
:1033D000F0814B68AC4623F06047C3F38A464FEA5E
:1033E000D37EC3F3807816EA230638BF3E462B46C9
:1033F0005A68BEEBD27F22F060440AD0002A18DA65
:10340000A40CB44217D19D420FD10D60DEE71346E4
:10341000EEE7A74207D102F08044C2F38072424532
:103420000BD054B1EFE708D2EDE7CCF800100B60F9
:10343000CDE7B44201D0B442E5D81A689C46002AD0
:10344000E5D11960C3E700002DE9F047089D01F0C0
:10345000070400EBD1004FF47F494FEAD50822441E
:1034600005F00705944201D1BDE8F08704F0070795
:1034700005F0070A111B08EBD50E57453E4613F819
:103480000EC038BF5646C6F108068E4228BF0E460B
:10349000E108415C34443544B94029FA06F721FA81
:1034A0000AF1FFB28CEA010147FA0AF739408CEAC7
:1034B000010C03F80EC0D5E780EA0120082341F291
:1034C000210201B2013B4000002980B2B8BF504048
:1034D00013F0FF03F5D1704738B50C468D18A5429F
:1034E00000D138BD14F8011BFFF7E6FFF7E7000035
:1034F00042684AB1136881894360438901339BB2B2
:103500009942438138BF83811046704770B588B0B7
:10351000044620220D4668460021FEF729FA20467F
:103520000495FFF7E5FF024660B16B46054608AE1D
:103530001C46083503CCB44245F8080C45F8041C79
:103540002346F5D1104608B070BD0000082817D9F1
:1035500009280CD00A280CD00B280CD00C280CD031
:103560000D280CD00E2814BF4020302070470C20AE
:103570007047102070471420704718207047202093
:1035800070470000082817D90C280CD910280CD92E
:1035900014280CD918280CD920280CD930288CBF15
:1035A0000F200E207047092070470A2070470B201B
:1035B00070470C2070470D20704700002DE9F8433C
:1035C000078C0446072F1ED900254FF6FF73D0E95C
:1035D0000298C5F12006A5F1200029FA05F1083569
:1035E00008FA06F628FA00F0314301431846C9B23A
:1035F000FFF762FF402D0346EBD13A46E169BDE893
:10360000F843FFF769BF4FF6FF70BDE8F88300008D
:1036100010B54B6823B9CA8A63F30902CA8210BD88
:1036200004691A681C600361C38A013BC3824A6053
:10363000EFE700002DE9F84F1D46CB8A0F46814683
:10364000C3F30901924605290B4630D00020AAB2E7
:1036500007F11A049EB21FFA80F8042E0FD8904585
:1036600003F1010306D30A44FB8A62F30903012034
:10367000FB821AE01AF800600130E654EAE7904550
:10368000F1D2A1F1050B1C237C68BBFBF3F203FB19
:1036900012BB1FFA8BF6002C45D14846FFF728FFD6
:1036A000044638B978606FF00200BDE8F88F4FF03B
:1036B0000008E6E7002606607860ADB24FF0000B28
:1036C000454510D90AEB0803221D13F8011B08F128
:1036D00001089155B1B21FFA88F81B292BD0454536
:1036E00006F10106F1D8FB8AC3F30902154465F31C
:1036F0000903BCE701321C4692B22368002BF9D1C2
:103700006B1F0B441C21B3FBF1F301339BB29A42B4
:10371000D3D2BBF1000FD0D14846FFF7E9FE20B964
:10372000C4F800B0BFE70122E7E7C0F800B05E468A
:1037300020600446C1E74545D5D94846FFF7D8FE85
:1037400008B92060AFE7C0F800B00026206004464A
:10375000B6E700002DE9F04F1C46074688462DEDE0
:10376000028B83B05B690192002B00F09A80238C5E
:103770002BB1E269002A00F09480072B35D807F1BD
:103780000C00FFF7B5FE054638B96FF00205284674
:1037900003B0BDEC028BBDE8F08F14220021FEF7D0
:1037A000E7F8228CE16905F10800FEF7BBF8208CF0
:1037B00048F00041013080B2FFF7E4FEFFF7C6FE9B
:1037C000013880B220840130287438466369228C25
:1037D0001B782A4403F01F0363F03F0313726960F0
:1037E0002946FFF7EFFD0125D1E74FF0000900F171
:1037F0000C034FF0800A4E464D4608EE103A18EE84
:10380000100AFFF775FE83460028BED0142200215F
:10381000FEF7AEF8002E3AD1019B0222ABF8083039
:103820000BF1080E1FFA82FC218C0CF10100BCF197
:10383000060F80B201D88E422BD3FFF7A3FE8E4233
:1038400008BF4FF0400AFFF781FE62690138013579
:1038500012781BFA80F1013002F01F022DB242EA09
:10386000491289F001094AEA020A48F0004281F847
:1038700008A059468BF810003846CBF804204FF0CA
:10388000000AFFF79FFD238CB342B8D17FE70022E7
:10389000C6E7E169895D01360EF80210B6B2013261
:1038A000C0E76FF0010572E7F8B515460E46302205
:1038B000002104461F46FEF75BF8069BB5F5001F86
:1038C000A760636004F11000079B34BF6A094FF6DC
:1038D000FF72E661A362002397B29A4206D80023E2
:1038E0000360A782E3822383E360F8BD06600133AF
:1038F00030462036F1E7000003781BB94BB2002BAD
:10390000C8BF01707047000000787047F8B50C46DA
:10391000C969074611B9238C002B37D1257E1F2D8D
:1039200034D8387828BB228C072A2CD8268A36F03F
:1039300003032BD14FF6FF70FFF7CEFD20F00100FF
:1039400031024FF6FF72400441EA0561400C41EA42
:103950004025234629463846FFF7FCFE002807DDB0
:10396000626913780133DBB21F2B88BF0023137009
:10397000F8BD218A2D0645EA012505432046FFF7BB
:103980001DFE0246E5E76FF00300F1E76FF001006E
:10399000EEE7000070B58AB00446164600212822E2
:1039A00068461D46FDF7E4FFBDF8383069462046FD
:1039B000ADF810300F9B05939DF840308DF818300E
:1039C000119B0793BDF84830CDE90265ADF8203072
:1039D000FFF79CFF0AB070BD2DE9F041D3690546A1
:1039E0000C4616460BB9138C5BBB377E1F2F28D8AD
:1039F00095F80080B8F1000F26D03046FFF7DEFDC5
:103A0000337821020246284641EAC331338A41EA2B
:103A1000080141EA076141EA0341334641F0800170
:103A2000FFF798FE00280ADD3378012B07D1726971
:103A300013780133DBB21F2B88BF00231370BDE85E
:103A4000F0816FF00100FAE76FF00300F7E7000084
:103A5000F0B58BB004460D46174600212822684673
:103A60001E46FDF785FF9DF84C30294620465A1E1C
:103A7000534253416A468DF800309DF84030ADF80E
:103A80001030119B05939DF848308DF81830149B29
:103A90000793BDF85430CDE90276ADF82030FFF73A
:103AA0009BFF0BB0F0BD0000406A00B104307047CE
:103AB000436A1A68426202691A600361C38A013B61
:103AC000C38270472DE9F041D0F8208014461D468E
:103AD000184E4146002709B9BDE8F081D1E902231B
:103AE000A21A65EB0303964277EB03031ED2036A27
:103AF0008B420DD1FFF78CFD036A1B6803620369DB
:103B00000B60C38A0161013B016AC3828846E2E718
:103B1000FFF77EFD0B68C8F8003003690B60C38AAD
:103B20000161013BC382D8F80010D4E788460968D8
:103B3000D1E700BF80841E002DE9F04F8BB00D4609
:103B400014469B46DDF850908046002800F018810E
:103B5000B9F1000F00F01481531E3F2B00F21081C9
:103B6000012A03D1BBF1000F40F00A810023CDE907
:103B70000833B8F81430B5EBC30F4FEAC30703D3CB
:103B800000200BB0BDE8F08F2B199F42D8F80C3005
:103B900036BF7F1B2746FFB21BB9D8F81030002B69
:103BA0007AD0272D4DD8C5F1280600232946B742E3
:103BB000009308ABD8F808002CBFF6B23E46A7EB3E
:103BC000060A354432465FFA8AFAFFF73DFCB8F838
:103BD0001430282103F10053053BDB000493D8F88F
:103BE0000C300393039B13B1BAF1000F2CD1D8F81A
:103BF000100040B1BAF1000F05D008AB5246691A67
:103C00000096FFF721FC38B2002FB9D066070AD022
:103C10000AAB624203EBD40102F0070211F8083C40
:103C2000134101F8083C082C3DD9102C40F2B58016
:103C3000202C40F2B780BBF1000F00F09C800823DD
:103C400035E0BA460026C2E7049BE02B28BFE023FC
:103C500006930B44AB42059315D95A1B0398691A76
:103C60000096924508AB00F1040034BF5246D2B230
:103C70000792FFF7E9FB079A1644AAEB020A1544DC
:103C8000F6B25FFA8AFA049B069A05999B1A049386
:103C9000039B1B680393A5E700933A4608AB2946AC
:103CA000D8F80800ADE7BBF1000F13D00123B4EB47
:103CB000C30F6BD0082C12D89DF82030621E23FA57
:103CC00002F2D50706D54FF0FF3202FA04F423437F
:103CD0008DF820309DF8203089F8003051E7102C05
:103CE00012D8BDF82030621E23FA02F2D10706D5A1
:103CF0004FF0FF3202FA04F42343ADF82030BDF850
:103D00002030A9F800303CE7202C0FD80899631E1A
:103D100021FA03F3DA0705D54FF0FF3202FA04F473
:103D20000C430894089BC9F800302AE7402C2AD09D
:103D3000611EC4F12102A4F12103DDE9086526FA20
:103D400001F105FA02F225FA03F311431943CB07F7
:103D500011D50122A4F12003C4F1200102FA03F3DA
:103D600022FA01F1A2400B43524263EB4303324378
:103D70002B43CDE90823DDE90823C9E9002300E747
:103D80006FF00100FDE66FF00800FAE6082CA1D9FB
:103D9000102CB4D9202CEED8C4E7BBF1000FAED064
:103DA000022384E7BBF1000FBCD004237FE70000AF
:103DB000012A30B5144638BF012485B00025402CB7
:103DC00028BF4024012ACDE9025518D81B788DF868
:103DD000083063070AD004AB624203EBD40502F05B
:103DE000070215F8083C934005F8083C034600918B
:103DF0002246002102A8FFF727FB05B030BD082AA4
:103E0000E4D9102A03D81B88ADF80830E1E7202A4E
:103E100095BF1B68D3E900230293CDE90223D8E7BD
:103E200010B5CB681BB98B600B618B8210BD046928
:103E30001A681C600361C38A013BC382CA60F0E751
:103E400003064CBFC0F3C0300220704708B50246DD
:103E5000FFF7F6FF022806D15306C2F30F2001D167
:103E600000F0030008BDC2F30740FBE72DE9F04F67
:103E700093B004460D46CDE903230A681046FFF7C8
:103E8000DFFF0228824614BFC2F306260026002A5E
:103E900080F2F88112F0C04940F0F481097B0029DA
:103EA00000F0F081022803D02378B34240F0ED8186
:103EB000C2F3046310462944069302F07F0305937E
:103EC000FFF7C4FF059B002283464FEA8348002387
:103ED00048EA0A4848EA4668CE78CDE90823F3095B
:103EE00048EA0008029368D0059B024608A92046CC
:103EF000009353466768B847002800F0C981276AD5
:103F00004FB9414604F10C00FFF700FB074690B99A
:103F10006FF0020055E03B6998450DD03F68002FD7
:103F2000F9D1414604F10C00FFF7F0FA07460028EA
:103F3000EED0236A3B60276297F817C006F01F088F
:103F4000CCF3840CACEB0800A8EB0C031FFA80FE4A
:103F50000028B8BF0EF120001FFA83FEB8BF00B2E0
:103F6000002B0793B8BF0EF12003D7E90221BCBF95
:103F70001BB2079352EA010338D0039B4FF0000CA9
:103F8000DFF81CE39A1A049B63EB010196457CEB76
:103F900001032BD36B7B97F81AE0734519D1029B71
:103FA000002B78D0012821DC7868F8B9DFF8ECC262
:103FB000944570EB010316D337E0276A27B96FF0F9
:103FC0000C0013B0BDE8F08F3B699845B4D03F6852
:103FD000F4E7B24890427CEB010301D30020F0E704
:103FE000029B002BFAD0079B0F2B17DCFA7DB30046
:103FF0003946204602F0030203F07C031343FB75AD
:10400000FFF706FB6B7BBB76029B3BB9FB7DC3F3E3
:104010008402013262F38603FB75D0E76A7BBB7EC4
:104020009A42DBD1029B002B35D0B309022B32D050
:10403000039B142200210DA8BB60049BFB60FDF7CD
:1040400097FC039B0AA920460A93049BADF83EB057
:104050000B932B1D8DF840A00C932B7B8DF841808A
:10406000013BDBB2ADF83C30069B8DF84230059B3E
:104070008DF8433094F82C3083F001038DF84430F0
:10408000A3689847FB7DC3F38403013303F01F0348
:104090009B02FB82A2E7FB7DC6F34012B2EBD31F6B
:1040A00040F0F980C3F38403434540F0FB80029A5B
:1040B000B6092B7B002A52D016F0010661D1032BE2
:1040C00040F2F380039B394604F10C00BB60049B73
:1040D000FB60FB8A66F30903AE1DFB8232462B7B35
:1040E000033BDBB2FFF7A6FA00280CDA394620467C
:1040F000FFF78EFAFB7DC3F38403013303F01F0344
:104100009B02FB8204E7AB88DDE908843B834FF622
:10411000FF73C9F12000A9F1200228FA09F109F181
:10412000080904FA00F024FA02F201431846114388
:10413000C9B2FFF7C1F9B9F1400F0346E9D1B8821E
:1041400031462A7B033AD2B2FFF7C6F9FB7DB8822B
:10415000DA43C2F3C01262F3C713FB753EE786B9B8
:104160002E1D013B394604F10C00DBB23246FFF74D
:1041700061FA0028BADB2A7B3146B88A013AD2B20A
:10418000E2E7F98A013BC1F30901DAB204295BD8FD
:10419000281D002307F11B069A4208D910F801CB0D
:1041A000013306F801C00131DBB20529F4D10399CE
:1041B00093420A9138BF043304992CBF002355FA67
:1041C00083F30B9107F11B010C9179680E930D910C
:1041D000291DFB8AADF83EB0C3F309038DF840A05A
:1041E0008DF841801A44069B8DF84230059BADF84E
:1041F0003C208DF8433094F82C3083F001038DF887
:1042000044300023B88A7B602A7B013AFFF764F9C7
:104210003B8BB882834203D1A3680AA92046984702
:1042200020460AA9FFF7FCFDFB7DBA8AC3F384038D
:10423000013303F01F039B02FB823B8B9A420CBFAE
:1042400000206FF01000BCE67B68002BAFD005208B
:1042500001E01C3033461E68002EFAD1091A2E1DCB
:10426000081D184401EB090C5FFA89F3BCF11B0F20
:104270009DD89A429BD916F8013B09F1010900F833
:10428000013BEFE76FF009009BE66FF00A0098E64C
:104290006FF00B0095E66FF00D0092E640420F00C4
:1042A00080841E006FF00E008BE66FF00F0088E632
:1042B000EFF30983054968334A6B22F001024A6330
:1042C00083F30988002383F31188704700EF00E02F
:1042D000302080F3118862B60D4B0E4AD96821F464
:1042E000E0610904090C0A430B49DA60D3F8FC20A9
:1042F00042F08072C3F8FC20084AC2F8B01F11686F
:1043000041F0010111602022DA7783F82200704722
:1043100000ED00E00003FA0555CEACC5001000E04A
:10432000302310B583F311880E4B5B6813F40063E0
:1043300014D0F1EE103AEFF309844FF08073683C2B
:10434000E361094BDB6B236684F3098800F01AFFF5
:1043500010B1064BA36110BD054BFBE783F3118839
:10436000F9E700BF00ED00E000EF00E03F040008C7
:104370004204000808B5074B074A196801F03D01DF
:10438000996053680BB190689847BDE80840FFF703
:10439000C7BF00BF00000240704F002008B5084BA7
:1043A0001968890901F03D018A019A60054AD368BC
:1043B0000BB110699847BDE80840FFF7B1BF00BFD7
:1043C00000000240704F002008B5084B1968090C26
:1043D00001F03D010A049A60054A53690BB19069E6
:1043E0009847BDE80840FFF79BBF00BF00000240B0
:1043F000704F002008B5084B1968890D01F03D0188
:104400008A059A60054AD3690BB1106A9847BDE8DE
:104410000840FFF785BF00BF00000240704F00203A
:1044200008B5074B074A596801F03D01D960536A46
:104430000BB1906A9847BDE80840FFF771BF00BF15
:1044400000000240704F002008B5084B59688909E8
:1044500001F03D018A01DA60054AD36A0BB1106BA5
:104460009847BDE80840FFF75BBF00BF000002406F
:10447000704F002008B5084B5968090C01F03D0148
:104480000A04DA60054A536B0BB1906B9847BDE89C
:104490000840FFF745BF00BF00000240704F0020FA
:1044A00008B5084B5968890D01F03D018A05DA60AD
:1044B000054AD36B0BB1106C9847BDE80840FFF775
:1044C0002FBF00BF00000240704F002008B5074B0F
:1044D000074A196801F03D019960536C0BB1906C6B
:1044E0009847BDE80840FFF71BBF00BF000402402B
:1044F000704F002008B5084B1968890901F03D018B
:104500008A019A60054AD36C0BB1106D9847BDE8DB
:104510000840FFF705BF00BF00040240704F0020B5
:1045200008B5084B1968090C01F03D010A049A60AE
:10453000054A536D0BB1906D9847BDE80840FFF7F1
:10454000EFBE00BF00040240704F002008B5084BCA
:104550001968890D01F03D018A059A60054AD36DFD
:104560000BB1106E9847BDE80840FFF7D9BE00BFF9
:1045700000040240704F002008B5074B074A5968F5
:1045800001F03D01D960536E0BB1906E9847BDE8C4
:104590000840FFF7C5BE00BF00040240704F002076
:1045A00008B5084B5968890901F03D018A01DA60B4
:1045B000054AD36E0BB1106F9847BDE80840FFF76E
:1045C000AFBE00BF00040240704F002008B5084B8A
:1045D0005968090C01F03D010A04DA60054A536F7D
:1045E0000BB1906F9847BDE80840FFF799BE00BF38
:1045F00000040240704F002008B5084B5968890D2F
:1046000001F03D018A05DA60054AD36F13B1D2F893
:1046100080009847BDE80840FFF782BE00040240D2
:10462000704F002000230C4910B51A460B4C0B604C
:1046300054F82300026001EB430004334260402B36
:10464000F6D1074A4FF0FF339360D360C2F80834C5
:10465000C2F80C3410BD00BF704F00208C750008EC
:10466000000002400F28F8B510D9102810D01128EA
:1046700011D0122808D10F240720DFF8C8E0012646
:10468000DEF80050A04208D9002653E00446F4E7C3
:104690000F240020F1E70724FBE706FA00F73D426C
:1046A0004AD1264C4FEA001C3D4304EB00160EEBAA
:1046B000C000CEF80050C0E90123FBB273B120481E
:1046C000D0F8D83043F00103C0F8D830D0F800312A
:1046D00043F00103C0F80031D0F8003117F47F4FE8
:1046E0000ED01748D0F8D83043F00203C0F8D830C5
:1046F000D0F8003143F00203C0F80031D0F80031A7
:1047000054F80C00036823F01F030360056815F0DC
:104710000105FBD104EB0C033D2493F80CC05F684A
:1047200004FA0CF43C6021240560446112B1987BCA
:1047300000F054F83046F8BD0130A3E78C7500084E
:1047400000440258704F002010B5302484F31188C3
:10475000FFF788FF002383F3118810BD10B50446CE
:10476000807B00F051F801231549627B03FA02F2C5
:104770000B6823EA0203DAB20B6072B9114AD2F86D
:10478000D81021F00101C2F8D810D2F8001121F0A0
:104790000101C2F80011D2F8002113F47F4F0ED1AD
:1047A000084BD3F8D82022F00202C3F8D820D3F85F
:1047B000002122F00202C3F80021D3F8003110BD1D
:1047C000704F00200044025808B5302383F311884D
:1047D000FFF7C4FF002383F3118808BD090100F12E
:1047E0006043012203F56143C9B283F8001300F06E
:1047F0001F039A4043099B0003F1604303F56143A3
:10480000C3F880211A60704700F01F0301229A400C
:10481000430900F160409B0000F5614003F16043F3
:1048200003F56143C3F88020C3F88021002380F89A
:1048300000337047026843681143016003B11847B1
:104840007047000013B5406B00F58054D4F8A438CD
:104850001A681178042914D1017C022911D119791F
:10486000012312898B4013420BD101A94C3002F075
:10487000F9F8D4F8A4480246019B2179206800F099
:10488000DFF902B010BD0000143002F07BB8000068
:104890004FF0FF33143002F075B800004C3002F0D6
:1048A0004DB900004FF0FF334C3002F047B9000023
:1048B000143002F049B800004FF0FF31143002F01C
:1048C00043B800004C3002F019B900004FF0FF323D
:1048D0004C3002F013B900000020704710B500F50D
:1048E0008054D4F8A4381A681178042917D1017CAF
:1048F000022914D15979012352898B4013420ED1D8
:10490000143001F0DBFF024648B1D4F8A4484FF45C
:10491000407361792068BDE8104000F07FB910BD98
:10492000406BFFF7DBBF0000704700007FB5124B04
:1049300001250426044603600023057400F1840267
:1049400043602946C0E902330C4B029014300193B6
:104950004FF44073009601F08DFF094B04F694422A
:10496000294604F14C000294CDE900634FF44073F2
:1049700002F054F804B070BD8C760008214900089C
:10498000454800080A68302383F311880B790B33FC
:1049900042F823004B79133342F823008B7913B18B
:1049A0000B3342F8230000F58053C3F8A418022308
:1049B0000374002080F311887047000038B5037F2E
:1049C000044613B190F85430ABB90125201D0221E3
:1049D000FFF730FF04F114006FF00101257700F0BC
:1049E00089FC04F14C0084F854506FF00101BDE8DB
:1049F000384000F07FBC38BD10B5012104460430BA
:104A0000FFF718FF0023237784F8543010BD00000F
:104A100038B504460025143001F044FF04F14C0081
:104A2000257702F013F8201D84F854500121FFF778
:104A300001FF2046BDE83840FFF750BF90F88030B6
:104A400003F06003202B06D190F881200023212A57
:104A500003D81F2A06D800207047222AFBD1C0E9BC
:104A60001D3303E0034A426707228267C3670120C0
:104A7000704700BF3423002037B500F58055D5F8C6
:104A8000A4381A68117804291AD1017C022917D197
:104A90001979012312898B40134211D100F14C0482
:104AA000204602F093F858B101A9204601F0DAFF40
:104AB000D5F8A4480246019B2179206800F0C0F88F
:104AC00003B030BD01F10B03F0B550F8236085B0A1
:104AD00004460D46FEB1302383F3118804EB8507AD
:104AE000301D0821FFF7A6FEFB6806F14C005B694C
:104AF0001B681BB1019001F0C3FF019803A901F0ED
:104B0000B1FF024648B1039B2946204600F098F8C1
:104B1000002383F3118805B0F0BDFB685A69126861
:104B2000002AF5D01B8A013B1340F1D104F1800229
:104B3000EAE70000133138B550F82140ECB13023DA
:104B400083F3118804F58053D3F8A42813685279AD
:104B500003EB8203DB689B695D6845B10421601843
:104B6000FFF768FE294604F1140001F0B1FE20466B
:104B7000FFF7B4FE002383F3118838BD70470000AF
:104B800001F07EB901234022002110B5044600F84F
:104B9000303BFCF7EDFE0023C4E9013310BD0000FB
:104BA00010B53023044683F311882422416000218C
:104BB0000C30FCF7DDFE204601F084F902230020D2
:104BC000237080F3118810BD70B500EB810305469A
:104BD00050690E461446DA6018B110220021FCF725
:104BE000C7FEA06918B110220021FCF7C1FE3146B2
:104BF0002846BDE8704001F06BBA000083682022AF
:104C0000002103F0011310B5044683601030FCF757
:104C1000AFFE2046BDE8104001F0E6BAF0B4012531
:104C200000EB810447898D40E4683D43A4694581D8
:104C300023600023A2606360F0BC01F003BB0000AE
:104C4000F0B4012500EB810407898D40E4683D4301
:104C50006469058123600023A2606360F0BC01F0F9
:104C600079BB000070B5022300250446242203709E
:104C70002946C0F888500C3040F8045CFCF778FEF8
:104C8000204684F8705001F0B7F963681B6823B1BF
:104C900029462046BDE87040184770BD0378052BB3
:104CA00010B504460AD080F88C30052303704368A1
:104CB0001B680BB1042198470023A36010BD0000BE
:104CC0000178052906D190F88C20436802701B6892
:104CD00003B118477047000070B590F87030044673
:104CE00013B1002380F8703004F18002204601F0F7
:104CF0009FFA63689B68B3B994F8803013F060053D
:104D000035D00021204601F091FD0021204601F020
:104D100081FD63681B6813B106212046984706236E
:104D200084F8703070BD204698470028E4D0B4F86D
:104D30008630A26F9A4288BFA36794F98030A56F2E
:104D4000002B4FF0300380F20381002D00F0F28041
:104D5000092284F8702083F3118800212046D4E9C9
:104D60001D23FFF76DFF002383F31188DAE794F822
:104D7000812003F07F0343EA022340F20232934290
:104D800000F0C58021D8B3F5807F48D00DD8012B25
:104D90003FD0022B00F09380002BB2D104F18802A7
:104DA00062670222A267E367C1E7B3F5817F00F083
:104DB0009B80B3F5407FA4D194F88230012BA0D121
:104DC000B4F8883043F0020332E0B3F5006F4DD001
:104DD00017D8B3F5A06F31D0A3F5C063012B90D8DD
:104DE0006368204694F882205E6894F88310B4F8D3
:104DF0008430B047002884D0436863670368A367A2
:104E00001AE0B3F5106F36D040F6024293427FF4B9
:104E100078AF5C4B63670223A3670023C3E794F872
:104E20008230012B7FF46DAFB4F8883023F0020399
:104E3000A4F88830C4E91D55E56778E7B4F88030F8
:104E4000B3F5A06F0ED194F88230204684F88A30F2
:104E500001F030F963681B6813B1012120469847BF
:104E6000032323700023C4E91D339CE704F18B0363
:104E700063670123C3E72378042B10D1302383F326
:104E800011882046FFF7BAFE85F311880321636875
:104E900084F88B5021701B680BB12046984794F81A
:104EA0008230002BDED084F88B30042323706368BB
:104EB0001B68002BD6D0022120469847D2E794F8F1
:104EC000843020461D0603F00F010AD501F0A2F937
:104ED000012804D002287FF414AF2B4B9AE72B4B08
:104EE00098E701F089F9F3E794F88230002B7FF41A
:104EF00008AF94F8843013F00F01B3D01A0620469F
:104F000002D501F0ABFCADE701F09CFCAAE794F8F8
:104F10008230002B7FF4F5AE94F8843013F00F014B
:104F2000A0D01B06204602D501F080FC9AE701F0D4
:104F300071FC97E7142284F8702083F311882B46C4
:104F40002A4629462046FFF769FE85F31188E9E6DF
:104F50005DB1152284F8702083F31188002120466A
:104F6000D4E91D23FFF75AFEFDE60B2284F87020DA
:104F700083F311882B462A4629462046FFF760FE18
:104F8000E3E700BFBC760008B4760008B8760008F6
:104F900038B590F870300446002B3ED0063BDAB2AC
:104FA0000F2A34D80F2B32D8DFE803F0373131081D
:104FB000223231313131313131313737856FB0F80B
:104FC00086309D4214D2C3681B8AB5FBF3F203FB03
:104FD00012556DB9302383F311882B462A46294692
:104FE000FFF72EFE85F311880A2384F870300EE057
:104FF000142384F87030302383F311880023204673
:105000001A461946FFF70AFE002383F3118838BDBC
:10501000C36F03B198470023E7E70021204601F062
:1050200005FC0021204601F0F5FB63681B6813B105
:105030000621204698470623D7E7000010B590F8D0
:1050400070300446142B29D017D8062B05D001D870
:105050001BB110BD093B022BFBD80021204601F0FB
:10506000E5FB0021204601F0D5FB63681B6813B106
:10507000062120469847062319E0152BE9D10B237A
:1050800080F87030302383F3118800231A461946C4
:10509000FFF7D6FD002383F31188DAE7C3689B6925
:1050A0005B68002BD5D1C36F03B19847002384F808
:1050B0007030CEE700238268037503691B68996826
:1050C0009142FBD25A68036042601060586070479A
:1050D00000238268037503691B6899689142FBD8B5
:1050E0005A680360426010605860704708B508460F
:1050F000302383F311880B7D032B05D0042B0DD0B7
:105100002BB983F3118808BD8B6900221A604FF018
:10511000FF338361FFF7CEFF0023F2E7D1E90032CE
:1051200013605A60F3E70000FFF7C4BF054BD9686E
:1051300008751868026853601A600122D860027509
:10514000FBF768B9F84F00200C4B30B5DD684B1CFD
:1051500087B004460FD02B46094A684600F05EF936
:105160002046FFF7E3FF009B13B1684600F060F9AB
:10517000A86907B030BDFFF7D9FFF9E7F84F002065
:10518000ED500008044B1A68DB6890689B689842F1
:1051900094BF002001207047F84F0020084B10B545
:1051A0001C68D868226853601A600122DC6022758E
:1051B000FFF78EFF01462046BDE81040FBF72AB9F5
:1051C000F84F002038B5074C012300250649074851
:1051D0002370656001F038FD0223237085F3118888
:1051E00038BD00BF60520020C4760008F84F002090
:1051F00008B572B6044B186500F066FC00F02CFD93
:10520000024B03221A70FEE7F84F00206052002084
:1052100000F044B9034A516853685B1A9842FBD8BE
:10522000704700BF001000E08B6002230861084651
:105230008B8270478368A3F1840243F8142C0269BF
:1052400043F8442C426943F8402C094A43F8242C83
:10525000C268A3F1200043F8182C022203F80C2C9A
:10526000002203F80B2C034A43F8102C704700BFB0
:105270002D040008F84F002008B5FFF7DBFFBDE85C
:105280000840FFF751BF0000024BDB6898610F2018
:10529000FFF74CBFF84F0020302383F31188FFF74E
:1052A000F3BF000008B50146302383F311880820BE
:1052B000FFF74AFF002383F3118808BD064BDB6824
:1052C00039B1426818605A60136043600420FFF7E8
:1052D0003BBF4FF0FF307047F84F00200368984203
:1052E00006D01A680260506018469961FFF71CBF2B
:1052F0007047000038B504460D462068844200D14E
:1053000038BD036823605C608561FFF70DFFF4E73B
:10531000036810B59C68A2420CD85C688A600B6078
:105320004C602160596099688A1A9A604FF0FF3387
:10533000836010BD121B1B68ECE700000A2938BF10
:105340000A2170B504460D460A26601901F074FC66
:1053500001F05CFC041BA54203D8751C04462E46D4
:10536000F3E70A2E04D90120BDE8704001F0ACBC7F
:1053700070BD0000F8B5144B0D460A2A4FF00A071D
:10538000D96103F11001826038BF0A2241601969B6
:105390001446016048601861A81801F03DFC01F056
:1053A00035FC431B0646A34206D37C1C281927461E
:1053B000354601F041FCF2E70A2F04D90120BDE88F
:1053C000F84001F081BCF8BDF84F0020F8B5064662
:1053D0000D4601F01BFC0F4A134653F8107F9F4205
:1053E00006D12A4601463046BDE8F840FFF7C2BF65
:1053F000D169BB68441A2C1928BF2C46A34202D994
:105400002946FFF79BFF224631460348BDE8F84096
:10541000FFF77EBFF84F002008500020C0E90323AB
:10542000002310B45DF8044B4361FFF7CFBF0000C9
:1054300010B5194C236998420DD08168D0E900322B
:1054400013605A609A680A449A60002303604FF020
:10545000FF33A36110BD0268234643F8102F536049
:105460000022026022699A4203D1BDE8104001F097
:10547000DDBB936881680B44936001F0C7FB226930
:10548000E1699268441AA242E4D91144BDE810408F
:10549000091AFFF753BF00BFF84F00202DE9F0476E
:1054A000DFF8BC8008F110072C4ED8F8105001F03E
:1054B000ADFBD8F81C40AA68031B9A423ED814449E
:1054C0004FF00009D5E90032C8F81C4013605A605B
:1054D000C5F80090D8F81030B34201D101F0A6FB16
:1054E00089F31188D5E9033128469847302383F39F
:1054F00011886B69002BD8D001F088FB6A69A0EB9A
:10550000040982464A450DD2022001F0DDFB00224B
:10551000D8F81030B34208D151462846BDE8F047CC
:10552000FFF728BF121A2244F2E712EB09092946B5
:10553000384638BF4A46FFF7EBFEB5E7D8F81030DB
:10554000B34208D01444C8F81C00211AA960BDE871
:10555000F047FFF7F3BEBDE8F08700BF085000201A
:10556000F84F002038B501F051FB054AD2E9084553
:10557000031B181945F10001C2E9080138BD00BF3D
:10558000F84F002000207047FEE700007047000041
:105590004FF0FF307047000002290CD0032904D0DF
:1055A0000129074818BF00207047032A05D805487D
:1055B00000EBC2007047044870470020704700BFEE
:1055C0009C770008442300205077000870B59AB0FB
:1055D00005460846144601A900F0C2F801A8FCF7E8
:1055E000BFF9431C0022C6B25B001046C5E9003477
:1055F00023700323023404F8013C01ABD1B202341E
:105600008E4201D81AB070BD13F8011B013204F8A4
:10561000010C04F8021CF1E708B5302383F311886C
:105620000348FFF729FA002383F3118808BD00BF60
:105630006852002090F8803003F01F02012A07D141
:1056400090F881200B2A03D10023C0E91D3315E017
:1056500003F06003202B08D1B0F884302BB990F808
:105660008120212A03D81F2A04D8FFF7E7B9222A6C
:10567000EBD0FAE7034A426707228267C36701203B
:10568000704700BF3B23002007B5052917D8DFE886
:1056900001F0191603191920302383F31188104AD9
:1056A00001210190FFF790FA019802210D4AFFF7BE
:1056B0008BFA0D48FFF7ACF9002383F3118803B090
:1056C0005DF804FB302383F311880748FFF776F970
:1056D000F2E7302383F311880348FFF78DF9EBE7F6
:1056E000F0760008147700086852002038B50C4D99
:1056F0000C4C2A460C4904F10800FFF767FF05F13E
:10570000CA0204F110000949FFF760FF05F5CA72EB
:1057100004F118000649BDE83840FFF757BF00BF45
:10572000406B002044230020D0760008DA76000881
:10573000E576000870B5044608460D46FCF710F9FA
:10574000C6B22046013403780BB9184670BD324604
:105750002946FCF7F1F80028F3D10120F6E7000014
:105760002DE9F84F05460C46FCF7FAF82D49C6B26C
:105770002846FFF7DFFF08B10436F6B22A4928466B
:10578000FFF7D8FF08B11036F6B2632E0DD8DFF858
:105790009490DFF894A0DFF89C80DFF89CB0234F52
:1057A0002E7846B92670BDE8F88F29462046BDE818
:1057B000F84F01F05DBE252E30D10722494628461C
:1057C000FCF7BAF870B93B6807350B3444F80B3C6A
:1057D0007B6844F8073C3B8924F8033CBB7A04F817
:1057E000013CDDE7082251462846FCF7A5F8A8B998
:1057F000A21C0F4B19780232090911F8081002F89F
:10580000041C13F8011B01F00F015B4511F808108F
:1058100002F8031CEED118340835C1E7013504F84D
:10582000016BBDE7BC770008E57600088E740008C0
:1058300000E8F11FC47700080CE8F11FBFF34F8F99
:10584000044B1A695107FCD1D3F810215207F8D143
:10585000704700BF0020005208B50D4B1B78ABB954
:10586000FFF7ECFF0B4BDA68D10704D50A4A5A6000
:1058700002F188325A60D3F80C21D20706D5064AC5
:10588000C3F8042102F18832C3F8042108BD00BF27
:105890009E6D0020002000522301674508B5114B82
:1058A0001B78F3B9104B1A69510703D5DA6842F037
:1058B0004002DA60D3F81021520705D5D3F80C2145
:1058C00042F04002C3F80C21FFF7B8FF064BDA683C
:1058D00042F00102DA60D3F80C2142F00102C3F871
:1058E0000C2108BD9E6D0020002000520F289ABF99
:1058F00000F5806040040020704700004FF4003045
:1059000070470000102070470F2808B50BD8FFF72C
:10591000EDFF00F500330268013204D10430834208
:10592000F9D1012008BD0020FCE700000F2838B5A0
:1059300005463FD8FFF782FF1F4CFFF78DFF4FF062
:10594000FF3307286361C4F814311DD82361FFF7C2
:1059500075FF030243F02403E360E36843F0800330
:10596000E36023695A07FCD42846FFF767FFFFF777
:10597000BDFF4FF4003100F04BF92846FFF78EFFD2
:10598000BDE83840FFF7C0BFC4F81031FFF756FF3D
:10599000A0F108031B0243F02403C4F80C31D4F82F
:1059A0000C3143F08003C4F80C31D4F810315B079C
:1059B000FBD4D9E7002038BD002000522DE9F84F74
:1059C00005460C46104645EA0203DE0602D00020DA
:1059D000BDE8F88F20F01F00DFF8BCB0DFF8BCA0F6
:1059E000FFF73AFF04EB0008444503D10120FFF71D
:1059F00055FFEDE720222946204601F007FD10B9AA
:105A000020352034F0E72B4605F120021F68791C71
:105A1000DDD104339A42F9D105F178431B481C4E7D
:105A2000B3F5801F1B4B38BF184603F1F80332BF94
:105A3000D946D1461E46FFF701FF0760A5EB040CCF
:105A4000336804F11C0143F002033360231FD9F8CB
:105A5000007017F00507FAD153F8042F8B424CF869
:105A60000320F4D1BFF34F8FFFF7E8FE4FF0FF3371
:105A70002022214603602846336823F00203336066
:105A800001F0C4FC0028BBD03846B0E71421005216
:105A90000C200052142000521020005210210052FD
:105AA00010B5084C237828B11BB9FFF7D5FE0123A8
:105AB000237010BD002BFCD02070BDE81040FFF714
:105AC000EDBE00BF9E6D002038B5054D00240334A7
:105AD000696855F80C0B00F0ADF8122CF7D138BD01
