:020000040800F2
:1000000000070020E1010008AD1E0008651E000881
:100010008D1E0008651E0008851E0008E30100080B
:10002000E3010008E3010008E3010008B94100080A
:10003000E3010008E3010008E3010008E301000810
:10004000E3010008E3010008E3010008E301000800
:10005000E3010008E3010008494600087146000872
:1000600099460008C1460008E9460008E301000877
:10007000E3010008E3010008E3010008E3010008D0
:10008000E3010008E3010008E3010008B52E0008C1
:10009000212F0008752F0008C92F000811470008FC
:1000A000E3010008E3010008E3010008E3010008A0
:1000B000F9470008E3010008E3010008E301000834
:1000C000E3010008E3010008E3010008E301000880
:1000D000E3010008E5470008E3010008E301000828
:1000E00075470008E3010008E3010008E301000888
:1000F000E3010008E3010008E3010008E301000850
:10010000E3010008E3010008E3010008E30100083F
:10011000E3010008E3010008E3010008E30100082F
:10012000E3010008E3010008E3010008E30100081F
:10013000E3010008E3010008E3010008E30100080F
:10014000E3010008E3010008E3010008E3010008FF
:10015000E3010008E3010008E3010008E3010008EF
:10016000E3010008E3010008E3010008E3010008DF
:10017000E3010008E3010008E3010008E3010008CF
:10018000E3010008E3010008E3010008E3010008BF
:10019000E3010008E3010008E3010008E3010008AF
:1001A000E3010008E3010008E3010008E30100089F
:1001B000E3010008E3010008E3010008E30100088F
:1001C000E3010008E3010008E3010008E30100087F
:1001D000E3010008E3010008E3010008E30100086F
:1001E00002E000F000F8FEE772B6374880F30888B6
:1001F000364880F3098836483649086040F20000E6
:10020000CCF200004EF63471CEF200010860BFF36C
:100210004F8FBFF36F8F40F20000C0F2F0004EF638
:100220008851CEF200010860BFF34F8FBFF36F8F8C
:100230004FF00000E1EE100A4EF63C71CEF20001E4
:100240000860062080F31488BFF36F8F04F012F863
:1002500004F0A4F84FF055301F491B4A91423CBFAF
:1002600041F8040BFAE71D49184A91423CBF41F896
:10027000040BFAE71A491B4A1B4B9A423EBF51F83E
:10028000040B42F8040BF8E700201849184A914281
:100290003CBF41F8040BFAE703F0F0FF04F0D2F89A
:1002A000144C154DAC4203DA54F8041B8847F9E7A7
:1002B00000F042F8114C124DAC4203DA54F8041B22
:1002C0008847F9E703F0D8BF00070020002300208B
:1002D0000000000808ED00E00001002000070020F9
:1002E000104B0008002300202C2300203023002086
:1002F000A83C0020E0010008E0010008E00100083F
:10030000E00100082DE9F04F2DED108AC1F80CD066
:10031000C3689D46BDEC108ABDE8F08F002383F3CF
:1003200011882846A047002003F0BCFBFEE703F03D
:1003300055FB00DFFEE70000F8B501F053F903F0CC
:10034000D9FE074603F024FF0546A8BB1F4B9F427A
:1003500032D001339F4232D01D4B27F0FF029A4228
:1003600030D1F8B200F0B6FE2E4642F2107400F022
:10037000B7FE08B10024264601F0F6FC20B10320A8
:1003800000F07AF80024264635B1124B9F4203D084
:1003900003F0F6FE00242646002003F0B5FE0EB161
:1003A00000F080F801F056FA00F0FCFE204600F064
:1003B000CDF800F077F8F9E72E460024D7E7044699
:1003C0000126D4E7064641F28834D0E7010007B0A1
:1003D000000008B0263A09B008B501F0CFF8A0F146
:1003E00020035842584108BD07B541F212030221CB
:1003F00001A8ADF8043001F0DFF803B05DF804FBAC
:1004000038B5302383F31188174803680BB103F024
:1004100015FC164A144800234FF47A7103F004FCCB
:10042000002383F31188124C236813B12368013B26
:100430002360636813B16368013B63600D4D2B78E3
:1004400033B963687BB9022001F092F9322363600B
:100450002B78032B07D163682BB9022001F088F9B0
:100460004FF47A73636038BD302300200104000824
:100470005024002048230020084B187003280CD873
:10048000DFE800F008050208022001F067B9022049
:1004900001F05AB9024B00225A60704748230020ED
:1004A0005024002010B501F05FFC30B1204B032236
:1004B0001A70204B00225A6010BD1F4B1F4A1C4669
:1004C00019680131F8D004339342F9D162681C4BAA
:1004D0009A42F1D91B4B9B6803F1006303F580330B
:1004E0009A42E9D203F020FE03F032FE002001F030
:1004F00093F80220FFF7C0FF134B1A6C00221A6416
:10050000196E1A66196E596C5A64596E5A665B6E8A
:1005100072B64FF0E0233021C3F8084DD4E9003221
:1005200081F311889D4683F308881047C4E700BF14
:10053000482300205024002000000108200001086A
:10054000FFFF000800230020003802402DE9F04F93
:1005500093B0AC4B00902022FF210AA89D6801F0C7
:1005600023F9A94A1378A3B9A8480121036011709F
:10057000302383F3118803680BB103F05FFBA44AB7
:10058000A24800234FF47A7103F04EFB002383F35B
:100590001188009B13B19F4B009A1A609E4A009CE1
:1005A0001378032B1EBF002313709A4A4FF0000AE2
:1005B00018BF5360D3465646D146012001F0CEF80D
:1005C00024B1944B1B68002B00F01582002000F032
:1005D000D5FF0390039B002B01DA00F097FE039BED
:1005E000002BEDDB012001F0AFF8039B213B162B24
:1005F000E3D801A252F823F0550600087D06000852
:1006000011070008BB050008BB050008BB05000872
:100610009B0700086B09000885080008E708000828
:100620000F09000835090008BB0500084709000844
:10063000BB050008B9090008F5060008BB0500085D
:10064000FD09000861060008F5060008BB05000862
:10065000E70800080220FFF7BFFE002840F0F58100
:10066000009B0221BAF1000F08BF1C4605A841F209
:100670001233ADF8143000F09FFF9EE74FF47A700C
:1006800000F07CFF071EEBDB0220FFF7A5FE002831
:10069000E6D0013F052F00F2DA81DFE807F0030A18
:1006A0000D10133605230593042105A800F084FFDF
:1006B00017E054480421F9E758480421F6E7584860
:1006C0000421F3E74FF01C08404600F0A7FF08F1B3
:1006D00004080590042105A800F06EFFB8F12C0F66
:1006E000F2D1012000FA07F747EA0B0B5FFA8BFB08
:1006F0004FF0000901F0A4F826B10BF00B030B2B0F
:1007000008BF0024FFF770FE57E746480421CDE7F5
:10071000002EA5D00BF00B030B2BA1D10220FFF76D
:100720005BFE074600289BD0012000F075FF0220E9
:10073000FFF7A2FE00261FFA86F8404600F07CFF75
:10074000044690B10021404600F08EFF013600289B
:10075000F1D1BA46044641F21213022105A8ADF8C0
:1007600014303E4600F028FF27E70120FFF784FE03
:100770002546244B9B68AB4207D9284600F04EFF24
:10078000013040F067810435F3E7234B00251D70ED
:10079000204BBA465D603E46ACE7002E3FF460AFAA
:1007A0000BF00B030B2B7FF45BAF0220FFF764FE13
:1007B000322000F0E3FEB0F10008FFF651AF18F070
:1007C00003077FF44DAF0F4A926808EB050393428D
:1007D0003FF646AFB8F5807F3FF742AF124B01932B
:1007E000B84523DD4FF47A7000F0C8FE0390039AF9
:1007F000002AFFF635AF019B039A03F8012B01375E
:10080000EDE700BF002300204C240020302300200F
:100810000104000850240020482300200423002065
:10082000082300200C2300204C230020C820FFF7C1
:10083000D3FD074600283FF413AF1F2D11D8C5F193
:10084000200242450AAB25F0030028BF42468349F7
:100850000192184400F096FF019A8048FF2100F0B1
:10086000A3FF4FEAA8037D490193C8F387022846F6
:1008700000F0A2FF064600283FF46DAF019B05EB98
:10088000830537E70220FFF7A7FD00283FF4E8AE15
:1008900000F00AFF00283FF4E3AE0027B846704B93
:1008A0009B68BB4218D91F2F11D80A9B01330ED069
:1008B00027F0030312AA134453F8203C0593404643
:1008C000042205A901F008FA04378046E7E7384614
:1008D00000F0A4FE0590F2E7CDF81480042105A8ED
:1008E00000F06AFE06E70023642104A8049300F0E8
:1008F00059FE00287FF4B4AE0220FFF76DFD0028FA
:100900003FF4AEAE049800F0B7FE0590E6E7002392
:10091000642104A8049300F045FE00287FF4A0AEF3
:100920000220FFF759FD00283FF49AAE049800F02A
:10093000B3FEEAE70220FFF74FFD00283FF490AE38
:1009400000F0C2FEE1E70220FFF746FD00283FF479
:1009500087AE05A9142000F0BDFE042107460490CF
:1009600004A800F029FE3946B9E7322000F006FE5F
:10097000071EFFF675AEBB077FF472AE384A926869
:1009800007EB090393423FF66BAE0220FFF724FD0D
:1009900000283FF465AE27F003074F44B9453FF404
:1009A000A9AE484600F03AFE0421059005A800F0E3
:1009B00003FE09F10409F1E74FF47A70FFF70CFD2B
:1009C00000283FF44DAE00F06FFE002844D00A9B93
:1009D00001330BD008220AA9002000F0EDFE002808
:1009E0003AD02022FF210AA800F0DEFEFFF7FCFC2F
:1009F0001C4803F05DF813B0BDE8F08F002E3FF403
:100A00002FAE0BF00B030B2B7FF42AAE00236421D7
:100A100005A8059300F0C6FD074600287FF420AE28
:100A20000220FFF7D9FC804600283FF419AEFFF7FB
:100A3000DBFC41F2883003F03BF8059800F016FF2C
:100A4000464600F0FDFE3C46B7E5064652E64FF04E
:100A5000000905E6BA467EE637467CE64C230020D0
:100A600000230020A0860100094A136849F26900AA
:100A700099B21B0C00FB01331360064B186844F25B
:100A8000506182B2000C01FB0200186080B2704716
:100A9000202300201C23002010B500211022044632
:100AA00000F082FE034B03CB206061601868A060F9
:100AB00010BD00BF107AFF1FF0B5ADF54B7D68ACDF
:100AC0000D4606464FF4C4720021204600F06CFE2D
:100AD00001F0EEF9224B4FF47A72B0FBF2F018609D
:100AE00093E80700022384E807000DF5E1702382F4
:100AF000FFF7D2FF4FF203631A49238406A803F0DD
:100B0000FBFE092384F8323106AB03CB09AF1B7817
:100B1000CDF8D302CDF8D7120122394620468DF800
:100B2000DB3200F0BDFE00230393AB7E029305F1A0
:100B30001903019380B20123CDE904700093E97E8B
:100B400005A3D3E90023304601F0FCFC0DF54B7DF5
:100B5000F0BD00BFAFF300809E6AC421818A46EEDB
:100B600058240020084900082DE9F041264D2B7A31
:100B7000DAB080460C46FBB927A9204600F0B6FF44
:100B80000746002836D19DF89D60C82E32D8014610
:100B90004FF4FA72284600F007FE32460DF19E012E
:100BA00005F1090000F0EEFD2E449DF89C307772AF
:100BB0002B720BB9E37E2B728122002106AD27A890
:100BC00000F0F2FD0122294627A800F0D5FF0023FE
:100BD0000393A37E029304F1190380B201932823A7
:100BE000CDE904500093E17E05A3D3E900234046FC
:100BF00001F0A8FC5AB0BDE8F08100BFAFF300805F
:100C000026417272DF25D7B7A0340020F0B5254EFB
:100C10004FF48A7505FB0065F1B096F8D83085F879
:100C2000DC300024D822214685F8E8403AA800F0BC
:100C3000BBFD06F1090000F0AFFDD5F8E4308DF8FA
:100C4000F000C2B206AF06F109010DF1F100CDE9E5
:100C50003A3400F097FD394601223AA800F0C2FF6D
:100C600080B2CDE9047008230127CDE9023706F1EF
:100C7000D803019330230093317A0B4807A3D3E9BB
:100C8000002301F05FFCA04206DD01F011F9C5F878
:100C9000E000384671B0F0BD2046FBE778F6339FA0
:100CA00093CACD8DA034002070340020F0B51E4EC4
:100CB0001E4F1F4D85B0304601F070FC044660B3F6
:100CC00010220021684600F06FFD227B6068A16859
:100CD0004FF0000362F303038DF8003002AB03C34F
:100CE000019B226862F31C0301939DF8003043F0DE
:100CF00020038DF8003000236A461946384602F07A
:100D0000CDFB044620B9304601F04CFC2C70D2E7F4
:100D10002B78072B03D801332B7005B0F0BD0248A8
:100D200001F040FCF9E700BF70340020E0360020FD
:100D30009936002070B50D4614461E4601F05EFB44
:100D400050B9022E10D1012C0ED112A3D3E90023E9
:100D5000C5E90023012007E0282C10D005D8012C7C
:100D600009D0052C0FD0002070BD302CFBD10BA377
:100D7000D3E90023ECE70BA3D3E90023E8E70BA3B7
:100D8000D3E90023E4E70BA3D3E90023E0E700BFA6
:100D9000AFF30080401DA12026812A0B78F6339FF7
:100DA00093CACD8D9E6AC421818A46EE2641727215
:100DB000DF25D7B7F017304A39059E5638B50546B6
:100DC0000E4C0021013500F04FFCA4F8F051B4F8AE
:100DD000F00100F031FC78B1B4F8F00100F03CFC17
:100DE000014648B9B4F8F00100F03EFCB4F8F03127
:100DF0000133A4F8F031EAE738BD00BFA034002089
:100E00002DE9F04F8DB000AF04460D4601F0F6FA23
:100E1000002847D12B7E022B1BD1EB8A012B18D146
:100E200001F046F80646FFF71FFE03464FF4C87070
:100E3000DFF89C82B3FBF0F206F5167602FB103366
:100E400016FA83F3C8F80030EB7E33B9994B0022D1
:100E50001A703437BD46BDE8F08F07F11C012846F3
:100E600000F0F8FD0028F4D107F10C00FFF714FEA4
:100E7000BD7F07F10C012A4607F11F0003F00AFDB0
:100E80000028E3D10F2D08D88A4B1D70D8F8003008
:100E9000A3F51673C8F80030DBE7397F204601F070
:100EA000A5FAD6E7EB8A282B6CD010D8012B64D09A
:100EB000052BCED1BFF34F8F7F49804BCA6802F418
:100EC000E0621343CB60BFF34F8F00BFFDE7302BD1
:100ED000BFD17B4CEA7E237A9A42BAD194F8DC20C7
:100EE0006B7E9A42B5D104F1EA01284600F0AEFECD
:100EF00006460028ADD1012384F8E83000F0D8FF81
:100F0000D4F8E030D4ED007ADFED6E6AC01A19280B
:100F100038BF192040F6B833984228BF1846B8EEBB
:100F2000677A07EE900AF8EEE77A67EEA67ADFEDC9
:100F3000666AE7EE267AFCEEE77AC4ED007A94F86A
:100F4000D9307B607A6863684FF48A7101FB02F5DF
:100F5000621992F8E80050B1D2F8E4008342E94601
:100F600015D0002382F8E830C2F8E030CD4663683F
:100F7000564A9B0A013313816BE729462046FFF747
:100F80009BFD66E729462046FFF7EEFD61E7B2F8D4
:100F9000EC803B6008F1030A4FEA9A0A4FEA8A02A2
:100FA000D11DC908A9EBC1039D46EB460021584657
:100FB00000F0FAFB05F1EE0142462144584600F0EC
:100FC000E1FB3B6813B9012000F026FB94F8D20046
:100FD00000F032FB054630B9207200F065FB284670
:100FE00000F01AFBC2E7D4F8D4303BB994F8D20031
:100FF000B4F8F031834201D8FFF7E0FED4F8D430E2
:1010000043449D4208D294F8D200B4F8F031013044
:10101000834201D8FFF7D2FE60685FFA8AF2594630
:1010200000F0CAFB08B9CD4689E7636894F8D2009E
:1010300043446360D4F8D43008EB030AC4F8D4A066
:1010400000F0FAFA824509D394F8D230D4F8D400EB
:101050000133401B84F8D230C4F8D400B8F1FF0F3C
:101060000FD80025257200F01FFB284600F0D4FAA7
:1010700000F07AFE154B188108B9FFF713FACD4638
:10108000E7E67B6894F8D9004FF48A7202FB0343C9
:10109000D3F8E42083F8E86002F58072C3F8E060DA
:1010A000C3F8E420FFF7B2FDFFF700FE84F8D96033
:1010B000B9E700BF6934002000ED00E00400FA0544
:1010C000A0340020CDCCCC3D6666663F582400207D
:1010D0006C340020014B1870704700BF642400205E
:1010E00030B54FF00054264B22689A4285B017D194
:1010F000637DABB1234A24481370237D037200251E
:101100002249C0F8E450C922093000F03BFB2046D8
:10111000E022294600F048FB0124204605B030BDFE
:1011200003F040F8044608B90024F6E7184A194DC0
:10113000136C43F000731364AA6D174B9A42F3D1FA
:101140002B6E013B7E2BEFD8144A07CA01AB83E814
:1011500007001846032100F0D5FD6B6D83424FF068
:101160000003E1D12A6D8A4201BFAB65054B2A6EAF
:101170001A7003BF0A4BEA6D1A601C46CDE700BF28
:101180009AAD44C564240020A0340020160000203D
:1011900000380240006600405041A0B05866004050
:1011A000182300202DE9FF474C4C00F0DDFD022301
:1011B0006371002302934A4B2081D3F800C0BCF531
:1011C0007A7F12D3474B484FB7FBFCF69C458CBF48
:1011D0000A231123581EB6FBF3F503FB1562C1B2B7
:1011E000002A3ED002280346F4D89DF80B303F4930
:1011F0003F485A1E9DF80A30013B1B0443EA025344
:10120000BDF80820013A13434B6002F037F9002380
:101210000193384B384900933848394B4FF480528A
:1012200001F0BCF8374B197811B1344801F0DEF801
:1012300000F03EFE0546FFF717FC4FF4C873B0FB05
:10124000F3F202FB130305F5167010FA83F02E4B30
:10125000186002F09DFF08B10F23238104B0BDE8A0
:10126000F0876B1EB3F5806FBFD2C1EBC10E0EF1DC
:1012700003034FEAE309C3F3C703A1EB030809F132
:10128000010A4FF47A705FFA88F609FB00005AFAF7
:1012900088F8B0FBF8F0B0F5617F08D90EF1FF33A4
:1012A000C3F3C703C91ACEB2591E0F2914D8721E30
:1012B000072A8CBF00220122991901FB0551B7FBB7
:1012C000F1F7BC4591D1002A8FD0ADF808508DF8C8
:1012D0000A308DF80B6088E71346EDE758240020AC
:1012E000182300203F420F0080DE800210230020E0
:1012F000E0360020350D00086824002070340020FE
:10130000010E0008642400206C3400202DE9F04F09
:101310007EA7D7E900670FF2FC19D9E90089754D5E
:1013200093B00DF1300AFFF7C1FC1822002150469E
:1013300000F03AFADFF8E4B16F4C00231946524648
:10134000584602F0D3F8014650BB102208A800F01E
:101350002BFA636983F40073636100F0ABFD0B4605
:1013600012A9024611E903000DF1240C8CE80300D8
:101370009DF83410C1F3030089064CBF0E99BDF8E7
:1013800038C08DF82C0046BFC1F31C0C4CF0004156
:10139000CCF30A010891284608A901F0E1FACCE74C
:1013A000284601F02BF80446002848D1DFF870B138
:1013B00000F07EFDDBF80030984240D300F078FD6D
:1013C0000790FFF751FB079A8DF8204003464FF432
:1013D000C87002F51672B3FBF0F101FB103312FA7C
:1013E00083F3CBF80030DFF83CB19BF8001011B963
:1013F00001238DF8203050460791FFF74DFB0799E8
:10140000C1F11004E4B2062C28BF06242246514440
:101410000DF1210000F0B6F908AB039318230293F5
:101420000134364B0193E4B20123009304943B460C
:101430003246284601F028F800238BF8003000F0EF
:1014400037FD2F4A2F4C1368C31AB3F57A7F30D378
:10145000106000F02FFD02460B46284601F0ACF864
:10146000284600F0CBFF20B3237ADFF8BCB0002B76
:1014700014BF032302238BF8053000F019FD4FF44D
:101480007A730122B0FBF3F05146CBF800005846C6
:1014900000F0B8FA182302931B4B019380B240F27C
:1014A0005513CDE903A0009342464B46284600F071
:1014B000EBFF237A9BB100F0FBFC94F8E83073B9A2
:1014C000D4F8E03043B1C01A2368FA2B38BFFA23AE
:1014D0000533B0EB430F02D30020FFF797FBC82082
:1014E00002F0E6FA237A002B7FF41BAF13B0BDE8BD
:1014F000F08F00BF703400200008024068340020E4
:1015000094360020A034002098360020401DA120F1
:1015100026812A0BF1C6A7C1D068080FE03600204B
:101520006C340020693400205824002070B5104B22
:101530001B780133DBB2012B0C4612D80D4B1D6812
:1015400029684FF47A730E6AA2FB033201462246E1
:101550002846B047844204D1074B00221A7001206C
:1015600070BD4FF4FA7002F0A3FA0020F8E700BF54
:101570002423002028230020DC36002007B5002388
:10158000024601210DF107008DF80730FFF7CEFF6D
:1015900020B19DF8070003B05DF804FB4FF0FF3069
:1015A000F9E700000A4608B50421FFF7BFFF80F005
:1015B0000100C0B2404208BD30B4074B0A4619785A
:1015C000064B53F821402368DD69054B0146AC46C4
:1015D000204630BC604700BFDC36002028230020B6
:1015E000A086010070B502F045FC094E094D30801F
:1015F000002428683388834208D902F035FC2B6820
:1016000004440133B4F5803F2B60F2D370BD00BFBA
:10161000DE3600209C36002002F0DABC00F10060CB
:1016200000F580300068704700F10060920000F51E
:10163000803002F065BC0000054B1A68054B1B8822
:101640009B1A834202D9104402F00EBC002070475E
:101650009C360020DE360020024B1B68184402F046
:101660000BBC00BF9C360020024B1B68184402F0E4
:101670001BBC00BF9C36002010F003030AD1B0F55C
:10168000047F05D200F10050A0F51040D0F80038DA
:10169000184670470023FBE700F10050A0F510400A
:1016A000D0F8100A70470000064991F8243033B191
:1016B0000023086A81F824300822FFF7B5BF012013
:1016C000704700BFA0360020014B1868704700BF6C
:1016D000002004E070B5194B1D68194B0138C5F3A3
:1016E0000B0408442D0C04221E88A6420BD15C6812
:1016F0000A46013C824213460FD214F9016F4EB1E3
:1017000002F8016BF6E7013A03F10803ECD18142DC
:101710000B4602D22C2203F8012B0A4A0524168814
:10172000AE4204D1984284BF967803F8016B013C25
:1017300002F10402F3D1581A70BD00BF002004E08A
:101740005449000840490008022802BF024B4FF0EC
:1017500000729A61704700BF00080240022802BF71
:10176000024B4FF400729A61704700BF00080240BC
:10177000022801BF024A536983F400735361704722
:101780000008024010B50023934203D0CC5CC4543F
:101790000133F9E710BD000003460246D01A12F9E2
:1017A000011B0029FAD1704702440346934202D03C
:1017B00003F8011BFAE770472DE9F8431F4D144663
:1017C00095F824200746884652BBDFF870909CB3FA
:1017D00095F824302BB92022FF2148462F62FFF7CD
:1017E000E3FF95F82400C0F10802A24228BF224678
:1017F000D6B24146920005EB8000FFF7C3FF95F893
:101800002430A41B1E44F6B2082E17449044E4B2C0
:1018100085F82460DBD1FFF747FF0028D7D108E027
:101820002B6A03EB82038342CFD0FFF73DFF0028F2
:10183000CBD10020BDE8F8830120FBE7A0360020D3
:10184000024B1A78024B1A70704700BFDC3600203A
:101850002423002003494FF4E1330B60024B186846
:1018600002F022B8C836002028230020094B10B50A
:101870001422044600211846FFF796FF064A074B3C
:10188000127804600146BDE8104053F8220002F0CF
:101890000BB800BFC8360020DC360020282300200B
:1018A0002DE9F3470D46044600219046284640F2B4
:1018B0007912FFF779FF234620220021284600F005
:1018C000F1FF231D02222021284600F0EBFF631DBB
:1018D00003222221284600F0E5FFA31D0322252133
:1018E000284600F0DFFF04F10803102228212846D3
:1018F00000F0D8FF04F1100308223821284600F038
:10190000D1FF04F1110308224021284600F0CAFF4C
:1019100004F1120308224821284600F0C3FF04F115
:10192000140320225021284600F0BCFF04F11803C4
:1019300040227021284600F0B5FF04F12003082260
:10194000B021284600F0AEFF04F121030822B8219F
:10195000284600F0A7FF04F12207C0263B46314687
:1019600008222846083600F09DFFB6F5A07F07F153
:101970000107F3D194F832308DF8073031460DF17C
:1019800007030822284600F08DFF002604F1330AE1
:101990009DF807304FEAC6099E4209F5A47720D387
:1019A00094F83231502B28BF50238DF80730B8F10E
:1019B000000F08D139460DF107030722284600F031
:1019C00071FF09F24F17002604F233149DF8073017
:1019D0009E4207EBC6010DD30731C80802B0BDE82F
:1019E000F0870AEB060308223946284600F05AFF22
:1019F0000136CDE7A3190822284600F053FF01362F
:101A0000E4E7000013B504460846002101602346C0
:101A1000C0F803102022019000F044FF0198231D1C
:101A20000222202100F03EFF0198631D03222221A3
:101A300000F038FF0198A31D0322252100F032FF9A
:101A4000019804F108031022282100F02BFF072041
:101A500002B010BDF7B5047F05460E462CB1838A4F
:101A6000122B02D9012003B0F0BD00231946072232
:101A70000096284600F0DAFD731C00930122002333
:101A80000721284600F0D2FDD4B9B31C00930522EB
:101A900023460821284600F0C9FD0D24B378102BF9
:101AA000E0D83746B278BB1B934210D32B7FA88A6D
:101AB0000734E408B3B9844294BF00200120D2E780
:101AC000AB8ADB00083BDB08B3700824E6E7FB1CAD
:101AD0000093214600230822284600F0A7FD083481
:101AE0000137DFE7201A18BF0120BCE7F7B5047FF4
:101AF00005460E462CB1838ACA2B02D9012003B0B9
:101B0000F0BD0023194600960822284600F08EFDFD
:101B1000731CD4B90822009311462346284600F0CE
:101B200085FD10247378C82BE8D8012372785F1CD8
:101B3000013B934210D32B7FA88A0734E408B3B942
:101B4000844294BF00200120D9E7AB8ADB00083B28
:101B5000DB0873700824E5E7F3190093214600239E
:101B60000822284600F062FD08343B46DEE7201AD2
:101B700018BF0120C3E70000F7B50D460446002159
:101B8000164628468122FFF70FFE23460822002131
:101B9000284600F087FE94F901206378002AB8BF38
:101BA0007F238DF807309EB90DF107030722082126
:101BB000284600F077FE0F27002602349DF80730F4
:101BC0009E4207EBC60105D30731C80803B0F0BD3C
:101BD0000827F1E7A3190822284600F063FE013622
:101BE000ECE70000F7B50E460546002114463046E6
:101BF000CE22FFF7D9FD2B4628220021304600F0E7
:101C000051FE2B7AC82B28BFC8238DF807308CB91A
:101C10000DF1070308222821304600F043FE30244E
:101C20002F469DF807207B1B934205D3E01DC0087B
:101C300003B0F0BD2824F3E707F109032146082289
:101C4000304600F02FFE08340137EAE7F7B5047F8D
:101C500005460E4634B1838AB3F5827F02D901204E
:101C600003B0F0BD0096012310220021284600F0A9
:101C7000DDFCDCB9B31C0093092223461021284661
:101C800000F0D4FC19247388B3F5807FE7D8374679
:101C90007288BB1B934210D32B7FA88A0734E408B9
:101CA000B3B9844294BF00200120D9E7AB8ADB009E
:101CB000103BDB0873801024E5E73B1D00932146B1
:101CC00000230822284600F0B1FC08340137DFE782
:101CD000201A18BF0120C3E730B5094D0A449142CC
:101CE0000DD011F8013B5840082340F30004013B9C
:101CF0002C4013F0FF0384EA5000F6D1EFE730BD2B
:101D00002083B8EDF7B54FF0FF33DFF854C0DFF8AC
:101D100054E000EB81011A4688421CD050F8044B75
:101D2000019401AF042417F8015B82EA05620825DB
:101D3000DB18164605F1FF355241002EBCBF83EA81
:101D40000C0382EA0E0215F0FF05F1D1013C14F0FC
:101D5000FF04E8D1E0E7D843D14303B0F0BD00BFB2
:101D60009336EAA9EBE1F042F7B5384A10685168BA
:101D70006B4603C36A4636493648082302F09AFD8B
:101D80000446002833D10A25334A106851686B464F
:101D900003C36A4631492F48082302F08BFD0446ED
:101DA000002849D00369B3F5702F45D8B0F8661004
:101DB00040F2F63291423FD1294A024402F15C01DD
:101DC0008B4239D35C3B234900209E1AFFF784FFE6
:101DD0003246074604F164010020FFF77DFFA36847
:101DE0009F4229D1E368984208BF002524E0036997
:101DF000B3F5702F27D8418B40F2F632914220D1B3
:101E0000174A024402F110018B4218D3103B1149CA
:101E100000209D1AFFF760FF2A46064604F11801CC
:101E20000020FFF759FFA3689E4202D1E368984261
:101E300001D00D25A8E70025284603B0F0BD1025E8
:101E4000A2E70C25A0E70B259EE700BF7449000818
:101E5000DCFF0E00000001087D49000890FF0E0025
:101E60000800FFF700B59BB0EFF3098168226846D0
:101E7000FFF788FCEFF30583014B9B6BFEE700BF88
:101E800000ED00E008B5FFF7EDFF000000B59BB0E6
:101E9000EFF3098168226846FFF774FCEFF30583CE
:101EA000014B5B6BFEE700BF00ED00E0FEE70000CA
:101EB00002F0BEB802F0A0B82DE9F041456A15B9AC
:101EC0004162BDE8F0814B6823F06047C3F38A4666
:101ED0004FEAD37EC3F3807816EA230638BF3E4626
:101EE000AC462B465A68BEEBD27F22F060440AD043
:101EF000002A18DAA40CB44217D19D420FD10D600C
:101F0000DEE71346EEE7A74207D102F08044C2F3B2
:101F1000807242450BD054B1EFE708D2EDE7CCF820
:101F200000100B60CDE7B44201D0B442E5D81A6886
:101F30009C46002AE5D11960C3E700002DE9F0476F
:101F4000089D01F007044FEAD508224405F0070573
:101F500000EBD1004FF47F49944201D1BDE8F087F6
:101F600004F0070705F0070A57453E4638BF5646B6
:101F7000C6F10806111B8E4228BF0E46E10808EB89
:101F8000D50E415C13F80EC0B94029FA06F721FAC4
:101F90000AF1FFB28CEA010147FA0AF739408CEAEC
:101FA000010C03F80EC034443544D5E780EA012023
:101FB000082341F2210201B24000002980B203F15E
:101FC000FF33B8BF504013F0FF03F4D17047000057
:101FD00038B50C468D18A54200D138BD14F8011B48
:101FE000FFF7E4FFF7E7000042684AB11368436077
:101FF0004389818901339BB29942438138BF8381F0
:102000001046704770B588B0202204460D466846D9
:102010000021FFF7C9FB20460495FFF7E5FF0246C4
:1020200058B16B46054608AE1C4603CCB442286046
:102030006960234605F10805F6D1104608B070BD69
:10204000082817D909280CD00A280CD00B280CD046
:102050000C280CD00D280CD00E2814BF40203020A6
:1020600070470C20704710207047142070471820CC
:102070007047202070470000082817D90C280CD979
:1020800010280CD914280CD918280CD920280CD9C0
:1020900030288CBF0F200E207047092070470A207F
:1020A00070470B2070470C2070470D2070470000D0
:1020B0002DE9F843078C072F04461ED9D0E9029872
:1020C00000254FF6FF73C5F12006A5F1200029FA7F
:1020D00005F108FA06F628FA00F031430143C9B2C7
:1020E0001846FFF763FF0835402D0346EBD1E16941
:1020F0003A46BDE8F843FFF76BBF4FF6FF70BDE807
:10210000F883000010B54B6823B9CA8A63F309024B
:10211000CA8210BD04691A681C600361C38A013B4E
:10212000C3824A60EFE700002DE9F84F1D46CB8AD5
:102130000F46C3F309010529814692460B4630D06C
:102140000020AAB207F11A049EB2042E1FFA80F8EA
:102150000FD8904503F1010306D3FB8A0A4462F3CA
:102160000903FB8201201AE01AF80060E6540130EE
:10217000EAE79045F1D2A1F1050B1C237C68BBFB7B
:10218000F3F203FB12BB1FFA8BF6002C45D1484635
:10219000FFF72AFF044638B978606FF00200BDE807
:1021A000F88F4FF00008E6E7002606607860ADB2D1
:1021B0004FF0000B454510D90AEB0803221D13F818
:1021C000011B9155B1B208F101081B291FFA88F8CB
:1021D0002BD0454506F10106F1D8FB8AC3F309026D
:1021E000154465F30903BCE7013292B21C4623682B
:1021F000002BF9D16B1F0B441C21B3FBF1F301330E
:102200009BB29A42D3D2BBF1000FD0D14846FFF720
:10221000EBFE20B9C4F800B0BFE70122E7E7C0F841
:1022200000B05E4620600446C1E74545D5D9484622
:10223000FFF7DAFE08B92060AFE7C0F800B000266B
:1022400020600446B6E700002DE9F04F2DED028B2B
:102250001C4683B05B69019207468846002B00F05C
:102260009A80238C2BB1E269002A00F09480072B1E
:1022700035D807F10C00FFF7B7FE054638B96FF007
:102280000205284603B0BDEC028BBDE8F08F142296
:102290000021FFF789FA228CE16905F10800FFF7B8
:1022A00071FA208C013080B2FFF7E6FEFFF7C8FE1E
:1022B000013880B22084013028746369228C1B7835
:1022C0002A4403F01F0363F03F0348F000411372F8
:1022D000384669602946FFF7EFFD0125D1E700F197
:1022E0000C034FF0000908EE103A4FF0800A4E46FA
:1022F0004D4618EE100AFFF777FE83460028BED041
:1023000014220021FFF750FA002E3AD1019BABF8BE
:10231000083002220BF1080E1FFA82FC0CF10100BA
:10232000BCF1060F218C80B201D88E422BD3FFF76F
:10233000A3FEFFF785FE62691278013802F01F02E2
:102340008E4208BF4FF0400A42EA49121BFA80F160
:102350004AEA020A013048F0004281F808A08BF8EE
:102360001000CBF8042059463846FFF7A5FD238C12
:102370000135B3422DB289F001094FF0000AB8D1FE
:102380007FE70022C6E7E169895D0EF80210013699
:10239000B6B20132C0E76FF0010572E7F8B5154635
:1023A0000E463022002104461F46FFF7FDF9069B2A
:1023B0006360B5F5001F079BA76034BF6A094FF63D
:1023C000FF72A36297B2E66104F1100000239A4203
:1023D00006D800230360A782E3822383E360F8BD6D
:1023E0000660013330462036F1E7000003781BB960
:1023F0004BB2002BC8BF01707047000000787047D7
:10240000F8B50C46C969074611B9238C002B37D1A2
:10241000257E1F2D34D8387828BB228C072A2CD84B
:10242000268A36F003032BD14FF6FF70FFF7D0FD5D
:1024300020F001003102400441EA0561400C41EA0C
:1024400040254FF6FF72234629463846FFF7FCFE2B
:10245000002807DD626913780133DBB21F2B88BFC8
:1024600000231370F8BD218A2D0645EA0125054396
:102470002046FFF71DFE0246E5E76FF00300F1E797
:102480006FF00100EEE7000070B58AB00446164612
:102490000021282268461D46FFF786F9BDF838302E
:1024A000ADF810300F9B05939DF840308DF8183033
:1024B000119B07936946BDF84830ADF8203020469F
:1024C000CDE90265FFF79CFF0AB070BD2DE9F04130
:1024D000D36905460C4616460BB9138C5BBB377E99
:1024E0001F2F28D895F80080B8F1000F26D030466D
:1024F000FFF7DEFD3378210241EAC33141EA0801EA
:10250000338A41EA076141EA03410246334641F01A
:1025100080012846FFF798FE00280ADD3378012B5A
:1025200007D1726913780133DBB21F2B88BF0023F8
:102530001370BDE8F0816FF00100FAE76FF003005F
:10254000F7E70000F0B58BB004460D4617460021B2
:10255000282268461E46FFF727F99DF84C305A1E80
:10256000534253418DF800309DF84030ADF81030A3
:10257000119B05939DF848308DF81830149B0793F4
:102580006A46BDF85430ADF8203029462046CDE9E2
:102590000276FFF79BFF0BB0F0BD0000406A00B170
:1025A00004307047436A1A68426202691A60036124
:1025B000C38A013BC38270472DE9F041D0F82080E7
:1025C000194E14461D464146002709B9BDE8F08161
:1025D000D1E90223A21A65EB0303964277EB0303CA
:1025E0001ED2036A8B420DD1FFF78CFD036A1B6874
:1025F000036203690B60C38A0161016A013BC38204
:102600008846E2E7FFF77EFD0B68C8F800300369F3
:102610000B60C38A0161013BC382D8F80010D4E784
:1026200088460968D1E700BF80841E002DE9F04F7D
:102630008BB00D46DDF8509014469B46804600282E
:1026400000F01981B9F1000F00F01581531E3F2BE6
:1026500000F21181012A03D1BBF1000F40F00B8180
:102660000023CDE90833B8F81430B5EBC30F4FEAB7
:10267000C30703D300200BB0BDE8F08F2B199F4296
:10268000D8F80C303ABF7F1BFFB227461BB9D8F8E9
:102690001030002B7AD0272D4ED8C5F12806B7422E
:1026A0004FF000032CBFF6B23E4600932946D8F8FF
:1026B000080008AB3246FFF741FCA7EB060A354499
:1026C0005FFA8AFAB8F8143003F10053053BDB00D7
:1026D0000493D8F80C3003932821039B13B1BAF16B
:1026E000000F2CD1D8F8100040B1BAF1000F05D07E
:1026F000009608AB5246691AFFF720FC38B2002F4B
:10270000B8D066070AD00AAB03EBD401624211F8D5
:10271000083C02F00702134101F8083C082C3CD9A0
:10272000102C40F2B580202C40F2B780BBF1000F96
:1027300000F09C80082334E0BA460026C2E7049BE0
:10274000E02B28BFE02306930B44AB42059314D93A
:102750005A1B03980096924534BF5246D2B2691A6A
:1027600008AB04300792FFF7E9FB079A1644AAEB7F
:10277000020A1544F6B25FFA8AFA049B069A059992
:102780009B1A0493039B1B680393A6E70093D8F856
:10279000080008AB3A462946AEE7BBF1000F13D05C
:1027A0000123B4EBC30F6CD0082C12D89DF8203055
:1027B000621E23FA02F2D50706D54FF0FF3202FA65
:1027C00004F423438DF820309DF8203089F8003040
:1027D00051E7102C12D8BDF82030621E23FA02F205
:1027E000D10706D54FF0FF3202FA04F42343ADF8C7
:1027F0002030BDF82030A9F800303CE7202C0FD85D
:102800000899631E21FA03F3DA0705D54FF0FF326A
:1028100002FA04F40C430894089BC9F800302AE734
:10282000402C2BD0DDE90865611EC4F12102A4F122
:10283000210326FA01F105FA02F225FA03F3114306
:102840001943CB0712D50122A4F12003C4F12001C2
:1028500002FA03F322FA01F1A240524243EA0103D1
:1028600063EB430332432B43CDE90823DDE908231F
:10287000C9E90023FFE66FF00100FCE66FF00800F5
:10288000F9E6082CA0D9102CB3D9202CEED8C3E738
:10289000BBF1000FADD0022383E7BBF1000FBBD02B
:1028A00004237EE730B5012A144638BF0124402CAA
:1028B00085B028BF40240025012ACDE9025518D84B
:1028C0001B788DF8083063070AD004AB03EBD405FE
:1028D000624215F8083C02F00702934005F8083CF4
:1028E000009103462246002102A8FFF727FB05B00E
:1028F00030BD082AE4D9102A03D81B88ADF8083067
:10290000E1E7202A8DBFD3E900231B680293CDE9BC
:102910000223D8E710B5CB681BB98B600B618B82A3
:1029200010BD04691A681C600361C38A013BC3823D
:10293000CA60F0E703064CBFC0F3C0300220704706
:1029400008B50246FFF7F6FF022806D15306C2F388
:102950000F2001D100F0030008BDC2F30740FBE7E0
:102960002DE9F04F93B0CDE903230A6804461046E1
:10297000FFF7E0FF022814BFC2F306260026002A54
:102980000D46824680F2F78112F0C04940F0F38193
:10299000097B002900F0EF81022803D02378B3429D
:1029A00040F0EC81C2F304630693104602F07F030B
:1029B0000593FFF7C5FF059B29444FEA834848EA82
:1029C0000A4848EA4668CE7800230022CDE9082369
:1029D000F309834648EA0008029367D0059B0093F9
:1029E00002466768534608A92046B847002800F009
:1029F000C881276A4FB9414604F10C00FFF702FB7A
:102A0000074690B96FF0020054E03B6998450DD03D
:102A10003F68002FF9D1414604F10C00FFF7F2FAAC
:102A200007460028EED0236A3B60276297F817C05C
:102A300006F01F08CCF3840CACEB08001FFA80FEF4
:102A40000028B8BF0EF12000A8EB0C031FFA83FE8C
:102A5000D7E90221B8BF00B2002B0793BEBF0EF129
:102A600020031BB2079352EA010338D0039BDFF81F
:102A700024E39A1A049B4FF0000C63EB0101964586
:102A80007CEB01032BD36B7B97F81AE0734519D1CC
:102A9000029B002B78D0012821DC7868F8B9DFF898
:102AA000F0C2944570EB010316D337E0276A27B9CB
:102AB0006FF00C0013B0BDE8F08F3B699845B5D0BE
:102AC0003F68F4E7B24890427CEB010301D3002059
:102AD000F0E7029B002BFAD0079B0F2B17DCFA7D47
:102AE000B30002F0030203F07C031343FB75394685
:102AF0002046FFF707FB6B7BBB76029B3BB9FB7D58
:102B0000C3F38402013262F38603FB75D0E76A7B6C
:102B1000BB7E9A42DBD1029B002B35D0B309022B3E
:102B200032D0039BBB60049BFB60142200210DA8E4
:102B3000FEF73AFE039B0A93049B0B932B1D0C9309
:102B40002B7BADF83EB0013BDBB2ADF83C30069BD1
:102B50008DF84230059B8DF8433094F82C308DF879
:102B600040A083F001038DF844308DF84180A368C4
:102B70000AA920469847FB7DC3F38403013303F081
:102B80001F039B02FB82A2E7FB7DC6F34012B2EB60
:102B9000D31F40F0F980C3F38403434540F0FC8029
:102BA000029A2B7BB609002A52D016F0010661D199
:102BB000032B40F2F480039BBB60049BFB60FB8A09
:102BC00066F30903FB822B7BAE1D033BDBB232466F
:102BD000394604F10C00FFF7A7FA00280CDA394651
:102BE0002046FFF78FFAFB7DC3F38403013303F024
:102BF0001F039B02FB8205E7DDE90884AB883B836A
:102C00004FF6FF73C9F12000A9F1200228FA09F15B
:102C100004FA00F0014324FA02F211431846C9B243
:102C2000FFF7C4F909F10809B9F1400F0346E9D1EA
:102C3000B8822A7B033AD2B23146FFF7C9F9FB7D4D
:102C4000B882DA43C2F3C01262F3C713FB753EE7E2
:102C500086B92E1D013BDBB23246394604F10C0029
:102C6000FFF762FA0028BADB2A7BB88A013AD2B2AF
:102C70003146E2E7F98AC1F30901013B0429DAB2DE
:102C80005BD8281D002307F11B069A4208D910F8CB
:102C900001CB06F801C0013101330529DBB2F4D1C3
:102CA00003990A9104990B91934207F11B010C912E
:102CB00038BF043379680D9134BF55FA83F300238C
:102CC0000E93FB8AADF83EB0C3F309031A44069B8A
:102CD0008DF84230059B8DF8433094F82C30ADF8D8
:102CE0003C2083F001038DF8443000238DF840A090
:102CF0008DF841807B602A7BB88A013A291DFFF755
:102D000067F93B8BB882834203D1A3680AA92046A6
:102D1000984720460AA9FFF7FDFDFB7DBA8AC3F359
:102D20008403013303F01F039B02FB823B8B9A4217
:102D30000CBF00206FF01000BCE67B68002BAFD00A
:102D4000052001E01C3033461E68002EFAD1091A16
:102D5000081D2E1D184401EB090CBCF11B0F5FFA76
:102D600089F39DD89A429BD916F8013B00F8013BA4
:102D700009F10109EFE76FF009009BE66FF00A0027
:102D800098E66FF00B0095E66FF00D0092E600BF3D
:102D900040420F0080841E006FF00E008AE66FF044
:102DA0000F0087E6404BF0B51C6C404E44F00074B9
:102DB0001C641D6E45F000751D661B6E3C4B9B6AC6
:102DC000D3F80052354045F00105C3F80052D3F85E
:102DD0000042344044EA002040F00100C3F8000201
:102DE000002952D00020C3F81C020546C3F8040293
:102DF000C3F80C02C3F8140203EBC00401301C2812
:102E0000C4F84052C4F84452F6D100254FF0010CEA
:102E100096781488F70748BFD3F804720CFA04F0C8
:102E200044BF0743C3F80472B70742BFD3F80C721C
:102E30000743C3F80C72760742BFD3F81462064307
:102E4000C3F8146203EBC4045668C4F84062966881
:102E5000C4F84462D3F81C4201352043A942C3F8A8
:102E60001C0202F10C02D3D1D3F8002222F001029D
:102E7000C3F800220C4B1A6C22F000721A641A6E0E
:102E800022F000721A661B6EF0BD0122C3F84012D8
:102E9000C3F84412C3F80412C3F81412C3F80C2286
:102EA000C3F81C22E0E700BF003802400000FFFF2B
:102EB000E0360020184A916A08B58B688B6013F0E1
:102EC000010104D013F00C0F18BF4FF48031D80566
:102ED00006D513F4406F14BF41F4003141F00201F4
:102EE000D80306D513F4402F14BF41F4802141F0DC
:102EF0000401D3690BB108489847302383F3118844
:102F00000648002100F0FCFD002383F31188BDE892
:102F1000084001F085B900BFE0360020E836002007
:102F200038B5124CA36ADD68AA0712D05A6922F09C
:102F300002025A61A36913B1012120469847302348
:102F400083F311880A48002100F0DAFD002383F39F
:102F50001188EB0606D5A36A1021D960236A0BB14C
:102F600002489847BDE8384001F05AB9E0360020E1
:102F7000F036002038B5124CA36A1D69AA0712D09A
:102F80005A6922F010025A61A36913B10221204646
:102F90009847302383F311880A48002100F0B0FDE0
:102FA000002383F31188EB0606D5A36A102119616B
:102FB000236A0BB102489847BDE8384001F030B9A8
:102FC000E0360020F036002038B50F4CA36A5D686B
:102FD0005D602A070AD5042222701A6822F00202D4
:102FE0001A60636A13B10021204698476B0706D523
:102FF000A36A9969236A13B1034809049847BDE895
:10300000384001F00DB900BFE036002010B50E4C7D
:10301000204600F021FA0D4BA3620B21132000F093
:1030200003FA0B21142000F0FFF90B21152000F00A
:10303000FBF90B21162000F0F7F90022BDE8104043
:1030400011460E20FFF7AEBEE036002000640040BF
:10305000114B984210B5044609D1104B1A6C42F03E
:1030600000721A641A6E42F000721A661B6EA36A2E
:1030700001221A60A36A5A68D20707D562685168AC
:103080001268D9611A60064A5A6110BD01210820F0
:1030900000F07AFCEEE700BFE03600200038024086
:1030A0005B87010003291AD8DFE801F0020A0F1438
:1030B000836A9B6813F0E05F14BF01200020704713
:1030C000836A9868C0F380607047836A9868C0F329
:1030D000C0607047836A9868C0F300707047002032
:1030E0007047000010B5032925D8DFE801F002255C
:1030F000292D836A9968C1F30161183103EB01132B
:10310000107884064CBF54689488C0F300114FEACD
:10311000410148BF41EAC40100F00F004CBF41F03B
:10312000040141EA4451586041F001019068D268BD
:103130009860DA60196010BD836A03F5C073DFE739
:10314000836A03F5C873DBE7836A03F5D073D7E7B7
:1031500001290AD002290FD081B9836ADA6892075F
:1031600001D1186903E001207047836AD86810F024
:10317000030018BF01207047836AF2E70020704700
:1031800010B539B9836AD96889071BD11B699C07B7
:1031900004D110BD012915D00229FAD1816AD1F8D4
:1031A000C031D1F8C441D1F8C8011061D1F8CC01C7
:1031B0005061202008610869800717D1486940F0F4
:1031C000100012E0816AD1F8B031D1F8B441D1F8E1
:1031D000B8011061D1F8BC0150612020C860C868F6
:1031E000800703D1486940F002004861C3F3400002
:1031F000C3F38001000140EA4111107920F0300052
:103200000143117189064BBF91681189DB085B0D81
:103210004CBF63F31C0163F30A01137948BF91604B
:1032200064F3030313714FEA14234FEA144458BFA5
:10323000118113705480ACE7026843681143016048
:1032400003B1184770470000024AD36843F0C00337
:10325000D36070470010014010B5084C084A0021A7
:10326000204600F0FFFA074BC4F85C3203F14543F7
:1032700003F52D43C4F8603210BD00BF0C370020A9
:103280004932000800100140234A037C002918BF7E
:103290000A46012B30B5C0F868220CD11F4B98426A
:1032A00009D11F4B596C41F010015964596E41F01E
:1032B000100159665B6EB2F904501468D0F86032A0
:1032C000D0F85C12002D03EB5403B3FBF4F3BEBF44
:1032D00023F0070503F0070343EA450394888B6056
:1032E000D38843F040030B61138943F001034B6122
:1032F00044F4045343F02C03CB6004F4A0540023A3
:103300000B60B4F5806F0B684B680CBF7F23FF2305
:1033100080F8643230BD00BF884900080C370020B7
:10332000003802402DE9F041D0F85C62F76833685C
:10333000DA0504469DB20DD5302383F311884FF48E
:1033400080610430FFF778FF6FF4807333600023EF
:1033500083F31188302383F3118804F1040815F0F6
:103360002F033AD183F31188380615D5290613D5D2
:10337000302383F3118804F1380000F0EFF90028BE
:103380004EDA0821201DFFF757FF4FF67F733B40B1
:10339000F360002383F311887A0616D56B0614D5E3
:1033A000302383F31188D4E913239A420AD1236C82
:1033B00043B127F040073F041021201D3F0CFFF7C9
:1033C0003BFFF760002383F31188D4F86822D368A9
:1033D00043B3BDE8F041106918472B0714D015F02E
:1033E000080F0CBF00214FF48071E80748BF41F07F
:1033F0002001AA0748BF41F040016B0748BF41F0D8
:1034000080014046FFF718FFAD06736805D594F8B4
:1034100064122046194000F055FA3568ADB29EE7B7
:103420007060B6E7BDE8F08100F1604303F56143E9
:103430000901C9B283F80013012200F01F039A406A
:1034400043099B0003F1604303F56143C3F8802106
:103450001A607047FFF7DABD012300F10802C0E9E6
:103460000222037000F110020023C0E90422C0E927
:103470000633C0E9083343607047000010B53023BD
:10348000044683F31188022303704160FFF7E0FDD7
:1034900004232370002080F3118810BD2DE9F04132
:1034A0001F4604460D461646302383F3118800F16B
:1034B00008082378052B0DD029462046FFF7F2FD9A
:1034C00040B1204632462946FFF70CFE002080F32B
:1034D000118808E03946404600F0F6FA0028E8D0A6
:1034E000002383F31188BDE8F08100002DE9F0414D
:1034F0001F4604460D461646302383F3118800F11B
:1035000010082378052B0DD029462046FFF720FE12
:1035100040B1204632462946FFF732FE002080F3B4
:10352000118808E03946404600F0CEFA0028E8D07D
:10353000002383F31188BDE8F0810000F8B515463B
:1035400082680669AA420B46816938BF8568761A87
:10355000B54204460BD218462A46FEF713F9A36972
:103560002B44A361A3685B1BA3602846F8BD0CD95C
:1035700018463246FEF706F9AF1BE1683A4630447A
:10358000FEF700F9E3683B44EBE718462A46FEF7EE
:10359000F9F8E368E5E7000083689342F7B515465C
:1035A000044638BF8568D0E90460361AB5420BD2AC
:1035B0002A46FEF7E7F863692B446361A36828464F
:1035C0005B1BA36003B0F0BD0DD932460191FEF73D
:1035D000D9F80199E068AF1B3A463144FEF7D2F8BA
:1035E000E3683B44E9E72A46FEF7CCF8E368E4E702
:1035F00010B50A440024C361029B8460C0E9000046
:10360000C0E90511C1600261036210BD08B5D0E9CF
:103610000532934201D1826882B9826801328260A8
:103620005A1C42611970D0E904329A4224BFC3681F
:103630004361002100F058FA002008BD4FF0FF3030
:10364000FBE7000070B5302304460E4683F3118873
:10365000A568A5B1A368A269013BA360531CA3613F
:1036600015782269934224BFE368A361E3690BB133
:1036700020469847002383F31188284607E0314607
:10368000204600F021FA0028E2DA85F3118870BDA7
:103690002DE9F74F04460E4617469846D0F81C9081
:1036A0004FF0300A8AF311884FF0000B154665B1D0
:1036B0002A4631462046FFF741FF034660B941469E
:1036C000204600F001FA0028F1D0002383F311888E
:1036D000781B03B0BDE8F08FB9F1000F03D0019063
:1036E0002046C847019B8BF31188ED1A1E448AF3CC
:1036F0001188DCE7C0E90511C160C3611144009B7A
:103700008260C0E90000016103627047F8B50446B9
:103710000D461646302383F31188A768A7B1A36826
:10372000013BA36063695A1C62611D70D4E90432D5
:103730009A4224BFE3686361E3690BB1204698476E
:10374000002080F3118807E03146204600F0BCF9E4
:103750000028E2DA87F31188F8BD0000D0E90523DC
:103760009A4210B501D182687AB9826801328260CA
:103770005A1C82611C7803699A4224BFC368836122
:10378000002100F0B1F9204610BD4FF0FF30FBE7FB
:103790002DE9F74F04460E4617469846D0F81C9080
:1037A0004FF0300A8AF311884FF0000B154665B1CF
:1037B0002A4631462046FFF7EFFE034660B94146F0
:1037C000204600F081F90028F1D0002383F311880E
:1037D000781B03B0BDE8F08FB9F1000F03D0019062
:1037E0002046C847019B8BF31188ED1A1E448AF3CB
:1037F0001188DCE7026843681143016003B1184790
:10380000704700001430FFF743BF00004FF0FF3354
:103810001430FFF73DBF00003830FFF7B9BF00009C
:103820004FF0FF333830FFF7B3BF00001430FFF71D
:1038300009BF00004FF0FF311430FFF703BF000055
:103840003830FFF763BF00004FF0FF323830FFF72A
:103850005DBF0000012914BF6FF013000020704706
:10386000FFF7FABC37B515460E4A026000224260E7
:10387000C0E902220122044602740B46009000F1C6
:103880005C014FF480721430FFF7B2FE00942B46B7
:103890004FF4807204F5AE7104F13800FFF72AFF8F
:1038A00003B030BD9C49000810B53023044683F3B3
:1038B0001188FFF7E9FC02232374002080F31188AC
:1038C00010BD000038B5C36904460D461BB904217C
:1038D0000844FFF78FFF294604F11400FFF796FE16
:1038E000002806DA201D4FF40061BDE83840FFF7DC
:1038F00081BF38BD00230375826803691B6899681E
:103900009142FBD25A680360426010605860704771
:1039100000230375826803691B6899689142FBD88C
:103920005A680360426010605860704708B50846E6
:10393000302383F311880B7D032B05D0042B0DD08E
:103940002BB983F3118808BD8B6900221A604FF0F0
:10395000FF338361FFF7CEFF0023F2E7D1E90032A6
:1039600013605A60F3E70000FFF7C4BF054BD96846
:103970000875186802681A60536001220275D860E1
:10398000FCF7C0BC7839002030B50C4BDD684B1C0F
:1039900087B004460FD02B46094A684600F044F928
:1039A0002046FFF7E3FF009B13B1684600F046F99D
:1039B000A86907B030BDFFF7D9FFF9E778390020D3
:1039C0002D390008044B1A68DB6890689B689842A0
:1039D00094BF00200120704778390020084B10B5B3
:1039E0001C68D86822681A60536001222275DC6066
:1039F000FFF78EFF01462046BDE81040FCF782BC71
:103A00007839002038B5074C0749084801230025BC
:103A10002370656000F06AFC0223237085F311882F
:103A200038BD00BFE03B0020C849000878390020BD
:103A300000F03AB98B60022308618B820846704718
:103A40008368A3F1840243F8142C026943F8442CE0
:103A5000426943F8402C094A43F8242CC26843F8D1
:103A6000182C022203F80C2C002203F80B2C044A19
:103A700043F8102CA3F12000704700BF1D0300087D
:103A80007839002008B5FFF7DBFFBDE80840FFF7F5
:103A90006BBF0000024BDB6898610F20FFF766BF29
:103AA00078390020302383F31188FFF7F3BF00003B
:103AB00008B50146302383F311880820FFF764FF1F
:103AC000002383F3118808BD064BDB6839B14268D7
:103AD00018605A60136043600420FFF755BF4FF031
:103AE000FF307047783900200368984206D01A6882
:103AF0000260506099611846FFF736BF70470000BA
:103B000038B504460D462068844200D138BD0368AC
:103B100023605C608561FFF727FFF4E710B5036859
:103B20009C68A2420CD85C688A600B604C60216083
:103B3000596099688A1A9A604FF0FF33836010BD0C
:103B40001B68121BECE700000A2938BF0A2170B578
:103B500004460D460A26601900F0C2FB00F0AEFBD9
:103B6000041BA54203D8751C2E460446F3E70A2E13
:103B700004D9BDE87040012000F0F8BB70BD000022
:103B8000F8B5144B0D46D96103F1100141600A2AC2
:103B90001969826038BF0A22016048601861A8185C
:103BA000144600F08FFB0A2700F088FB431BA3425A
:103BB000064606D37C1C281900F092FB27463546A2
:103BC000F2E70A2F04D9BDE8F840012000F0CEBB8F
:103BD000F8BD00BF78390020F8B506460D4600F064
:103BE0006DFB0F4A134653F8107F9F4206D12A46B9
:103BF00001463046BDE8F840FFF7C2BFD169BB6857
:103C0000441A2C1928BF2C46A34202D92946FFF793
:103C10009BFF224631460348BDE8F840FFF77EBFD0
:103C2000783900208839002010B4C0E9032300232C
:103C30005DF8044B4361FFF7CFBF000010B5194C8E
:103C4000236998420DD0D0E90032816813605A6030
:103C50009A680A449A60002303604FF0FF33A3611F
:103C600010BD2346026843F8102F53600022026003
:103C700022699A4203D1BDE8104000F02BBB936843
:103C800081680B44936000F019FB2269E169926836
:103C9000441AA242E4D91144BDE81040091AFFF7C2
:103CA00053BF00BF783900202DE9F047DFF8BC8012
:103CB00008F110072C4ED8F8105000F0FFFAD8F891
:103CC0001C40AA68031B9A423ED81444D5E900322E
:103CD0004FF00009C8F81C4013605A60C5F8009006
:103CE000D8F81030B34201D100F0F4FA89F311880A
:103CF000D5E9033128469847302383F311886B694F
:103D0000002BD8D000F0DAFA6A69A0EB04094A4522
:103D100082460DD2022000F029FB0022D8F8103094
:103D2000B34208D151462846BDE8F047FFF728BF07
:103D3000121A2244F2E712EB090938BF4A46294613
:103D40003846FFF7EBFEB5E7D8F81030B34208D09D
:103D50001444211AC8F81C00A960BDE8F047FFF719
:103D6000F3BEBDE8F08700BF883900207839002015
:103D700038B500F0A3FA054AD2E90845031B181923
:103D800045F10001C2E9080138BD00BF78390020C3
:103D900000207047FEE70000704700004FF0FF3042
:103DA00070470000BFF34F8F024AD368DB03FCD497
:103DB000704700BF003C024008B5094B1B7873B93F
:103DC000FFF7F0FF074B1A69002ABFBF064A5A6087
:103DD00002F188325A601A6822F480621A6008BDC3
:103DE000E83B0020003C02402301674508B50B4B2F
:103DF0001B7893B9FFF7D6FF094B1A6942F00042CE
:103E00001A611A6842F480521A601A6822F48052C9
:103E10001A601A6842F480621A6008BDE83B00200C
:103E2000003C02400B28F0B516D80C4C0C49237806
:103E30007BB90C4D0E460C234FF0006255F8047B05
:103E400046F8042B013B13F0FF033A44F6D101235B
:103E5000237051F82000F0BD0020FCE71C3C00203E
:103E6000EC3B0020D4490008014B53F82000704778
:103E7000D44900080C2070470B2810B5044601D91E
:103E8000002010BDFFF7CEFF064B53F82430184436
:103E9000C21A0BB90120F4E712680132F0D1043BD9
:103EA000F6E700BFD44900080B2810B5044621D816
:103EB000FFF778FFFFF780FF0F4AF323D360C300BB
:103EC000DBB243F4007343F002031361136943F45C
:103ED00080331361FFF766FFFFF7A4FF074B53F82A
:103EE000241000F01FF9FFF781FF2046BDE81040C5
:103EF000FFF7C2BF002010BD003C0240D4490008BB
:103F0000F8B512F00103144642D18218B2F1016FE4
:103F100057D82D4B1B6813F0010352D02B4DFFF7E0
:103F20004BFFF323EB60FFF73DFF40F20127032C2B
:103F300015D824F001046618244C401A40F20117E9
:103F4000B142236900EB010524D123F00103236171
:103F5000FFF74CFF0120F8BD043C0430E7E783077E
:103F6000E7D12B6923F440732B612B693B432B6111
:103F700051F8046B0660BFF34F8FFFF713FF036820
:103F80009E42E9D02B6923F001032B61FFF72EFF3E
:103F90000020E0E723F44073236123693B4323615E
:103FA0000B882B80BFF34F8FFFF7FCFE2D8831F875
:103FB000023BADB2AB42C3D0236923F001032361BE
:103FC000E4E71846C7E700BF00380240003C024063
:103FD000084908B50B7828B11BB9FFF7EDFE01239E
:103FE0000B7008BD002BFCD0BDE808400870FFF73F
:103FF000FDBE00BFE83B002038B5EFF311859DB949
:10400000EFF30584C4F30804302334B183F311883B
:10401000FFF7AEFE85F3118838BD83F31188FFF7F3
:10402000A7FE84F3118838BDBDE83840FFF7A0BE75
:1040300038B5FFF7E1FF114C114AC00840EA417062
:10404000A0FB025EC908A0FB040C1CEB050CA1FB45
:1040500004404FF000035B41A1FB02121CEB040C77
:1040600043EB000011EB0E0142F10002411842F156
:104070000000090941EA007038BD00BFCFF753E3E3
:10408000A59BC42010B50244064BD2B2904200D189
:1040900010BD441C00B253F8200041F8040BE0B2FC
:1040A000F4E700BF502800400F4B30B51C6F2404CC
:1040B00007D41C6F44F400741C671C6F44F4004464
:1040C0001C670A4C236843F4807323600244084B46
:1040D000D2B2904200D130BD441C00B251F8045B12
:1040E00043F82050E0B2F4E700380240007000408E
:1040F0005028004007B5012201A90020FFF7C2FFA8
:10410000019803B05DF804FB13B50446FFF7F2FF16
:10411000A04205D0012201A900200194FFF7C4FFAD
:1041200002B010BD70470000074B45F255521A60AF
:1041300003225A6040F2FF729A604CF6CC421A6039
:10414000024B01221A70704700300040243C0020CE
:10415000034B1B781BB1034B4AF6AA221A60704727
:10416000243C002000300040034B1A681AB9034A6F
:10417000D2F874281A607047203C002000300240BA
:10418000024B4FF08072C3F8742870470030024031
:1041900008B5FFF7E9FF024B1868C0F3407008BD8F
:1041A000203C002008B5FFF7DFFF024B1868C0F382
:1041B000007008BD203C0020EFF3098305494A6BDD
:1041C00022F001024A63683383F30988002383F3F2
:1041D0001188704700EF00E0302080F3118862B64C
:1041E0000C4B0D4AD96821F4E0610904090C0A431B
:1041F000DA60D3F8FC20094942F08072C3F8FC2051
:104200000A6842F001020A602022DA7783F822006D
:10421000704700BF00ED00E00003FA05001000E069
:1042200010B5302383F311880E4B5B6813F40063E1
:1042300014D0F1EE103AEFF30984683C4FF080732C
:10424000E361094BDB6B236684F30988FFF7BAFB54
:1042500010B1064BA36110BD054BFBE783F311883A
:10426000F9E700BF00ED00E000EF00E02F030008D9
:104270003203000870470000FEE700000A4B0B48BD
:104280000B4A90420BD30B4BDA1C121AC11E22F0C0
:1042900003028B4238BF00220021FDF785BA53F894
:1042A000041B40F8041BECE73C4B0008A83C002032
:1042B000A83C0020A83C002000F0D0B84FF080437C
:1042C000586A70474FF08043002258631A610222F7
:1042D000DA6070474FF080430022DA6070470000D8
:1042E0004FF0804358637047FEE7000070B51B4BEA
:1042F00001630025044686B0586085620E46FFF7CC
:104300006BFF04F11003C4E904334FF0FF33C4E939
:104310000635C4E90044A560E562FFF7CFFF2B46F0
:104320000246C4E9082304F134010D4A25658023BF
:104330002046FFF77FFB0123E0600A4A03750092E5
:1043400072680192B268CDE90223074B6846CDE955
:104350000435FFF797FB06B070BD00BFE03B0020BF
:10436000044A0008094A0008E9420008024AD36AE0
:104370001843D062704700BF783900204B68436013
:104380008B688360CB68C3600B6943614B690362D0
:104390008B6943620B6803607047000008B5264BC9
:1043A00026481A6940F2FF110A431A611A6922F479
:1043B000FF7222F001021A611A691A6B0A431A632A
:1043C0001A6D0A431A651E4A1B6D1146FFF7D6FF88
:1043D00002F11C0100F58060FFF7D0FF02F1380107
:1043E00000F58060FFF7CAFF02F1540100F580601C
:1043F000FFF7C4FF02F1700100F58060FFF7BEFF18
:1044000002F18C0100F58060FFF7B8FF02F1A8010E
:1044100000F58060FFF7B2FF02F1C40100F5806093
:10442000FFF7ACFF02F1E00100F58060FFF7A6FFA7
:10443000BDE8084000F08EB800380240000002409D
:10444000104A000808B500F007FAFFF7DBFABDE8EC
:104450000840FFF789BE0000704700000F4B1A6C40
:1044600042F001021A641A6E42F001021A660C4A06
:104470001B6E936843F0010393604FF08043532217
:104480009A624FF0FF32DA6200229A615A63DA6070
:104490005A6001225A611A60704700BF003802401A
:1044A000002004E04FF0804208B51169D3680B404A
:1044B000D9B2C9439B07116107D5302383F3118813
:1044C000FFF7B6FA002383F3118808BD1F4B1A6962
:1044D0006FEAC2526FEAD2521A611A69C2F3080235
:1044E0001A614FF0FF301A695A69586100215A6900
:1044F00059615A691A6A62F080521A621A6A02F0A5
:1045000080521A621A6A5A6A58625A6A59625A6A18
:104510001A6C42F080521A641A6E42F080521A6687
:104520001A6E0B4A106840F480701060186F00F427
:104530004070B0F5007F1EBF4FF4803018671967D8
:10454000536823F40073536000F05EB900380240F2
:1045500000700040334B4FF080521A64324A4FF4DF
:10456000404111601A6842F001021A601A6891070E
:10457000FCD59A6822F003029A602A4B9A6812F0DE
:104580000C02FBD1196801F0F90119609A601A68F0
:1045900042F480321A601A689203FCD55A6F42F0D6
:1045A00001025A671F4B5A6F9007FCD51F4A5A6089
:1045B0001A6842F080721A601B4A53685904FCD58D
:1045C000184B1A689201FCD5194A9A60194B1A685F
:1045D000194B9A42194B21D1194A1168194A914233
:1045E0001CD140F205121A60144A136803F00F033D
:1045F000052BFAD10B4B9A6842F002029A609A6836
:1046000002F00C02082AFAD15A6C42F480425A6431
:104610005A6E42F480425A665B6E704740F20572F1
:10462000E1E700BF00380240007000400854400736
:1046300000948838002004E011640020003C02400F
:1046400000ED00E041C20F41074A08B5536903F08D
:104650000103536123B1054A13680BB150689847B1
:10466000BDE80840FFF7DCBD003C0140283C0020CD
:10467000074A08B5536903F00203536123B1054AA1
:1046800093680BB1D0689847BDE80840FFF7C8BDF4
:10469000003C0140283C0020074A08B5536903F05C
:1046A0000403536123B1054A13690BB1506998475C
:1046B000BDE80840FFF7B4BD003C0140283C0020A5
:1046C000074A08B5536903F00803536123B1054A4B
:1046D00093690BB1D0699847BDE80840FFF7A0BDCA
:1046E000003C0140283C0020074A08B5536903F00C
:1046F0001003536123B1054A136A0BB1506A9847FE
:10470000BDE80840FFF78CBD003C0140283C00207C
:10471000164B10B55C6904F478725A61A30604D58F
:10472000134A936A0BB1D06A9847600604D5104AC1
:10473000136B0BB1506B9847210604D50C4A936B51
:104740000BB1D06B9847E20504D5094A136C0BB145
:10475000506C9847A30504D5054A936C0BB1D06CF7
:104760009847BDE81040FFF75BBD00BF003C01402B
:10477000283C0020194B10B55C6904F47C425A6156
:10478000620504D5164A136D0BB1506D9847230589
:1047900004D5134A936D0BB1D06D9847E00404D54E
:1047A0000F4A136E0BB1506E9847A10404D50C4A02
:1047B000936E0BB1D06E9847620404D5084A136F0C
:1047C0000BB1506F9847230404D5054A936F0BB182
:1047D000D06F9847BDE81040FFF722BD003C014074
:1047E000283C002008B50348FEF79CFDBDE80840C2
:1047F000FFF716BD0C37002008B5FFF753FEBDE8E4
:104800000840FFF70DBD0000062108B50846FEF779
:104810000BFE06210720FEF707FE06210820FEF703
:1048200003FE06210920FEF7FFFD06210A20FEF700
:10483000FBFD06211720FEF7F7FD06212820FEF7D5
:10484000F3FD07211C20FEF7EFFDBDE808400C2119
:104850002520FEF7E9BD000008B5FFF737FE00F0A0
:104860000BF8FEF7F7FDFEF7FBFFFFF7F5FDBDE8E0
:104870000840FFF721BD00000023054A1946013317
:10488000102BC2E9001102F10802F8D1704700BFF5
:10489000283C002010B501390244904201D100208B
:1048A00005E0037811F8014FA34201D0181B10BD99
:1048B0000130F2E72DE9F041A3B1C91A177801449C
:1048C000044603F1FF3C8C42204601D9002009E058
:1048D0000578BD4204F10104F5D10CEB0405D618AE
:1048E000A54201D1BDE8F08115F8018D16F801ED62
:1048F000F045F5D0E7E70000034611F8012B03F877
:10490000012B002AF9D1704755534246342D4341BB
:104910004E00000053544D3332463F3F3F00535446
:104920004D3332463430780053544D3332463432AE
:10493000780053544D333246343436585800000012
:10494000012033000010410001105A0003105900EB
:104950000710310000000000144900081304000093
:104960001E4900081904000028490008210400001D
:104970003249000840A2E4F1646891060041A3E5D1
:10498000F265699207000000009600000000000038
:104990000000000000000000000000000000000017
:1049A000213800080D38000849380008353800085B
:1049B000413800082D38000819380008053800086B
:1049C0005538000863300000C4490008D039002081
:1049D000E03B0020004000000040000000400000DC
:1049E0000040000000000100000002000000020082
:1049F00000000200000002000000020000000200AF
:104A0000000002006D61696E0069646C6500000061
:104A10000000A82A00000000AAAAAAAA00001424E4
:104A2000FFFF000000000000709709000000000078
:104A300000000000AAAAAAAA00000000FFFF0000D0
:104A40000000000000000000000004000000000062
:104A5000AAAAAAAA00000000FFFD000000000000B2
:104A6000000000000000000000000000AAAAAAAA9E
:104A700000000000FFFF0000000000000000000038
:104A80000000000000000000AAAAAAAA000000007E
:104A9000FFFF000000000000000000000000000018
:104AA00000000000AAAAAAAA00000000FFFF000060
:104AB00000000000000000000000000000000000F6
:104AC000AAAAAAAA00000000FFFF00000000000040
:104AD0000000000000000000000000000A000000CC
:104AE00000000000030000000000000000000000C3
:104AF00000000000000000000000000000000000B6
:104B000000000000000000000000000000000000A5
:104B1000F60300000000000000000F00000000008D
:104B2000640000000000000040420F00FE2A010067
:0C4B3000D2040000FF0000000C37002041
:00000001FF
