:020000040800F2
:1000000000060020E1010008E3010008E301000808
:10001000E3010008E3010008E3010008E301000830
:10002000E3010008E3010008E3010008811C000867
:10003000E3010008E3010008E3010008E301000810
:10004000E3010008E3010008E3010008E301000800
:10005000E3010008E3010008291F0008511F000800
:10006000791F0008A11F0008C91F0008E30100084C
:10007000E3010008E3010008E3010008E3010008D0
:10008000E3010008E3010008E3010008E3010008C0
:10009000E3010008E3010008E3010008F11F000884
:1000A000E3010008E3010008E3010008E3010008A0
:1000B000D9200008E3010008E3010008E30100087B
:1000C000E3010008E3010008E3010008E301000880
:1000D000E3010008C5200008E3010008E30100086F
:1000E00055200008E3010008E3010008E3010008CF
:1000F000E3010008E3010008E3010008E301000850
:10010000E3010008E3010008E3010008E30100083F
:10011000E3010008E3010008E3010008E30100082F
:10012000E3010008E3010008E3010008E30100081F
:10013000E3010008E3010008E3010008E30100080F
:10014000E3010008E3010008E3010008E3010008FF
:10015000E3010008E3010008E3010008E3010008EF
:10016000E3010008E3010008E3010008E3010008DF
:10017000E3010008E3010008E3010008E3010008CF
:10018000E3010008E3010008E3010008E3010008BF
:10019000E3010008E3010008E3010008E3010008AF
:1001A000E3010008E3010008E3010008E30100089F
:1001B000E3010008E3010008E3010008E30100088F
:1001C000E3010008E3010008E3010008E30100087F
:1001D000E3010008E3010008E3010008E30100086F
:1001E00002E000F000F8FEE772B6374880F30888B6
:1001F000364880F3098836483649086040F20000E6
:10020000CCF200004EF63471CEF200010860BFF36C
:100210004F8FBFF36F8F40F20000C0F2F0004EF638
:100220008851CEF200010860BFF34F8FBFF36F8F8C
:100230004FF00000E1EE100A4EF63C71CEF20001E4
:100240000860062080F31488BFF36F8F01F024FC50
:1002500001F0B6FC4FF055301F491B4A91423CBF9C
:1002600041F8040BFAE71D49184A91423CBF41F896
:10027000040BFAE71A491B4A1B4B9A423EBF51F83E
:10028000040B42F8040BF8E700201849184A914281
:100290003CBF41F8040BFAE701F002FC01F0E4FC7A
:1002A000144C154DAC4203DA54F8041B8847F9E7A7
:1002B00000F042F8114C124DAC4203DA54F8041B22
:1002C0008847F9E701F0EABB000600200022002081
:1002D0000000000808ED00E00000002000060020FB
:1002E000802300080022002018220020182200206D
:1002F0001C290020E0010008E0010008E0010008DE
:10030000E00100082DE9F04F2DED108AC1F80CD066
:10031000C3689D46BDEC108ABDE8F08F002383F3CF
:1003200011882846A047002001F0C2F8FEE701F03E
:100330005BF800DFFEE7000038B500F0B5FB01F028
:100340007BFB054601F09EFB0446C8B90E4B9D425F
:1003500018D001339D4218BF044641F2883504BFCE
:1003600001240025002001F071FB0CB100F074F8AD
:1003700000F0B6FC284600F0B1F800F06DF8F9E79F
:100380000025EFE70546EDE7010007B008B500F0EE
:1003900057FBA0F120035842584108BD07B541F270
:1003A0001203022101A8ADF8043000F067FB03B08E
:1003B0005DF804FB38B5302383F3118817480368D0
:1003C0000BB101F033F9164A144800234FF47A7147
:1003D00001F022F9002383F31188124C236813B132
:1003E0002368013B2360636813B16368013B63606A
:1003F0000D4D2B7833B963687BB9022000F00EFCF9
:10040000322363602B78032B07D163682BB902205A
:1004100000F004FC4FF47A73636038BD18220020AA
:10042000B50300083823002030220020084B187044
:1004300003280CD8DFE800F008050208022000F0CD
:10044000EBBB022000F0E6BB024B00225A60704773
:1004500030220020382300201B4B1C4A10B51C46BC
:10046000196801312ED004339342F9D16268184BD8
:100470009A4227D9174B9B6803F1006303F5803339
:100480009A421FD2002000F029FB0220FFF7CEFF86
:10049000114B1A6C00221A64196E1A66196E596C87
:1004A0005A64596E5A665B6E72B64FF0E023302183
:1004B000C3F8084DD4E9003281F311889D4683F3D7
:1004C0000888104710BD00BF000001082000010887
:1004D000FFFF000800220020003802402DE9F04F05
:1004E00093B0AA4B00902022FF210AA89D6800F03B
:1004F000A1FBA74A1378A3B9A64801210360117094
:10050000302383F3118803680BB101F08FF8A24AFE
:10051000A04800234FF47A7101F07EF8002383F3A2
:100520001188009B13B19D4B009A1A609C4A009C55
:100530001378032B1EBF00231370984A4FF0000A54
:1005400018BF5360D3465646D146012000F064FBE5
:1005500024B1924B1B68002B00F01182002000F0A8
:100560006FFA0390039B002BF2DB012000F052FB9B
:10057000039B213B162BE8D801A252F823F000BFC1
:10058000DD05000805060008990600084B0500086F
:100590004B0500084B05000823070008F308000876
:1005A0000D0800086F08000897080008BD0800083B
:1005B0004B050008CF0800084B050008410900085A
:1005C0007D0600084B05000885090008E9050008BC
:1005D0007D0600084B0500086F0800080220FFF7A1
:1005E000D5FE002840F0F581009B0221BAF1000FF2
:1005F00008BF1C4605A841F21233ADF8143000F0D4
:100600003DFAA2E74FF47A7000F01AFA071EEBDB0E
:100610000220FFF7BBFE0028E6D0013F052F00F2C5
:10062000DA81DFE807F0030A0D101336052305937E
:10063000042105A800F022FA17E054480421F9E744
:1006400058480421F6E758480421F3E74FF01C0806
:10065000404600F045FA08F104080590042105A879
:1006600000F00CFAB8F12C0FF2D1012000FA07F7D4
:1006700047EA0B0B5FFA8BFB4FF0000900F026FBFB
:1006800026B10BF00B030B2B08BF0024FFF786FEEF
:100690005BE746480421CDE7002EA5D00BF00B0305
:1006A0000B2BA1D10220FFF771FE074600289BD03B
:1006B000012000F013FA0220FFF7B8FE00261FFA0F
:1006C00086F8404600F01AFA044690B100214046F0
:1006D00000F024FA01360028F1D1BA46044641F26E
:1006E0001213022105A8ADF814303E4600F0C6F9F9
:1006F0002BE70120FFF79AFE2546244B9B68AB426F
:1007000007D9284600F0ECF9013040F06781043544
:10071000F3E7234B00251D70204BBA465D603E4633
:10072000ACE7002E3FF460AF0BF00B030B2B7FF414
:100730005BAF0220FFF77AFE322000F081F9B0F1C2
:100740000008FFF651AF18F003077FF44DAF0F4AD2
:10075000926808EB050393423FF646AFB8F5807FF9
:100760003FF742AF124B0193B84523DD4FF47A7047
:1007700000F066F90390039A002AFFF635AF019B5B
:10078000039A03F8012B0137EDE700BF0022002098
:100790003423002018220020B5030008382300204D
:1007A0003022002004220020082200200C220020F9
:1007B00034220020C820FFF7E9FD074600283FF457
:1007C00013AF1F2D11D8C5F1200242450AAB25F009
:1007D000030028BF424683490192184400F020FAE2
:1007E000019A8048FF2100F025FA4FEAA8037D49CD
:1007F0000193C8F38702284600F024FA0646002831
:100800003FF46DAF019B05EB830537E70220FFF74F
:10081000BDFD00283FF4E8AE00F0ACF900283FF43D
:10082000E3AE0027B846704B9B68BB4218D91F2F18
:1008300011D80A9B01330ED027F0030312AA1344E8
:1008400053F8203C05934046042205A900F06EFAB7
:1008500004378046E7E7384600F042F90590F2E7B2
:10086000CDF81480042105A800F008F906E700235C
:10087000642104A8049300F0F7F800287FF4B4AED4
:100880000220FFF783FD00283FF4AEAE049800F08D
:1008900059F90590E6E70023642104A8049300F0C9
:1008A000E3F800287FF4A0AE0220FFF76FFD0028D8
:1008B0003FF49AAE049800F055F9EAE70220FFF7FA
:1008C00065FD00283FF490AE00F064F9E1E70220F6
:1008D000FFF75CFD00283FF487AE05A9142000F067
:1008E0005FF904210746049004A800F0C7F83946D0
:1008F000B9E7322000F0A4F8071EFFF675AEBB077B
:100900007FF472AE384A926807EB090393423FF6D0
:100910006BAE0220FFF73AFD00283FF465AE27F0EA
:1009200003074F44B9453FF4A9AE484600F0D8F854
:100930000421059005A800F0A1F809F10409F1E7E8
:100940004FF47A70FFF722FD00283FF44DAE00F01F
:1009500011F9002844D00A9B01330BD008220AA9C0
:10096000002000F06FF900283AD02022FF210AA8C9
:1009700000F060F9FFF712FD1C4800F09FFD13B076
:10098000BDE8F08F002E3FF42FAE0BF00B030B2BC6
:100990007FF42AAE0023642105A8059300F064F8D3
:1009A000074600287FF420AE0220FFF7EFFC8046C8
:1009B00000283FF419AEFFF7F1FC41F2883000F057
:1009C0007DFD059800F098F9464600F07FF93C4619
:1009D000BBE5064652E64FF0000905E6BA467EE65C
:1009E00037467CE63422002000220020A086010049
:1009F00070B5104B1B780133DBB2012B0C4612D8BB
:100A00000D4B1D6829684FF47A730E6AA2FB0332FE
:100A1000014622462846B047844204D1074B0022B3
:100A20001A70012070BD4FF4FA7000F047FD0020ED
:100A3000F8E700BF102200201422002080230020AD
:100A400007B50023024601210DF107008DF807309C
:100A5000FFF7CEFF20B19DF8070003B05DF804FB5F
:100A60004FF0FF30F9E700000A4608B50421FFF710
:100A7000BFFF80F00100C0B2404208BD30B4074B58
:100A80000A461978064B53F821402368DD69054B67
:100A90000146AC46204630BC604700BF80230020A2
:100AA00014220020A086010070B500F0CBFE094E94
:100AB000094D3080002428683388834208D900F02B
:100AC000BBFE2B6804440133B4F5803F2B60F2D3A6
:100AD00070BD00BF822300204023002000F060BFD3
:100AE00000F1006000F580300068704700F10060A0
:100AF000920000F5803000F0EBBE0000054B1A6854
:100B0000054B1B889B1A834202D9104400F094BE07
:100B100000207047402300208223002038B5084D74
:100B2000044629B128682044BDE8384000F0A4BE3E
:100B30002868204400F088FE0028F3D038BD00BFAC
:100B40004023002010F003030AD1B0F5047F05D242
:100B500000F10050A0F51040D0F80038184670475A
:100B60000023FBE700F10050A0F51040D0F8100A78
:100B700070470000064991F8243033B10023086A19
:100B800081F824300822FFF7B1BF0120704700BF71
:100B900044230020014B1868704700BF002004E088
:100BA00070B5194B1D68194B0138C5F30B04084487
:100BB0002D0C04221E88A6420BD15C680A46013C1B
:100BC000824213460FD214F9016F4EB102F8016B45
:100BD000F6E7013A03F10803ECD181420B4602D259
:100BE0002C2203F8012B0A4A05241688AE4204D1B0
:100BF000984284BF967803F8016B013C02F104022D
:100C0000F3D1581A70BD00BF002004E0DC210008B9
:100C1000C8210008704700007047000070470000BE
:100C200010B50023934203D0CC5CC4540133F9E7E0
:100C300010BD000002440346934202D003F8011B9A
:100C4000FAE770472DE9F8431F4D144695F8242024
:100C50000746884652BBDFF870909CB395F8243065
:100C60002BB92022FF2148462F62FFF7E3FF95F8BA
:100C70002400C0F10802A24228BF2246D6B2414653
:100C8000920005EB8000FFF7CBFF95F82430A41B02
:100C90001E44F6B2082E17449044E4B285F824604E
:100CA000DBD1FFF767FF0028D7D108E02B6A03EB01
:100CB00082038342CFD0FFF75DFF0028CBD1002015
:100CC000BDE8F8830120FBE744230020024B1A789B
:100CD000024B1A70704700BF8023002010220020B2
:100CE00003494FF4E1330B60024B186800F0E2BA9D
:100CF0006C23002014220020094B10B51422044656
:100D000000211846FFF796FF064A074B1278046049
:100D10000146BDE8104053F8220000F0CBBA00BFF6
:100D20006C230020802300201422002030B5094DC0
:100D30000A4491420DD011F8013B5840082340F37A
:100D40000004013B2C4013F0FF0384EA5000F6D16D
:100D5000EFE730BD2083B8ED0268436811430160BE
:100D600003B1184770470000024AD36843F0C0033C
:100D7000D36070470010014010B5084C084A0021AC
:100D8000204600F075FA074BC4F85C3203F1454386
:100D900003F52D43C4F8603210BD00BF842300204A
:100DA000690D000800100140234A037C002918BF88
:100DB0000A46012B30B5C0F868220CD11F4B98426F
:100DC00009D11F4B596C41F010015964596E41F023
:100DD000100159665B6EB2F904501468D0F86032A5
:100DE000D0F85C12002D03EB5403B3FBF4F3BEBF49
:100DF00023F0070503F0070343EA450394888B605B
:100E0000D38843F040030B61138943F001034B6126
:100E100044F4045343F02C03CB6004F4A0540023A7
:100E20000B60B4F5806F0B684B680CBF7F23FF230A
:100E300080F8643230BD00BFFC210008842300200C
:100E4000003802402DE9F041D0F85C62F768336861
:100E5000DA0504469DB20DD5302383F311884FF493
:100E600080610430FFF778FF6FF4807333600023F4
:100E700083F31188302383F3118804F1040815F0FB
:100E80002F033AD183F31188380615D5290613D5D7
:100E9000302383F3118804F1380000F065F900284D
:100EA0004EDA0821201DFFF757FF4FF67F733B40B6
:100EB000F360002383F311887A0616D56B0614D5E8
:100EC000302383F31188D4E913239A420AD1236C87
:100ED00043B127F040073F041021201D3F0CFFF7CE
:100EE0003BFFF760002383F31188D4F86822D368AE
:100EF00043B3BDE8F041106918472B0714D015F033
:100F0000080F0CBF00214FF48071E80748BF41F083
:100F10002001AA0748BF41F040016B0748BF41F0DC
:100F200080014046FFF718FFAD06736805D594F8B9
:100F300064122046194000F0CBF93568ADB29EE747
:100F40007060B6E7BDE8F081F8B5154682680669BD
:100F5000AA420B46816938BF8568761AB5420446B5
:100F60000BD218462A46FFF75BFEA3692B44A36108
:100F7000A3685B1BA3602846F8BD0CD9184632460F
:100F8000FFF74EFEAF1BE1683A463044FFF748FEDC
:100F9000E3683B44EBE718462A46FFF741FEE36867
:100FA000E5E7000083689342F7B51546044638BF6D
:100FB0008568D0E90460361AB5420BD22A46FFF79D
:100FC0002FFE63692B446361A36828465B1BA36003
:100FD00003B0F0BD0DD932460191FFF721FE019912
:100FE000E068AF1B3A463144FFF71AFEE3683B4422
:100FF000E9E72A46FFF714FEE368E4E710B50A4480
:101000000024C361029B8460C0E90000C0E90511AF
:10101000C1600261036210BD08B5D0E90532934298
:1010200001D1826882B98268013282605A1C4261B1
:101030001970D0E904329A4224BFC3684361002189
:1010400000F058FA002008BD4FF0FF30FBE7000029
:1010500070B5302304460E4683F31188A568A5B108
:10106000A368A269013BA360531CA36115782269A0
:10107000934224BFE368A361E3690BB1204698471C
:10108000002383F31188284607E03146204600F00C
:1010900021FA0028E2DA85F3118870BD2DE9F74FB7
:1010A00004460E4617469846D0F81C904FF0300A7A
:1010B0008AF311884FF0000B154665B12A46314678
:1010C0002046FFF741FF034660B94146204600F045
:1010D00001FA0028F1D0002383F31188781B03B0B4
:1010E000BDE8F08FB9F1000F03D001902046C8474A
:1010F000019B8BF31188ED1A1E448AF31188DCE7FB
:10110000C0E90511C160C3611144009B8260C0E960
:101110000000016103627047F8B504460D461646AB
:10112000302383F31188A768A7B1A368013BA360AC
:1011300063695A1C62611D70D4E904329A4224BF6B
:10114000E3686361E3690BB120469847002080F3B0
:10115000118807E03146204600F0BCF90028E2DAA9
:1011600087F31188F8BD0000D0E905239A4210B535
:1011700001D182687AB98268013282605A1C826128
:101180001C7803699A4224BFC3688361002100F080
:10119000B1F9204610BD4FF0FF30FBE72DE9F74FC6
:1011A00004460E4617469846D0F81C904FF0300A79
:1011B0008AF311884FF0000B154665B12A46314677
:1011C0002046FFF7EFFE034660B94146204600F097
:1011D00081F90028F1D0002383F31188781B03B034
:1011E000BDE8F08FB9F1000F03D001902046C84749
:1011F000019B8BF31188ED1A1E448AF31188DCE7FA
:10120000026843681143016003B11847704700004A
:101210001430FFF743BF00004FF0FF331430FFF7E7
:101220003DBF00003830FFF7B9BF00004FF0FF337B
:101230003830FFF7B3BF00001430FFF709BF0000DC
:101240004FF0FF311430FFF703BF00003830FFF7D5
:1012500063BF00004FF0FF323830FFF75DBF000082
:10126000012914BF6FF0130000207047FFF784BD01
:1012700037B515460E4A026000224260C0E90222DC
:101280000122044602740B46009000F15C014FF409
:1012900080721430FFF7B2FE00942B464FF4807238
:1012A00004F5AE7104F13800FFF72AFF03B030BD3A
:1012B0001022000810B53023044683F31188FFF78D
:1012C00073FD02232374002080F3118810BD0000F9
:1012D00038B5C36904460D461BB904210844FFF71D
:1012E0008FFF294604F11400FFF796FE002806DA66
:1012F000201D4FF40061BDE83840FFF781BF38BDC5
:1013000000230375826803691B6899689142FBD2C8
:101310005A6803604260106058607047002303758C
:10132000826803691B6899689142FBD85A68036018
:10133000426010605860704708B50846302383F358
:1013400011880B7D032B05D0042B0DD02BB983F313
:10135000118808BD8B6900221A604FF0FF3383614A
:10136000FFF7CEFF0023F2E7D1E9003213605A60A5
:10137000F3E70000FFF7C4BF054BD968087518688C
:1013800002681A60536001220275D860FEF7BABF86
:10139000F025002030B50C4BDD684B1C87B00446AF
:1013A0000FD02B46094A684600F036F92046FFF771
:1013B000E3FF009B13B1684600F038F9A86907B055
:1013C00030BDFFF7D9FFF9E7F025002039130008F9
:1013D000044B1A68DB6890689B68984294BF0020B1
:1013E00001207047F0250020084B10B51C68D86814
:1013F00022681A60536001222275DC60FFF78EFFBD
:1014000001462046BDE81040FEF77CBFF0250020D5
:1014100038B5074C0749084801230025237065604B
:1014200000F076FB0223237085F3118838BD00BFDE
:10143000582800203C220008F025002000F02CB99C
:101440008B60022308618B82084670478368A3F192
:10145000840243F8142C026943F8442C426943F88F
:10146000402C094A43F8242CC26843F8182C022265
:1014700003F80C2C002203F80B2C044A43F8102C20
:10148000A3F12000704700BF1D030008F0250020D5
:1014900008B5FFF7DBFFBDE80840FFF76BBF0000B2
:1014A000024BDB6898610F20FFF766BFF025002034
:1014B000302383F31188FFF7F3BF000008B501461E
:1014C000302383F311880820FFF764FF002383F3A0
:1014D000118808BD064BDB6839B1426818605A6054
:1014E000136043600420FFF755BF4FF0FF30704793
:1014F000F02500200368984206D01A680260506008
:1015000099611846FFF736BF7047000010B50368B1
:101510009C68A2420CD85C688A600B604C602160B9
:10152000596099688A1A9A604FF0FF33836010BD42
:101530001B68121BECE700000A2938BF0A2170B5AE
:1015400004460D460A26601900F0DCFA00F0C8FADD
:10155000041BA54203D8751C2E460446F3E70A2E49
:1015600004D9BDE87040012000F012BB70BD00003E
:10157000F8B5144B0D46D96103F1100141600A2AF8
:101580001969826038BF0A22016048601861A81892
:10159000144600F0A9FA0A2700F0A2FA431BA3425E
:1015A000064606D37C1C281900F0ACFA27463546BF
:1015B000F2E70A2F04D9BDE8F840012000F0E8BAAC
:1015C000F8BD00BFF0250020F8B506460D4600F036
:1015D00087FA0F4A134653F8107F9F4206D12A46D6
:1015E00001463046BDE8F840FFF7C2BFD169BB688D
:1015F000441A2C1928BF2C46A34202D92946FFF7CA
:101600009BFF224631460348BDE8F840FFF77EBF06
:10161000F02500200026002010B4C0E90323002399
:101620005DF8044B4361FFF7CFBF000010B5194CC4
:10163000236998420DD0D0E90032816813605A6066
:101640009A680A449A60002303604FF0FF33A36155
:1016500010BD2346026843F8102F53600022026039
:1016600022699A4203D1BDE8104000F045BA936860
:1016700081680B44936000F033FA2269E169926853
:10168000441AA242E4D91144BDE81040091AFFF7F8
:1016900053BF00BFF02500202DE9F047DFF8BC80E4
:1016A00008F110072C4ED8F8105000F019FAD8F8AD
:1016B0001C40AA68031B9A423ED81444D5E9003264
:1016C0004FF00009C8F81C4013605A60C5F800903C
:1016D000D8F81030B34201D100F00EFA89F3118826
:1016E000D5E9033128469847302383F311886B6985
:1016F000002BD8D000F0F4F96A69A0EB04094A4540
:1017000082460DD2022000F043FA0022D8F81030B1
:10171000B34208D151462846BDE8F047FFF728BF3D
:10172000121A2244F2E712EB090938BF4A46294649
:101730003846FFF7EBFEB5E7D8F81030B34208D0D3
:101740001444211AC8F81C00A960BDE8F047FFF74F
:10175000F3BEBDE8F08700BF00260020F025002082
:1017600000207047FEE70000704700004FF0FF3098
:1017700070470000BFF34F8F024AD368DB03FCD4ED
:10178000704700BF003C024008B5094B1B7873B995
:10179000FFF7F0FF074B1A69002ABFBF064A5A60DD
:1017A00002F188325A601A6822F480621A6008BD19
:1017B00060280020003C02402301674508B50B4B20
:1017C0001B7893B9FFF7D6FF094B1A6942F0004224
:1017D0001A611A6842F480521A601A6822F4805220
:1017E0001A601A6842F480621A6008BD60280020FE
:1017F000003C02400B28F0B516D80C4C0C4923785D
:101800007BB90C4D0E460C234FF0006255F8047B5B
:1018100046F8042B013B13F0FF033A44F6D10123B1
:10182000237051F82000F0BD0020FCE79428002030
:101830006428002048220008014B53F8200070471C
:10184000482200080C2070470B2810B5044601D927
:10185000002010BDFFF7CEFF064B53F8243018448C
:10186000C21A0BB90120F4E712680132F0D1043B2F
:10187000F6E700BF482200080B2810B5044621D81F
:10188000FFF778FFFFF780FF0F4AF323D360C30011
:10189000DBB243F4007343F002031361136943F4B2
:1018A00080331361FFF766FFFFF7A4FF074B53F880
:1018B000241000F0D9F8FFF781FF2046BDE8104062
:1018C000FFF7C2BF002010BD003C024048220008C4
:1018D000F8B512F00103144642D18218B2F1016F3B
:1018E00057D82D4B1B6813F0010352D02B4DFFF737
:1018F0004BFFF323EB60FFF73DFF40F20127032C82
:1019000015D824F001046618244C401A40F201173F
:10191000B142236900EB010524D123F001032361C7
:10192000FFF74CFF0120F8BD043C0430E7E78307D4
:10193000E7D12B6923F440732B612B693B432B6167
:1019400051F8046B0660BFF34F8FFFF713FF036876
:101950009E42E9D02B6923F001032B61FFF72EFF94
:101960000020E0E723F44073236123693B432361B4
:101970000B882B80BFF34F8FFFF7FCFE2D8831F8CB
:10198000023BADB2AB42C3D0236923F00103236114
:10199000E4E71846C7E700BF00380240003C0240B9
:1019A000084908B50B7828B11BB9FFF7EDFE0123F4
:1019B0000B7008BD002BFCD0BDE808400870FFF795
:1019C000FDBE00BF6028002010B50244064BD2B215
:1019D000904200D110BD441C00B253F8200041F8E1
:1019E000040BE0B2F4E700BF502800400F4B30B5C5
:1019F0001C6F240407D41C6F44F400741C671C6F14
:101A000044F400441C670A4C236843F48073236049
:101A10000244084BD2B2904200D130BD441C00B207
:101A200051F8045B43F82050E0B2F4E7003802407C
:101A3000007000405028004007B5012201A9002095
:101A4000FFF7C2FF019803B05DF804FB13B504462D
:101A5000FFF7F2FFA04205D0012201A90020019466
:101A6000FFF7C4FF02B010BD70470000034B1A68B7
:101A70001AB9034AD2F874281A60704798280020CF
:101A80000030024008B5FFF7F1FF024B1868C0F3C1
:101A9000407008BD9828002070470000FEE7000055
:101AA0000A4B0B480B4A90420BD30B4BDA1C121A11
:101AB000C11E22F003028B4238BF00220021FFF733
:101AC000B9B853F8041B40F8041BECE7982300084E
:101AD0001C2900201C2900201C29002000F02EB900
:101AE0004FF08043586A70474FF08043002258639C
:101AF0001A610222DA6070474FF080430022DA60F8
:101B0000704700004FF0804358637047FEE70000C5
:101B100070B51B4B01630025044686B05860856292
:101B20000E4600F0BDF804F11003C4E904334FF091
:101B3000FF33C4E90635C4E90044A560E562FFF758
:101B4000CFFF2B460246C4E9082304F134010D4AB5
:101B5000256580232046FFF773FC0123E0600A4AD5
:101B60000375009272680192B268CDE90223074BB7
:101B70006846CDE90435FFF78BFC06B070BD00BFA9
:101B800058280020782200087D2200080D1B00083C
:101B9000024AD36A1843D062704700BFF025002084
:101BA0004B6843608B688360CB68C3600B6943619B
:101BB0004B6903628B6943620B68036070470000E6
:101BC00008B5264B26481A6940F2FF110A431A61EC
:101BD0001A6922F4FF7222F001021A611A691A6B63
:101BE0000A431A631A6D0A431A651E4A1B6D114691
:101BF000FFF7D6FF02F11C0100F58060FFF7D0FF70
:101C000002F1380100F58060FFF7CAFF02F15401CC
:101C100000F58060FFF7C4FF02F1700100F58060FD
:101C2000FFF7BEFF02F18C0100F58060FFF7B8FFFF
:101C300002F1A80100F58060FFF7B2FF02F1C401D4
:101C400000F58060FFF7ACFF02F1E00100F5806075
:101C5000FFF7A6FFBDE8084000F0ECB800380240EE
:101C6000000002408422000808B500F07BFAFFF76C
:101C7000CFFBBDE80840FFF7F9BE00007047000049
:101C8000EFF3098305494A6B22F001024A63683386
:101C900083F30988002383F31188704700EF00E085
:101CA000302080F3118862B60C4B0D4AD96821F4BC
:101CB000E0610904090C0A43DA60D3F8FC20094901
:101CC00042F08072C3F8FC200A6842F001020A6008
:101CD0002022DA7783F82200704700BF00ED00E091
:101CE0000003FA05001000E010B5302383F31188DB
:101CF0000E4B5B6813F4006314D0F1EE103AEFF36F
:101D00000984683C4FF08073E361094BDB6B236609
:101D100084F30988FFF75CFB10B1064BA36110BD8B
:101D2000054BFBE783F31188F9E700BF00ED00E006
:101D300000EF00E02F030008320300080F4B1A6C7D
:101D400042F001021A641A6E42F001021A660C4A4D
:101D50001B6E936843F0010393604FF0804353225E
:101D60009A624FF0FF32DA6200229A615A63DA60B7
:101D70005A6001225A611A60704700BF0038024061
:101D8000002004E04FF0804208B51169D3680B4091
:101D9000D9B2C9439B07116107D5302383F311885A
:101DA000FFF74CFB002383F3118808BD1F4B1A6912
:101DB0006FEAC2526FEAD2521A611A69C2F308027C
:101DC0001A614FF0FF301A695A69586100215A6947
:101DD00059615A691A6A62F080521A621A6A02F0EC
:101DE00080521A621A6A5A6A58625A6A59625A6A60
:101DF0001A6C42F080521A641A6E42F080521A66CF
:101E00001A6E0B4A106840F480701060186F00F46E
:101E10004070B0F5007F1EBF4FF48030186719671F
:101E2000536823F40073536000F05EB90038024039
:101E300000700040334B4FF080521A64324A4FF426
:101E4000404111601A6842F001021A601A68910755
:101E5000FCD59A6822F003029A602A4B9A6812F025
:101E60000C02FBD1196801F0F90119609A601A6837
:101E700042F480321A601A689203FCD55A6F42F01D
:101E800001025A671F4B5A6F9007FCD51F4A5A60D0
:101E90001A6842F080721A601B4A53685904FCD5D4
:101EA000184B1A689201FCD5194A9A60194B1A68A6
:101EB000194B9A42194B21D1194A1168194A91427A
:101EC0001CD140F205121A60144A136803F00F0384
:101ED000052BFAD10B4B9A6842F002029A609A687D
:101EE00002F00C02082AFAD15A6C42F480425A6479
:101EF0005A6E42F480425A665B6E704740F2057239
:101F0000E1E700BF0038024000700040085440077D
:101F100000948838002004E011640020003C024056
:101F200000ED00E041C20F41074A08B5536903F0D4
:101F30000103536123B1054A13680BB150689847F8
:101F4000BDE80840FFF7D0BE003C01409C280020BF
:101F5000074A08B5536903F00203536123B1054AE8
:101F600093680BB1D0689847BDE80840FFF7BCBE46
:101F7000003C01409C280020074A08B5536903F043
:101F80000403536123B1054A13690BB150699847A3
:101F9000BDE80840FFF7A8BE003C01409C28002097
:101FA000074A08B5536903F00803536123B1054A92
:101FB00093690BB1D0699847BDE80840FFF794BE1C
:101FC000003C01409C280020074A08B5536903F0F3
:101FD0001003536123B1054A136A0BB1506A984745
:101FE000BDE80840FFF780BE003C01409C2800206F
:101FF000164B10B55C6904F478725A61A30604D5D7
:10200000134A936A0BB1D06A9847600604D5104A08
:10201000136B0BB1506B9847210604D50C4A936B98
:102020000BB1D06B9847E20504D5094A136C0BB18C
:10203000506C9847A30504D5054A936C0BB1D06C3E
:102040009847BDE81040FFF74FBE00BF003C01407D
:102050009C280020194B10B55C6904F47C425A613D
:10206000620504D5164A136D0BB1506D98472305D0
:1020700004D5134A936D0BB1D06D9847E00404D595
:102080000F4A136E0BB1506E9847A10404D50C4A49
:10209000936E0BB1D06E9847620404D5084A136F53
:1020A0000BB1506F9847230404D5054A936F0BB1C9
:1020B000D06F9847BDE81040FFF716BE003C0140C6
:1020C0009C28002008B50348FEF7BCFEBDE8084088
:1020D000FFF70ABE8423002008B5FFF753FEBDE8D2
:1020E0000840FFF701BE0000062108B5084600F0D1
:1020F00023F80621072000F01FF80621082000F031
:102100001BF80621092000F017F806210A2000F02C
:1021100013F80621172000F00FF80621282000F000
:102120000BF807211C2000F007F8BDE808400C213F
:10213000252000F001B8000000F1604303F5614381
:102140000901C9B283F80013012200F01F039A406D
:1021500043099B0003F1604303F56143C3F8802109
:102160001A60704708B5FFF721FE00F009F8FFF785
:102170007DF8FFF783FDBDE80840FFF7AFBC000026
:102180000023054A19460133102BC2E9001102F160
:102190000802F8D1704700BF9C28002053544D33EB
:1021A00032463F3F3F0053544D333246343078007F
:1021B00053544D3332463432780053544D33324603
:1021C000343436585800000001203300001041001C
:1021D00001105A00031059000710310000000000E0
:1021E0009C21000813040000A62100081904000027
:1021F000B021000821040000BA2100080096000068
:1022000000000000000000000000000000000000CE
:10221000000000002D1200081912000855120008D5
:10222000411200084D12000839120008251200085A
:102230001112000861120008633000003822000803
:1022400048260020582800200040000000400000E0
:1022500000400000004000000000010000000200FB
:102260000000020000000200000002000000020066
:1022700000000200000002006D61696E0069646C7C
:10228000650000000000280000000000AAAAAAAA19
:1022900000001400FFFF00000000000070070000B5
:1022A0000000000000000000AAAAAAAA0000000086
:1022B000FFFF000000000000000000000000000020
:1022C00000000000AAAAAAAA00000000FFFF000068
:1022D00000000000000000000000000000000000FE
:1022E000AAAAAAAA00000000FFFF00000000000048
:1022F000000000000000000000000000AAAAAAAA36
:1023000000000000FFFF00000000000000000000CF
:102310000000000000000000AAAAAAAA0000000015
:10232000FFFF0000000000000000000000000000AF
:1023300000000000AAAAAAAA00000000FFFF0000F7
:10234000000000000000000000000000000000008D
:102350000A00000000000000030000000000000070
:10236000000000000000000000000000000000006D
:10237000000000000000000000000000000000005D
:10238000F60300000000000000000F000000000045
:08239000FF000000842300207F
:00000001FF
