:020000040800F2
:1000000000070020E101000845170008FD16000860
:1000100025170008FD1600081D170008E301000859
:10002000E3010008E3010008E3010008C53400080B
:10003000E3010008E3010008E3010008E301000810
:10004000E3010008E3010008E3010008E301000800
:10005000E3010008E3010008553900087D39000874
:10006000A5390008CD390008F5390008E30100087A
:10007000E3010008E3010008E3010008E3010008D0
:10008000E3010008E3010008E30100086927000814
:10009000D5270008292800087D2800081D3A0008F7
:1000A000E3010008E3010008E3010008E3010008A0
:1000B000413B0008E3010008E3010008E3010008F8
:1000C000E3010008E3010008E3010008E301000880
:1000D000E3010008F13A0008053B0008193B00085D
:1000E000813A0008E3010008E3010008E301000889
:1000F000E3010008E3010008E3010008E301000850
:10010000E3010008E3010008E3010008E30100083F
:10011000E3010008E3010008E3010008E30100082F
:10012000E3010008E3010008E3010008E30100081F
:10013000E3010008E3010008E3010008E30100080F
:10014000E3010008E3010008E3010008E3010008FF
:10015000E3010008E3010008E30100082D3B00086B
:10016000E3010008E3010008E3010008E3010008DF
:10017000E3010008E3010008E3010008E3010008CF
:10018000E3010008E3010008E3010008E3010008BF
:10019000E3010008E3010008E3010008E3010008AF
:1001A000E3010008E3010008E3010008E30100089F
:1001B000E3010008E3010008E3010008E30100088F
:1001C000E3010008E3010008E3010008E30100087F
:1001D000E3010008E3010008E3010008E30100086F
:1001E00002E000F000F8FEE772B6374880F30888B6
:1001F000364880F3098836483649086040F20000E6
:10020000CCF200004EF63471CEF200010860BFF36C
:100210004F8FBFF36F8F40F20000C0F2F0004EF638
:100220008851CEF200010860BFF34F8FBFF36F8F8C
:100230004FF00000E1EE100A4EF63C71CEF20001E4
:100240000860062080F31488BFF36F8F03F098F9DD
:1002500003F02AFA4FF055301F491B4A91423CBF28
:1002600041F8040BFAE71D49184A91423CBF41F896
:10027000040BFAE71A491B4A1B4B9A423EBF51F83E
:10028000040B42F8040BF8E700201849184A914281
:100290003CBF41F8040BFAE703F076F903F058FA93
:1002A000144C154DAC4203DA54F8041B8847F9E7A7
:1002B00000F042F8114C124DAC4203DA54F8041B22
:1002C0008847F9E703F05EB900070020002300200B
:1002D0000000000808ED00E00001002000070020F9
:1002E000704300080023002024230020282300203E
:1002F000B8420020E0010008E0010008E001000829
:10030000E00100082DE9F04F2DED108AC1F80CD066
:10031000C3689D46BDEC108ABDE8F08F002383F3CF
:1003200011882846A047002002F042FDFEE702F0B7
:10033000DBFC00DFFEE70000F8B500F037FE03F05D
:100340005FF8074603F0AAF80546C0BB294B9F4259
:1003500035D001339F4235D0274B27F0FF029A4218
:1003600033D1F8B200F0F6FB2E4642F2107400F0E2
:10037000F7FB08B10024264601F042F948B30320F8
:1003800000F03EF80024264635B11C4B9F4203D0B6
:1003900003F07CF800242646002003F03BF80EB161
:1003A00000F044F800F03EFC01F0CEF90546C4B977
:1003B00000F0ECFC4FF47A7002F000FDF7E72E46F7
:1003C0000024D4E704460126D1E7064641F28834EA
:1003D000CDE741F288339C4204BF4FF47A74012682
:1003E000D2E701F0B1F9431BA342E1D900F01EF8B6
:1003F000DAE700BF010007B0000008B0263A09B0F4
:10040000084B187003280CD8DFE800F00805020834
:10041000022000F029BE022000F01CBE024B002288
:100420005A607047282300202C23002010B501F0CB
:10043000E7F830B1204B03221A70204B00225A609B
:1004400010BD1F4B1F4A1C4619680131F8D00433F8
:100450009342F9D162681C4B9A42F1D91B4B9B68BD
:1004600003F1006303F580339A42E9D202F0E2FF20
:1004700002F0F4FF002000F0B3FD0220FFF7C0FF00
:10048000134B1A6C00221A64196E1A66196E596C95
:100490005A64596E5A665B6E72B64FF0E023302193
:1004A000C3F8084DD4E9003281F311889D4683F3E7
:1004B00008881047C4E700BF282300202C23002011
:1004C0000000010820000108FFFF000800230020B1
:1004D00000380240094A136849F2690099B21B0CBE
:1004E00000FB01331360064B186844F2506182B27E
:1004F000000C01FB0200186080B27047202300202E
:100500001C23002010B500211022044600F0C8FD75
:10051000034B03CB206061601868A06010BD00BF72
:10052000107AFF1FF0B5ADF54B7D68AC0D46064661
:100530004FF4C4720021204600F0B2FD01F004F92E
:10054000224B4FF47A72B0FBF2F0186093E8070088
:10055000022384E807000DF5E1702382FFF7D2FF44
:100560004FF203631A49238406A803F031FE0923DE
:1005700084F8323106AB03CB09AF1B78CDF8D30238
:10058000CDF8D7120122394620468DF8DB3200F033
:10059000D3FD00230393AB7E029305F1190301936E
:1005A00080B20123CDE904700093E97E05A3D3E96D
:1005B0000023304601F020FC0DF54B7DF0BD00BF5F
:1005C000AFF300809E6AC421818A46EE3423002066
:1005D000E04100082DE9F041264D2B7ADAB0804643
:1005E0000C46FBB927A9204600F0CCFE07460028A0
:1005F00036D19DF89D60C82E32D801464FF4FA726C
:10060000284600F04DFD32460DF19E0105F109002E
:1006100000F034FD2E449DF89C3077722B720BB99C
:10062000E37E2B728122002106AD27A800F038FD61
:100630000122294627A800F0EBFE00230393A37EA6
:10064000029304F1190380B201932823CDE90450E9
:100650000093E17E05A3D3E90023404601F0CCFBE3
:100660005AB0BDE8F08100BFAFF30080264172723E
:10067000DF25D7B77C330020F0B5254E4FF48A75BF
:1006800005FB0065F1B096F8D83085F8DC30002421
:10069000D822214685F8E8403AA800F001FD06F18D
:1006A000090000F0F5FCD5F8E4308DF8F000C2B296
:1006B00006AF06F109010DF1F100CDE93A3400F081
:1006C000DDFC394601223AA800F0D8FE80B2CDE91F
:1006D000047008230127CDE9023706F1D8030193FE
:1006E00030230093317A0B4807A3D3E9002301F0AC
:1006F00083FBA04206DD01F027F8C5F8E00038468C
:1007000071B0F0BD2046FBE778F6339F93CACD8DDC
:100710007C3300204C330020F0B51E4E1E4F1F4D81
:1007200085B0304601F094FB044660B310220021EE
:10073000684600F0B5FC227B6068A1684FF00003BA
:1007400062F303038DF8003002AB03C3019B226800
:1007500062F31C0301939DF8003043F020038DF8F1
:10076000003000236A461946384602F0F9F904467B
:1007700020B9304601F070FB2C70D2E72B78072BA4
:1007800003D801332B7005B0F0BD024801F064FBC3
:10079000F9E700BF4C330020A83500207535002054
:1007A00070B50D4614461E4601F082FA50B9022E6D
:1007B00010D1012C0ED112A3D3E90023C5E90023E7
:1007C000012007E0282C10D005D8012C09D0052CD9
:1007D0000FD0002070BD302CFBD10BA3D3E9002338
:1007E000ECE70BA3D3E90023E8E70BA3D3E900234D
:1007F000E4E70BA3D3E90023E0E700BFAFF30080F9
:10080000401DA12026812A0B78F6339F93CACD8DF7
:100810009E6AC421818A46EE26417272DF25D7B7CF
:10082000F017304A39059E5638B505460E4C002162
:10083000013500F0F7FBA4F8F051B4F8F00100F036
:10084000D9FB78B1B4F8F00100F0E4FB014648B9F7
:10085000B4F8F00100F0E6FBB4F8F0310133A4F88D
:10086000F031EAE738BD00BF7C3300202DE9F04FBE
:100870008DB000AF04460D4601F01AFA002849D1A8
:100880002B7E022B1BD1EB8A012B18D100F05CFFD1
:100890000646FFF71FFE03464FF4C870DFF8B0822C
:1008A000B3FBF0F206F5167602FB103316FA83F36B
:1008B000C8F80030EB7E33B99E4B00221A703437F3
:1008C000BD46BDE8F08F07F11C01284600F00EFD83
:1008D0000028F4D107F10C00FFF714FEBD7F07F1EB
:1008E0000C012A4607F11F0003F040FC0028E3D169
:1008F0000F2D08D88F4B1D70D8F80030A3F5167354
:10090000C8F80030DBE7397F0029D8D0204601F055
:10091000C7F9D4E7EB8A282B6CD010D8012B64D010
:10092000052BCCD1BFF34F8F8349844BCA6802F4A7
:10093000E0621343CB60BFF34F8F00BFFDE7302B66
:10094000BDD17F4CEA7E237A9A42B8D194F8DC205C
:100950006B7E9A4240F0E58004F1EA01284600F0FF
:10096000C1FD06460028AAD1012384F8E83000F032
:10097000EBFED4F8E030D4ED007ADFED726AC01AF5
:10098000192838BF192040F6B833984228BF1846B6
:10099000B8EE677A07EE900AF8EEE77A67EEA67A85
:1009A000DFED696AE7EE267AFCEEE77AC4ED007ABD
:1009B00094F8D9307B604FF48A7202FB03F5621918
:1009C000606892F8E83053B1D2F8E4308342E946E7
:1009D00015D0002382F8E830C2F8E030CD466368D5
:1009E0005A4A9B0A0133138169E729462046FFF7DB
:1009F00099FD64E729462046FFF7ECFD5FE7B2F872
:100A0000EC803B6008F1030A4FEA9A0A4FEA8A0237
:100A1000D11DC908A9EBC1039D46EB4600215846EC
:100A200000F03EFB05F1EE0142462144584600F03D
:100A300025FB3B6813B9012000F0D2FA94F8D200EC
:100A400000F0D8FA054630B9207200F0F3FA2846D3
:100A500000F0C6FAC2E7D4F8D4303BB994F8D2001B
:100A6000B4F8F031834201D8FFF7DEFED4F8D43079
:100A700043449D4208D294F8D200B4F8F0310130DA
:100A8000834201D8FFF7D0FE60685FFA8AF25946C8
:100A900000F00EFB08B9CD468AE7636894F8D200EF
:100AA00043446360D4F8D43008EB030AC4F8D4A0FC
:100AB00000F0A0FA824509D394F8D230D4F8D400DB
:100AC0000133401B84F8D230C4F8D400B8F1FF0FD2
:100AD0000FD80025257200F0ADFA284600F080FA04
:100AE00000F08EFD194B188108B9FFF79FFCCD4629
:100AF000E5E67B6894F8D9004FF48A7202FB034361
:100B0000D3F8E42083F8E86002F58072C3F8E0606F
:100B1000C3F8E420FFF7B0FDFFF7FEFD84F8D960CD
:100B2000B9E7236840F6B832FA33934294BF2360A2
:100B30002260C4E64533002000ED00E00400FA0521
:100B40007C330020CDCCCC3D6666663F342300204C
:100B500048330020014B1870704700BF402300202D
:100B600030B54FF00054264B22689A4285B017D119
:100B7000637DABB1234A24481370237D03720025A3
:100B80002249C0F8E450C922093000F077FA204623
:100B9000E022294600F084FA0124204605B030BD49
:100BA00002F086FC044608B90024F6E7184A194DFD
:100BB000136C43F000731364AA6D174B9A42F3D180
:100BC0002B6E013B7E2BEFD8144A07CA01AB83E89A
:100BD00007001846032100F0E1FC6B6D83424FF0E3
:100BE0000003E1D12A6D8A4201BFAB65054B2A6E35
:100BF0001A7003BF0A4BEA6D1A601C46CDE700BFAE
:100C00009AAD44C5402300207C330020160000200C
:100C100000380240006600405041A0B058660040D5
:100C2000182300202DE9FF474C4C00F0E9FC02237B
:100C30006371002302934A4B2081D3F800C0BCF5B6
:100C40007A7F12D3474B484FB7FBFCF69C458CBFCD
:100C50000A231123581EB6FBF3F503FB1562C1B23C
:100C6000002A3ED002280346F4D89DF80B303F49B5
:100C70003F485A1E9DF80A30013B1B0443EA0253C9
:100C8000BDF80820013A13434B6001F059FF0023DF
:100C90000193384B384900933848394B4FF4805210
:100CA00000F0D6FF374B197811B1344800F0F8FF47
:100CB00000F04AFD0546FFF70DFC4FF4C873B0FB8A
:100CC000F3F202FB130305F5167010FA83F02E4BB6
:100CD000186002F0E3FB08B10F23238104B0BDE8E4
:100CE000F0876B1EB3F5806FBFD2C1EBC10E0EF162
:100CF00003034FEAE309C3F3C703A1EB030809F1B8
:100D0000010A4FF47A705FFA88F609FB00005AFA7C
:100D100088F8B0FBF8F0B0F5617F08D90EF1FF3329
:100D2000C3F3C703C91ACEB2591E0F2914D8721EB5
:100D3000072A8CBF00220122991901FB0551B7FB3C
:100D4000F1F7BC4591D1002A8FD0ADF808508DF84D
:100D50000A308DF80B6088E71346EDE73423002056
:100D6000182300203F420F0080DE80021023002065
:100D7000A8350020A1070008442300204C330020A0
:100D80006D08000840230020483300202DE9F04F73
:100D90007EA7D7E900670FF2FC19D9E90089754DE4
:100DA00093B00DF1300AFFF7B7FC1822002150462E
:100DB00000F076F9DFF8E4B16F4C00231946524693
:100DC000584601F0F5FE014650BB102208A800F07D
:100DD00067F9636983F40073636100F0B7FC0B4645
:100DE00012A9024611E903000DF1240C8CE803005E
:100DF0009DF83410C1F3030089064CBF0E99BDF86D
:100E000038C08DF82C0046BFC1F31C0C4CF00041DB
:100E1000CCF30A010891284608A901F0FBF9CCE7B8
:100E2000284600F045FF0446002848D1DFF870B19D
:100E300000F08AFCDBF80030984240D300F084FCDC
:100E40000790FFF747FB079A8DF8204003464FF4C1
:100E5000C87002F51672B3FBF0F101FB103312FA01
:100E600083F3CBF80030DFF83CB19BF8001011B9E8
:100E700001238DF8203050460791FFF743FB079977
:100E8000C1F11004E4B2062C28BF062422465144C6
:100E90000DF1210000F0F2F808AB03931823029340
:100EA0000134364B0193E4B20123009304943B4692
:100EB0003246284600F042FF00238BF8003000F055
:100EC00043FC2F4A2F4C1368C31AB3F57A7F30D3F3
:100ED000106000F03BFC02460B46284600F0C6FFBF
:100EE000284600F0E5FE20B3237ADFF8BCB0002BE3
:100EF00014BF032302238BF8053000F025FC4FF4C8
:100F00007A730122B0FBF3F05146CBF8000058464B
:100F100000F0C4F9182302931B4B019380B240F2F6
:100F20005513CDE903A0009342464B46284600F0F6
:100F300005FF237A9BB100F007FC94F8E83073B901
:100F4000D4F8E03043B1C01A2368FA2B38BFFA2333
:100F50000533B0EB430F02D30020FFF78DFBC82011
:100F600001F02CFF237A002B7FF41BAF13B0BDE8F8
:100F7000F08F00BF4C3300200008024044330020B3
:100F8000703500207C33002074350020401DA120E6
:100F900026812A0BF1C6A7C1D068080FA83500200A
:100FA00048330020453300203423002070B502F080
:100FB000E7F8094E094D30800024286833888342C1
:100FC00008D902F0D7F82B6804440133B4F5803F08
:100FD0002B60F2D370BD00BFA4350020783500200F
:100FE00002F07CB900F10060920000F5803002F060
:100FF0000DB90000054B1A68054B1B889B1A8342EC
:1010000002D9104402F0B6B80020704778350020AD
:10101000A4350020024B1B68184402F0B3B800BF8F
:1010200078350020024B1B68184402F0C3B800BF9B
:1010300078350020064991F8243033B10023086A3E
:1010400081F824300822FFF7CDBF0120704700BF90
:101050007C350020022802BF024B4FF000729A61DB
:10106000704700BF00080240022802BF024B4FF445
:1010700000729A61704700BF0008024010B500235B
:10108000934203D0CC5CC4540133F9E710BD000097
:1010900003460246D01A12F9011B0029FAD1704703
:1010A00002440346934202D003F8011BFAE770475B
:1010B0002DE9F8431F4D144695F82420074688462D
:1010C00052BBDFF870909CB395F824302BB92022E6
:1010D000FF2148462F62FFF7E3FF95F82400C0F197
:1010E0000802A24228BF2246D6B24146920005EB32
:1010F0008000FFF7C3FF95F82430A41B1E44F6B20E
:10110000082E17449044E4B285F82460DBD1FFF741
:1011100091FF0028D7D108E02B6A03EB82038342BA
:10112000CFD0FFF787FF0028CBD10020BDE8F883A0
:101130000120FBE77C3500202DE9F3470D460446EE
:1011400000219046284640F27912FFF7A9FF234676
:1011500020220021284600F0FFFF231D022220212B
:10116000284600F0F9FF631D03222221284600F0E3
:10117000F3FFA31D03222521284600F0EDFF04F113
:10118000080310222821284600F0E6FF04F110038E
:1011900008223821284600F0DFFF04F1110308225D
:1011A0004021284600F0D8FF04F11203082248210C
:1011B000284600F0D1FF04F11403202250212846D4
:1011C00000F0CAFF04F1180340227021284600F005
:1011D000C3FF04F120030822B021284600F0BCFF21
:1011E00004F121030822B821284600F0B5FF04F1DC
:1011F0002207C0263B46314608222846083600F022
:10120000ABFFB6F5A07F07F10107F3D194F83230B8
:101210008DF8073031460DF107030822284600F00B
:101220009BFF002604F1330A9DF807304FEAC609F8
:101230009E4209F5A47720D394F83231502B28BF71
:1012400050238DF80730B8F1000F08D139460DF161
:1012500007030722284600F07FFF09F24F170026F8
:1012600004F233149DF807309E4207EBC6010DD3FC
:101270000731C80802B0BDE8F0870AEB0603082270
:101280003946284600F068FF0136CDE7A319082249
:10129000284600F061FF0136E4E7000013B504467C
:1012A0000846002101602346C0F803102022019067
:1012B00000F052FF0198231D0222202100F04CFF74
:1012C0000198631D0322222100F046FF0198A31D0F
:1012D0000322252100F040FF019804F108031022A9
:1012E000282100F039FF072002B010BDF7B5047FB8
:1012F00005460E462CB1838A122B02D9012003B079
:10130000F0BD0023194607220096284600F0E8FDAC
:10131000731C0093012200230721284600F0E0FD02
:10132000D4B9B31C0093052223460821284600F0B7
:10133000D7FD0D24B378102BE0D83746B278BB1B0D
:10134000934210D32B7FA88A0734E408B3B98442B0
:1013500094BF00200120D2E7AB8ADB00083BDB080A
:10136000B3700824E6E7FB1C009321460023082203
:10137000284600F0B5FD08340137DFE7201A18BF12
:101380000120BCE7F7B5047F05460E462CB1838AE1
:10139000CA2B02D9012003B0F0BD002319460096E4
:1013A0000822284600F09CFD731CD4B90822009343
:1013B00011462346284600F093FD10247378C82B6D
:1013C000E8D8012372785F1C013B934210D32B7F36
:1013D000A88A0734E408B3B9844294BF00200120EE
:1013E000D9E7AB8ADB00083BDB0873700824E5E72C
:1013F000F3190093214600230822284600F070FDCF
:1014000008343B46DEE7201A18BF0120C3E700007E
:10141000F7B50D4604460021164628468122FFF7FF
:101420003FFE234608220021284600F095FE94F94D
:1014300001206378002AB8BF7F238DF807309EB95A
:101440000DF1070307220821284600F085FE0F272B
:10145000002602349DF807309E4207EBC60105D3F3
:101460000731C80803B0F0BD0827F1E7A319082227
:10147000284600F071FE0136ECE70000F7B50E4695
:101480000546002114463046CE22FFF709FE2B46C2
:1014900028220021304600F05FFE2B7AC82B28BF9F
:1014A000C8238DF807308CB90DF1070308222821D5
:1014B000304600F051FE30242F469DF807207B1B5C
:1014C000934205D3E01DC00803B0F0BD2824F3E724
:1014D00007F1090321460822304600F03DFE08349A
:1014E0000137EAE7F7B5047F05460E4634B1838A33
:1014F000B3F5827F02D9012003B0F0BD009601232D
:1015000010220021284600F0EBFCDCB9B31C00934C
:10151000092223461021284600F0E2FC1924738892
:10152000B3F5807FE7D837467288BB1B934210D350
:101530002B7FA88A0734E408B3B9844294BF002003
:101540000120D9E7AB8ADB00103BDB087380102455
:10155000E5E73B1D0093214600230822284600F0C2
:10156000BFFC08340137DFE7201A18BF0120C3E7AA
:1015700030B5094D0A4491420DD011F8013B584055
:10158000082340F30004013B2C4013F0FF0384EADE
:101590005000F6D1EFE730BD2083B8EDF7B54FF03E
:1015A000FF33DFF854C0DFF854E000EB81011A4646
:1015B00088421CD050F8044B019401AF042417F862
:1015C000015B82EA05620825DB18164605F1FF3546
:1015D0005241002EBCBF83EA0C0382EA0E0215F0D2
:1015E000FF05F1D1013C14F0FF04E8D1E0E7D84356
:1015F000D14303B0F0BD00BF9336EAA9EBE1F0425E
:10160000F7B5384A106851686B4603C36A463649D5
:101610003648082302F0BAFD0446002833D10A25D3
:10162000334A106851686B4603C36A4631492F48F4
:10163000082302F0ABFD0446002849D00369B3F546
:10164000702F45D8B0F8661040F2F63291423FD183
:10165000294A024402F15C018B4239D35C3B2349A5
:1016600000209E1AFFF784FF3246074604F164010A
:101670000020FFF77DFFA3689F4229D1E3689842CD
:1016800008BF002524E00369B3F5702F27D8418BEC
:1016900040F2F632914220D1174A024402F1100181
:1016A0008B4218D3103B114900209D1AFFF760FFB1
:1016B0002A46064604F118010020FFF759FFA368E7
:1016C0009E4202D1E368984201D00D25A8E700258B
:1016D000284603B0F0BD1025A2E70C25A0E70B2596
:1016E0009EE700BFEC410008DCFF0E00000001088F
:1016F000F541000890FF0E000800FFF700B59BB011
:10170000EFF3098168226846FFF7B8FCEFF3058321
:10171000014B9B6BFEE700BF00ED00E008B5FFF753
:10172000EDFF000000B59BB0EFF309816822684629
:10173000FFF7A4FCEFF30583014B5B6BFEE700BFF3
:1017400000ED00E0FEE7000001F0F8BD01F0DABDB9
:101750002DE9F041456A15B94162BDE8F0814B6859
:1017600023F06047C3F38A464FEAD37EC3F3807801
:1017700016EA230638BF3E46AC462B465A68BEEBF7
:10178000D27F22F060440AD0002A18DAA40CB442B6
:1017900017D19D420FD10D60DEE71346EEE7A74259
:1017A00007D102F08044C2F3807242450BD054B19D
:1017B000EFE708D2EDE7CCF800100B60CDE7B442BC
:1017C00001D0B442E5D81A689C46002AE5D11960D8
:1017D000C3E700002DE9F047089D01F007044FEA38
:1017E000D508224405F0070500EBD1004FF47F49EE
:1017F000944201D1BDE8F08704F0070705F0070A1D
:1018000057453E4638BF5646C6F10806111B8E4264
:1018100028BF0E46E10808EBD50E415C13F80EC058
:10182000B94029FA06F721FA0AF1FFB28CEA010160
:1018300047FA0AF739408CEA010C03F80EC0344429
:101840003544D5E780EA0120082341F2210201B2A4
:101850004000002980B203F1FF33B8BF504013F0BD
:10186000FF03F4D17047000038B50C468D18A5422F
:1018700000D138BD14F8011BFFF7E4FFF7E70000C3
:1018800042684AB1136843604389818901339BB23E
:101890009942438138BF83811046704770B588B044
:1018A000202204460D4668460021FFF7F9FB20463A
:1018B0000495FFF7E5FF024658B16B46054608AEB2
:1018C0001C4603CCB44228606960234605F1080534
:1018D000F6D1104608B070BD082817D909280CD0D9
:1018E0000A280CD00B280CD00C280CD00D280CD0BA
:1018F0000E2814BF4020302070470C207047102065
:10190000704714207047182070472020704700004F
:10191000082817D90C280CD910280CD914280CD950
:1019200018280CD920280CD930288CBF0F200E2065
:101930007047092070470A2070470B2070470C2021
:1019400070470D20704700002DE9F843078C072FE2
:1019500004461ED9D0E9029800254FF6FF73C5F161
:101960002006A5F1200029FA05F108FA06F628FA62
:1019700000F031430143C9B21846FFF763FF083551
:10198000402D0346EBD1E1693A46BDE8F843FFF745
:101990006BBF4FF6FF70BDE8F883000010B54B68D1
:1019A00023B9CA8A63F30902CA8210BD04691A689E
:1019B0001C600361C38A013BC3824A60EFE70000F9
:1019C0002DE9F84F1D46CB8A0F46C3F309010529BF
:1019D000814692460B4630D00020AAB207F11A0485
:1019E0009EB2042E1FFA80F80FD8904503F1010330
:1019F00006D3FB8A0A4462F30903FB8201201AE042
:101A00001AF80060E6540130EAE79045F1D2A1F1FE
:101A1000050B1C237C68BBFBF3F203FB12BB1FFA14
:101A20008BF6002C45D14846FFF72AFF044638B90B
:101A300078606FF00200BDE8F88F4FF00008E6E72D
:101A4000002606607860ADB24FF0000B454510D916
:101A50000AEB0803221D13F8011B9155B1B208F1DE
:101A600001081B291FFA88F82BD0454506F101060D
:101A7000F1D8FB8AC3F30902154465F30903BCE7F7
:101A8000013292B21C462368002BF9D16B1F0B4424
:101A90001C21B3FBF1F301339BB29A42D3D2BBF1C9
:101AA000000FD0D14846FFF7EBFE20B9C4F800B0D4
:101AB000BFE70122E7E7C0F800B05E4620600446B9
:101AC000C1E74545D5D94846FFF7DAFE08B9206099
:101AD000AFE7C0F800B0002620600446B6E700007B
:101AE0002DE9F04F2DED028B1C4683B05B6901920E
:101AF00007468846002B00F0A780238C2BB1E269B3
:101B0000002A00F0A180072B35D807F10C00FFF761
:101B1000B7FE054638B96FF00205284603B0BDECA4
:101B2000028BBDE8F08F14220021FFF7B9FA228C56
:101B3000E16905F10800FFF7A1FA208C013080B2BD
:101B4000FFF7E6FEFFF7C8FE013880B220840130BF
:101B500028746369228C1B782A4403F01F0363F006
:101B60003F0348F000411372384669602946FFF789
:101B7000EFFD0125D1E702339BB20722C18A06336C
:101B8000B3FBF2F3828A521A9BB292B29342C2D84A
:101B900000F10C034FF0000908EE103A4FF0800AF4
:101BA0004E464D4618EE100AFFF76AFE834600289F
:101BB000B1D014220021FFF773FA002E3AD1019B15
:101BC000ABF8083002220BF1080E1FFA82FC0CF170
:101BD0000100BCF1060F218C80B201D88E422BD3BC
:101BE000FFF796FEFFF778FE62691278013802F07F
:101BF0001F028E4208BF4FF0400A42EA49121BFA08
:101C000080F14AEA020A013048F0004281F808A057
:101C10008BF81000CBF8042059463846FFF798FDA2
:101C2000238C0135B3422DB289F001094FF0000A2F
:101C3000B8D172E70022C6E7E169895D0EF80210AB
:101C40000136B6B20132C0E76FF0010565E700006A
:101C5000F8B515460E463022002104461F46FFF710
:101C60001FFA069B6360B5F5001F079BA76034BF92
:101C70006A094FF6FF72A36297B2E66104F11000A1
:101C800000239A4206D800230360A782E3822383BD
:101C9000E360F8BD0660013330462036F1E700000E
:101CA00003781BB94BB2002BC8BF0170704700000E
:101CB00000787047F8B50C46C969074611B9238CFE
:101CC000002B37D1257E1F2D34D8387828BB228CA5
:101CD000072A2CD8268A36F003032BD14FF6FF7043
:101CE000FFF7C2FD20F001003102400441EA056126
:101CF000400C41EA40254FF6FF72234629463846FC
:101D0000FFF7EEFE002807DD626913780133DBB2CE
:101D10001F2B88BF00231370F8BD218A2D0645EACA
:101D2000012505432046FFF70FFE0246E5E76FF069
:101D30000300F1E76FF00100EEE7000070B58AB034
:101D4000044616460021282268461D46FFF7A8F9DA
:101D5000BDF83830ADF810300F9B05939DF840303A
:101D60008DF81830119B07936946BDF84830ADF8DF
:101D700020302046CDE90265FFF79CFF0AB070BD18
:101D80002DE9F041D36905460C4616460BB9138C74
:101D90005BBB377E1F2F28D895F80080B8F1000F65
:101DA00026D03046FFF7D0FD3378210241EAC33117
:101DB00041EA0801338A41EA076141EA03410246E8
:101DC000334641F080012846FFF78AFE00280ADDED
:101DD0003378012B07D1726913780133DBB21F2BE3
:101DE00088BF00231370BDE8F0816FF00100FAE7AF
:101DF0006FF00300F7E70000F0B58BB004460D4626
:101E000017460021282268461E46FFF749F99DF82B
:101E10004C305A1E534253418DF800309DF84030EB
:101E2000ADF81030119B05939DF848308DF81830AF
:101E3000149B07936A46BDF85430ADF8203029460C
:101E40002046CDE90276FFF79BFF0BB0F0BD000006
:101E5000406A00B104307047436A1A6842620269FE
:101E60001A600361C38A013BC38270472DE9F041C8
:101E7000D0F82080194E14461D464146002709B966
:101E8000BDE8F081D1E90223A21A65EB0303964273
:101E900077EB03031ED2036A8B420DD1FFF77EFD61
:101EA000036A1B68036203690B60C38A0161016AEC
:101EB000013BC3828846E2E7FFF770FD0B68C8F874
:101EC000003003690B60C38A0161013BC382D8F80B
:101ED0000010D4E788460968D1E700BF80841E005F
:101EE0002DE9F04F8BB00D46DDF8509014469B461F
:101EF0008046002800F01981B9F1000F00F015812B
:101F0000531E3F2B00F21181012A03D1BBF1000FB8
:101F100040F00B810023CDE90833B8F81430B5EB5D
:101F2000C30F4FEAC30703D300200BB0BDE8F08F07
:101F30002B199F42D8F80C303ABF7F1BFFB22746BF
:101F40001BB9D8F81030002B7AD0272D4ED8C5F108
:101F50002806B7424FF000032CBFF6B23E4600936E
:101F60002946D8F8080008AB3246FFF733FCA7EB48
:101F7000060A35445FFA8AFAB8F8143003F10053C0
:101F8000053BDB000493D8F80C3003932821039B16
:101F900013B1BAF1000F2CD1D8F8100040B1BAF14A
:101FA000000F05D0009608AB5246691AFFF712FCE5
:101FB00038B2002FB8D066070AD00AAB03EBD401C1
:101FC000624211F8083C02F00702134101F8083C94
:101FD000082C3CD9102C40F2B580202C40F2B78060
:101FE000BBF1000F00F09C80082334E0BA460026C5
:101FF000C2E7049BE02B28BFE02306930B44AB42CF
:10200000059314D95A1B03980096924534BF524643
:10201000D2B2691A08AB04300792FFF7DBFB079ACC
:102020001644AAEB020A1544F6B25FFA8AFA049B38
:10203000069A05999B1A0493039B1B680393A6E7D2
:102040000093D8F8080008AB3A462946AEE7BBF142
:10205000000F13D00123B4EBC30F6CD0082C12D89F
:102060009DF82030621E23FA02F2D50706D54FF004
:10207000FF3202FA04F423438DF820309DF820301B
:1020800089F8003051E7102C12D8BDF82030621EBC
:1020900023FA02F2D10706D54FF0FF3202FA04F418
:1020A0002343ADF82030BDF82030A9F800303CE7DC
:1020B000202C0FD80899631E21FA03F3DA0705D5FF
:1020C0004FF0FF3202FA04F40C430894089BC9F85D
:1020D00000302AE7402C2BD0DDE90865611EC4F1F1
:1020E0002102A4F1210326FA01F105FA02F225FAF0
:1020F00003F311431943CB0712D50122A4F12003A6
:10210000C4F1200102FA03F322FA01F1A240524283
:1021100043EA010363EB430332432B43CDE9082336
:10212000DDE90823C9E90023FFE66FF00100FCE6C2
:102130006FF00800F9E6082CA0D9102CB3D9202C98
:10214000EED8C3E7BBF1000FADD0022383E7BBF1AC
:10215000000FBBD004237EE730B5012A144638BFF8
:102160000124402C85B028BF40240025012ACDE958
:10217000025518D81B788DF8083063070AD004ABD5
:1021800003EBD405624215F8083C02F007029340C5
:1021900005F8083C009103462246002102A8FFF7FB
:1021A00019FB05B030BD082AE4D9102A03D81B88D2
:1021B000ADF80830E1E7202A8DBFD3E900231B6882
:1021C0000293CDE90223D8E710B5CB681BB98B6029
:1021D0000B618B8210BD04691A681C600361C38A9D
:1021E000013BC382CA60F0E703064CBFC0F3C030B6
:1021F0000220704708B50246FFF7F6FF022806D115
:102200005306C2F30F2001D100F0030008BDC2F352
:102210000740FBE72DE9F04F93B0CDE903230A68AF
:1022200004461046FFF7E0FF022814BFC2F306265B
:102230000026002A0D46824680F2F78112F0C0493E
:1022400040F0F381097B002900F0EF81022803D0E0
:102250002378B34240F0EC81C2F304630693104646
:1022600002F07F030593FFF7C5FF059B29444FEA62
:10227000834848EA0A4848EA4668CE7800230022A4
:10228000CDE90823F309834648EA0008029367D0A2
:10229000059B009302466768534608A92046B84745
:1022A000002800F0C881276A4FB9414604F10C00AC
:1022B000FFF7F4FA074690B96FF0020054E03B696B
:1022C00098450DD03F68002FF9D1414604F10C002C
:1022D000FFF7E4FA07460028EED0236A3B60276246
:1022E00097F817C006F01F08CCF3840CACEB08007D
:1022F0001FFA80FE0028B8BF0EF12000A8EB0C03E7
:102300001FFA83FED7E90221B8BF00B2002B079362
:10231000BEBF0EF120031BB2079352EA010338D06F
:10232000039BDFF824E39A1A049B4FF0000C63EB45
:10233000010196457CEB01032BD36B7B97F81AE0E8
:10234000734519D1029B002B78D0012821DC7868D5
:10235000F8B9DFF8F0C2944570EB010316D337E00B
:10236000276A27B96FF00C0013B0BDE8F08F3B6906
:102370009845B5D03F68F4E7B24890427CEB010342
:1023800001D30020F0E7029B002BFAD0079B0F2B14
:1023900017DCFA7DB30002F0030203F07C03134361
:1023A000FB7539462046FFF7F9FA6B7BBB76029B3B
:1023B0003BB9FB7DC3F38402013262F38603FB75F4
:1023C000D0E76A7BBB7E9A42DBD1029B002B35D0E3
:1023D000B309022B32D0039BBB60049BFB60142229
:1023E00000210DA8FEF75CFE039B0A93049B0B9350
:1023F0002B1D0C932B7BADF83EB0013BDBB2ADF84F
:102400003C30069B8DF84230059B8DF8433094F8A4
:102410002C308DF840A083F001038DF844308DF806
:102420004180A3680AA920469847FB7DC3F3840333
:10243000013303F01F039B02FB82A2E7FB7DC6F37F
:102440004012B2EBD31F40F0F980C3F3840343453D
:1024500040F0FC80029A2B7BB609002A52D016F07D
:10246000010661D1032B40F2F480039BBB60049B07
:10247000FB60FB8A66F30903FB822B7BAE1D033BEB
:10248000DBB23246394604F10C00FFF799FA002816
:102490000CDA39462046FFF781FAFB7DC3F384034B
:1024A000013303F01F039B02FB8205E7DDE908848B
:1024B000AB883B834FF6FF73C9F12000A9F12002DE
:1024C00028FA09F104FA00F0014324FA02F2114358
:1024D0001846C9B2FFF7B6F909F10809B9F1400F7A
:1024E0000346E9D1B8822A7B033AD2B23146FFF7DC
:1024F000BBF9FB7DB882DA43C2F3C01262F3C713A3
:10250000FB753EE786B92E1D013BDBB232463946EC
:1025100004F10C00FFF754FA0028BADB2A7BB88AD2
:10252000013AD2B23146E2E7F98AC1F30901013B2F
:102530000429DAB25BD8281D002307F11B069A4252
:1025400008D910F801CB06F801C001310133052983
:10255000DBB2F4D103990A9104990B91934207F1EC
:102560001B010C9138BF043379680D9134BF55FAC3
:1025700083F300230E93FB8AADF83EB0C3F3090347
:102580001A44069B8DF84230059B8DF8433094F831
:102590002C30ADF83C2083F001038DF8443000234B
:1025A0008DF840A08DF841807B602A7BB88A013A83
:1025B000291DFFF759F93B8BB882834203D1A368E9
:1025C0000AA92046984720460AA9FFF7FDFDFB7D92
:1025D000BA8AC3F38403013303F01F039B02FB8217
:1025E0003B8B9A420CBF00206FF01000BCE67B686A
:1025F000002BAFD0052001E01C3033461E68002EB2
:10260000FAD1091A081D2E1D184401EB090CBCF162
:102610001B0F5FFA89F39DD89A429BD916F8013BAC
:1026200000F8013B09F10109EFE76FF009009BE6B3
:102630006FF00A0098E66FF00B0095E66FF00D0062
:1026400092E600BF40420F0080841E006FF00E0033
:102650008AE66FF00F0087E6404BF0B51C6C404EE9
:1026600044F000741C641D6E45F000751D661B6E01
:102670003C4B9B6AD3F80052354045F00105C3F846
:102680000052D3F80042344044EA002040F00100F8
:10269000C3F80002002952D00020C3F81C020546EE
:1026A000C3F80402C3F80C02C3F8140203EBC0041D
:1026B00001301C28C4F84052C4F84452F6D1002519
:1026C0004FF0010C96781488F70748BFD3F80472CE
:1026D0000CFA04F044BF0743C3F80472B70742BFC3
:1026E000D3F80C720743C3F80C72760742BFD3F8D5
:1026F00014620643C3F8146203EBC4045668C4F8BA
:1027000040629668C4F84462D3F81C420135204305
:10271000A942C3F81C0202F10C02D3D1D3F8002263
:1027200022F00102C3F800220C4B1A6C22F0007256
:102730001A641A6E22F000721A661B6EF0BD012236
:10274000C3F84012C3F84412C3F80412C3F81412B9
:10275000C3F80C22C3F81C22E0E700BF0038024097
:102760000000FFFFA8350020184A916A08B58B6861
:102770008B6013F0010104D013F00C0F18BF4FF45D
:102780008031D80506D513F4406F14BF41F40031F1
:1027900041F00201D80306D513F4402F14BF41F4D1
:1027A000802141F00401D3690BB1084898473023D8
:1027B00083F311880648002100F028FB002383F3EF
:1027C0001188BDE8084000F0B1BE00BFA835002068
:1027D000B035002038B5124CA36ADD68AA0712D0C4
:1027E0005A6922F002025A61A36913B101212046FD
:1027F0009847302383F311880A48002100F006FB34
:10280000002383F31188EB0606D5A36A1021D96053
:10281000236A0BB102489847BDE8384000F086BEF5
:10282000A8350020B835002038B5124CA36A1D69C0
:10283000AA0712D05A6922F010025A61A36913B193
:10284000022120469847302383F311880A4800214B
:1028500000F0DCFA002383F31188EB0606D5A36AA7
:1028600010211961236A0BB102489847BDE838402E
:1028700000F05CBEA8350020B835002038B50F4CFC
:10288000A36A5D685D602A070AD5042222701A686F
:1028900022F002021A60636A13B1002120469847B1
:1028A0006B0706D5A36A9969236A13B10348090423
:1028B0009847BDE8384000F039BE00BFA835002079
:1028C00010B50E4C204600F029F90D4BA3620B21E8
:1028D000132000F00BF90B21142000F007F90B2155
:1028E000152000F003F90B21162000F0FFF800225C
:1028F000BDE8104011460E20FFF7AEBEA8350020FF
:1029000000640040114B984210B5044609D1104BA9
:102910001A6C42F000721A641A6E42F000721A6663
:102920001B6EA36A01221A60A36A5A68D20707D5F0
:10293000626851681268D9611A60064A5A6110BD0E
:102940000121082000F0A6F9EEE700BFA83500201D
:10295000003802405B87010003291AD8DFE801F044
:10296000020A0F14836A9B6813F0E05F14BF012012
:1029700000207047836A9868C0F380607047836A5C
:102980009868C0F3C0607047836A9868C0F30070AD
:10299000704700207047000010B5032925D8DFE8F4
:1029A00001F00225292D836A9968C1F3016118316C
:1029B00003EB0113107884064CBF54689488C0F36D
:1029C00000114FEA410148BF41EAC40100F00F0085
:1029D0004CBF41F0040141EA4451586041F001010B
:1029E0009068D2689860DA60196010BD836A03F558
:1029F000C073DFE7836A03F5C873DBE7836A03F517
:102A0000D073D7E701290AD002290FD081B9836A90
:102A1000DA68920701D1186903E001207047836AE0
:102A2000D86810F0030018BF01207047836AF2E7EE
:102A30000020704710B539B9836AD96889071BD15E
:102A40001B699C0704D110BD012915D00229FAD1B8
:102A5000816AD1F8C031D1F8C441D1F8C801106100
:102A6000D1F8CC015061202008610869800717D196
:102A7000486940F0100012E0816AD1F8B031D1F815
:102A8000B441D1F8B8011061D1F8BC0150612020E7
:102A9000C860C868800703D1486940F002004861F7
:102AA000C3F34000C3F38001000140EA41111079F3
:102AB00020F030000143117189064BBF91681189E4
:102AC000DB085B0D4CBF63F31C0163F30A01137950
:102AD00048BF916064F3030313714FEA14234FEA74
:102AE000144458BF118113705480ACE700F1604367
:102AF00003F561430901C9B283F80013012200F014
:102B00001F039A4043099B0003F1604303F56143AF
:102B1000C3F880211A607047FFF7D2BE012300F18D
:102B20000802C0E90222037000F110020023C0E98C
:102B30000422C0E90633C0E908334360704700004F
:102B400010B53023044683F31188022303704160DB
:102B5000FFF7D8FE04232370002080F3118810BDF6
:102B60002DE9F0411F4604460D461646302383F3F7
:102B7000118800F108082378052B0DD0294620463E
:102B8000FFF7EAFE40B1204632462946FFF704FF30
:102B9000002080F3118808E03946404600F01AF919
:102BA0000028E8D0002383F31188BDE8F0810000FD
:102BB0002DE9F0411F4604460D461646302383F3A7
:102BC000118800F110082378052B0DD029462046E6
:102BD000FFF718FF40B1204632462946FFF72AFF8B
:102BE000002080F3118808E03946404600F0F2F8F2
:102BF0000028E8D0002383F31188BDE8F0810000AD
:102C000000230375826803691B6899689142FBD2AF
:102C10005A68036042601060586070470023037573
:102C2000826803691B6899689142FBD85A680360FF
:102C3000426010605860704708B50846302383F33F
:102C400011880B7D032B05D0042B0DD02BB983F3FA
:102C5000118808BD8B6900221A604FF0FF33836131
:102C6000FFF7CEFF0023F2E7D1E9003213605A608C
:102C7000F3E70000FFF7C4BF054BD9680875186873
:102C800002681A60536001220275D860FDF73ABBF2
:102C9000D835002030B50C4BDD684B1C87B004469E
:102CA0000FD02B46094A684600F044F92046FFF74A
:102CB000E3FF009B13B1684600F046F9A86907B02E
:102CC00030BDFFF7D9FFF9E7D8350020392C0008CF
:102CD000044B1A68DB6890689B68984294BF002098
:102CE00001207047D8350020084B10B51C68D86803
:102CF00022681A60536001222275DC60FFF78EFFA4
:102D000001462046BDE81040FDF7FCBAD83500204A
:102D100038B5074C07490848012300252370656032
:102D200000F06AFC0223237085F3118838BD00BFD0
:102D30004038002004420008D835002000F03AB99D
:102D40008B60022308618B82084670478368A3F179
:102D5000840243F8142C026943F8442C426943F876
:102D6000402C094A43F8242CC26843F8182C02224C
:102D700003F80C2C002203F80B2C044A43F8102C07
:102D8000A3F12000704700BF1D030008D8350020C4
:102D900008B5FFF7DBFFBDE80840FFF76BBF000099
:102DA000024BDB6898610F20FFF766BFD835002023
:102DB000302383F31188FFF7F3BF000008B5014605
:102DC000302383F311880820FFF764FF002383F387
:102DD000118808BD064BDB6839B1426818605A603B
:102DE000136043600420FFF755BF4FF0FF3070477A
:102DF000D83500200368984206D01A6802605060F7
:102E000099611846FFF736BF7047000038B5044691
:102E10000D462068844200D138BD036823605C60A1
:102E20008561FFF727FFF4E710B503689C68A242AD
:102E30000CD85C688A600B604C60216059609968AE
:102E40008A1A9A604FF0FF33836010BD1B68121B13
:102E5000ECE700000A2938BF0A2170B504460D4688
:102E60000A26601900F0C2FB00F0AEFB041BA5426D
:102E700003D8751C2E460446F3E70A2E04D9BDE894
:102E80007040012000F0F8BB70BD0000F8B5144B95
:102E90000D46D96103F1100141600A2A1969826067
:102EA00038BF0A22016048601861A818144600F073
:102EB0008FFB0A2700F088FB431BA342064606D37C
:102EC0007C1C281900F092FB27463546F2E70A2FB2
:102ED00004D9BDE8F840012000F0CEBBF8BD00BF2A
:102EE000D8350020F8B506460D4600F06DFB0F4AB8
:102EF000134653F8107F9F4206D12A4601463046BA
:102F0000BDE8F840FFF7C2BFD169BB68441A2C196D
:102F100028BF2C46A34202D92946FFF79BFF224631
:102F200031460348BDE8F840FFF77EBFD8350020A2
:102F3000E835002010B4C0E9032300235DF8044BFA
:102F40004361FFF7CFBF000010B5194C23699842C9
:102F50000DD0D0E90032816813605A609A680A4443
:102F60009A60002303604FF0FF33A36110BD234636
:102F7000026843F8102F53600022026022699A42CF
:102F800003D1BDE8104000F02BBB936881680B446F
:102F9000936000F019FB2269E1699268441AA24229
:102FA000E4D91144BDE81040091AFFF753BF00BF30
:102FB000D83500202DE9F047DFF8BC8008F1100774
:102FC0002C4ED8F8105000F0FFFAD8F81C40AA6830
:102FD000031B9A423ED81444D5E900324FF0000951
:102FE000C8F81C4013605A60C5F80090D8F810303B
:102FF000B34201D100F0F4FA89F31188D5E9033125
:1030000028469847302383F311886B69002BD8D06A
:1030100000F0DAFA6A69A0EB04094A4582460DD24B
:10302000022000F029FB0022D8F81030B34208D16A
:1030300051462846BDE8F047FFF728BF121A224440
:10304000F2E712EB090938BF4A4629463846FFF72E
:10305000EBFEB5E7D8F81030B34208D01444211A7B
:10306000C8F81C00A960BDE8F047FFF7F3BEBDE853
:10307000F08700BFE8350020D835002038B500F0D3
:10308000A3FA054AD2E90845031B181945F10001C6
:10309000C2E9080138BD00BFD835002000207047C4
:1030A000FEE70000704700004FF0FF30704700005F
:1030B000BFF34F8F024AD368DB03FCD4704700BFD5
:1030C000003C024008B5094B1B7873B9FFF7F0FFCD
:1030D000074B1A69002ABFBF064A5A6002F18832BC
:1030E0005A601A6822F480621A6008BD48380020CD
:1030F000003C02402301674508B50B4B1B7893B990
:10310000FFF7D6FF094B1A6942F000421A611A68AC
:1031100042F480521A601A6822F480521A601A68C7
:1031200042F480621A6008BD48380020003C02402A
:103130000B28F0B516D80C4C0C4923787BB90C4DF4
:103140000E460C234FF0006255F8047B46F8042B22
:10315000013B13F0FF033A44F6D10123237051F8E9
:103160002000F0BD0020FCE77C3800204C38002017
:1031700010420008014B53F820007047104200082D
:103180000C2070470B2810B5044601D9002010BD53
:10319000FFF7CEFF064B53F824301844C21A0BB980
:1031A0000120F4E712680132F0D1043BF6E700BFDA
:1031B000104200080B2810B5044621D8FFF778FF0D
:1031C000FFF780FF0F4AF323D360C300DBB243F461
:1031D000007343F002031361136943F480331361F6
:1031E000FFF766FFFFF7A4FF074B53F8241000F02A
:1031F0001FF9FFF781FF2046BDE81040FFF7C2BF6F
:10320000002010BD003C024010420008F8B512F04A
:103210000103144642D18218B2F1016F57D82D4BE9
:103220001B6813F0010352D02B4DFFF74BFFF32324
:10323000EB60FFF73DFF40F20127032C15D824F087
:1032400001046618244C401A40F20117B142236968
:1032500000EB010524D123F001032361FFF74CFFAC
:103260000120F8BD043C0430E7E78307E7D12B6970
:1032700023F440732B612B693B432B6151F8046BA2
:103280000660BFF34F8FFFF713FF03689E42E9D03C
:103290002B6923F001032B61FFF72EFF0020E0E7ED
:1032A00023F44073236123693B4323610B882B8004
:1032B000BFF34F8FFFF7FCFE2D8831F8023BADB214
:1032C000AB42C3D0236923F001032361E4E718462E
:1032D000C7E700BF00380240003C0240084908B57B
:1032E0000B7828B11BB9FFF7EDFE01230B7008BD69
:1032F000002BFCD0BDE808400870FFF7FDBE00BF02
:103300004838002038B5EFF311859DB9EFF30584F7
:10331000C4F30804302334B183F31188FFF7AEFE01
:1033200085F3118838BD83F31188FFF7A7FE84F376
:10333000118838BDBDE83840FFF7A0BE38B5FFF7AB
:10334000E1FF114C114AC00840EA4170A0FB025E47
:10335000C908A0FB040C1CEB050CA1FB04404FF0BA
:1033600000035B41A1FB02121CEB040C43EB0000C9
:1033700011EB0E0142F10002411842F1000009096F
:1033800041EA007038BD00BFCFF753E3A59BC420CE
:1033900010B50244064BD2B2904200D110BD441C7D
:1033A00000B253F8200041F8040BE0B2F4E700BF8C
:1033B000502800400F4B30B51C6F240407D41C6FFD
:1033C00044F400741C671C6F44F400441C670A4CEE
:1033D000236843F4807323600244084BD2B29042C6
:1033E00000D130BD441C00B251F8045B43F82050BA
:1033F000E0B2F4E70038024000700040502800407E
:1034000007B5012201A90020FFF7C2FF019803B010
:103410005DF804FB13B50446FFF7F2FFA04205D0A8
:10342000012201A900200194FFF7C4FF02B010BDE2
:1034300070470000074B45F255521A6003225A604C
:1034400040F2FF729A604CF6CC421A60024B0122A5
:103450001A7070470030004084380020034B1B78FE
:103460001BB1034B4AF6AA221A6070478438002029
:1034700000300040034B1A681AB9034AD2F8742886
:103480001A6070478038002000300240024B4FF035
:103490008072C3F8742870470030024008B5FFF707
:1034A000E9FF024B1868C0F3407008BD8038002067
:1034B00008B5FFF7DFFF024B1868C0F3007008BDC6
:1034C00080380020EFF3098305494A6B22F001029E
:1034D0004A63683383F30988002383F311887047B4
:1034E00000EF00E0302080F3118862B60C4B0D4AEB
:1034F000D96821F4E0610904090C0A43DA60D3F8C1
:10350000FC20094942F08072C3F8FC200A6842F0AE
:1035100001020A602022DA7783F82200704700BF98
:1035200000ED00E00003FA05001000E010B53023C4
:1035300083F311880E4B5B6813F4006314D0F1EE33
:10354000103AEFF30984683C4FF08073E361094B54
:10355000DB6B236684F30988FFF7BAFB10B1064BD7
:10356000A36110BD054BFBE783F31188F9E700BFAA
:1035700000ED00E000EF00E02F0300083203000838
:1035800070470000FEE700000A4B0B480B4A9042D0
:103590000BD30B4BDA1C121AC11E22F003028B4212
:1035A00038BF00220021FDF77BBD53F8041B40F813
:1035B000041BECE794430008B8420020B842002006
:1035C000B842002000F0D0B84FF08043586A7047EE
:1035D0004FF08043002258631A610222DA6070477C
:1035E0004FF080430022DA60704700004FF08043C4
:1035F00058637047FEE7000070B51B4B0163002560
:10360000044686B0586085620E46FFF76BFF04F1F2
:103610001003C4E904334FF0FF33C4E90635C4E9AD
:103620000044A560E562FFF7CFFF2B460246C4E9E0
:10363000082304F134010D4A256580232046FFF755
:103640007FFB0123E0600A4A0375009272680192D1
:10365000B268CDE90223074B6846CDE90435FFF790
:1036600097FB06B070BD00BF403800204042000804
:1036700045420008F5350008024AD36A1843D06273
:10368000704700BFD83500204B6843608B6883606B
:10369000CB68C3600B6943614B6903628B6943620A
:1036A0000B6803607047000008B5264B26481A696E
:1036B00040F2FF110A431A611A6922F4FF7222F0E4
:1036C00001021A611A691A6B0A431A631A6D0A43D6
:1036D0001A651E4A1B6D1146FFF7D6FF02F11C0149
:1036E00000F58060FFF7D0FF02F1380100F580603F
:1036F000FFF7CAFF02F1540100F58060FFF7C4FF35
:1037000002F1700100F58060FFF7BEFF02F18C014D
:1037100000F58060FFF7B8FF02F1A80100F58060B6
:10372000FFF7B2FF02F1C40100F58060FFF7ACFFC4
:1037300002F1E00100F58060FFF7A6FFBDE8084058
:1037400000F08EB800380240000002404C420008F1
:1037500008B500F031FAFFF7DBFABDE80840FFF7E3
:1037600089BE0000704700000F4B1A6C42F0010246
:103770001A641A6E42F001021A660C4A1B6E9368B4
:1037800043F0010393604FF0804353229A624FF05D
:10379000FF32DA6200229A615A63DA605A600122CB
:1037A0005A611A60704700BF00380240002004E0F0
:1037B0004FF0804208B51169D3680B40D9B2C943B4
:1037C0009B07116107D5302383F31188FFF7B6FA01
:1037D000002383F3118808BD1F4B1A696FEAC25298
:1037E0006FEAD2521A611A69C2F308021A614FF0E5
:1037F000FF301A695A69586100215A6959615A693A
:103800001A6A62F080521A621A6A02F080521A62D0
:103810001A6A5A6A58625A6A59625A6A1A6C42F0AB
:1038200080521A641A6E42F080521A661A6E0B4A5F
:10383000106840F480701060186F00F44070B0F5AC
:10384000007F1EBF4FF4803018671967536823F458
:103850000073536000F07CB90038024000700040F3
:10386000334B4FF080521A64324A4FF4404111609A
:103870001A6842F001021A601A689107FCD59A682A
:1038800022F003029A602A4B9A6812F00C02FBD1D4
:10389000196801F0F90119609A601A6842F48032DF
:1038A0001A601A689203FCD55A6F42F001025A67F7
:1038B0001F4B5A6F9007FCD51F4A5A601A6842F096
:1038C00080721A601B4A53685904FCD5184B1A6859
:1038D0009201FCD5194A9A60194B1A68194B9A4201
:1038E000194B21D1194A1168194A91421CD140F251
:1038F00005121A60144A136803F00F03052BFAD15E
:103900000B4B9A6842F002029A609A6802F00C022D
:10391000082AFAD15A6C42F480425A645A6E42F430
:1039200080425A665B6E704740F20572E1E700BF65
:103930000038024000700040085440070094883866
:10394000002004E011640020003C024000ED00E093
:1039500041C20F41074A08B5536903F0010353619F
:1039600023B1054A13680BB150689847BDE8084079
:10397000FFF7DCBD003C014088380020074A08B54D
:10398000536903F00203536123B1054A93680BB1F5
:10399000D0689847BDE80840FFF7C8BD003C01402B
:1039A00088380020074A08B5536903F004035361BF
:1039B00023B1054A13690BB150699847BDE8084027
:1039C000FFF7B4BD003C014088380020074A08B525
:1039D000536903F00803536123B1054A93690BB19E
:1039E000D0699847BDE80840FFF7A0BD003C014002
:1039F00088380020074A08B5536903F01003536163
:103A000023B1054A136A0BB1506A9847BDE80840D4
:103A1000FFF78CBD003C014088380020164B10B5E4
:103A20005C6904F478725A61A30604D5134A936A58
:103A30000BB1D06A9847600604D5104A136B0BB1DE
:103A4000506B9847210604D50C4A936B0BB1D06B91
:103A50009847E20504D5094A136C0BB1506C98479E
:103A6000A30504D5054A936C0BB1D06C9847BDE80B
:103A70001040FFF75BBD00BF003C014088380020CC
:103A8000194B10B55C6904F47C425A61620504D597
:103A9000164A136D0BB1506D9847230504D5134A90
:103AA000936D0BB1D06D9847E00404D50F4A136EA7
:103AB0000BB1506E9847A10404D50C4A936E0BB11C
:103AC000D06E9847620404D5084A136F0BB1506F4B
:103AD0009847230404D5054A936F0BB1D06F9847DC
:103AE000BDE81040FFF722BD003C014088380020AF
:103AF00008B5034800F05CF9BDE80840FFF716BDC3
:103B00000839002008B5034800F052F9BDE8084024
:103B1000FFF70CBD743B002008B5034800F048F9DE
:103B2000BDE80840FFF702BDE03D002008B50348AE
:103B300000F03EF9BDE80840FFF7F8BC4C4000201B
:103B400008B5FFF735FEBDE80840FFF7EFBC000001
:103B5000062108B50846FEF7C9FF06210720FEF733
:103B6000C5FF06210820FEF7C1FF06210920FEF748
:103B7000BDFF06210A20FEF7B9FF06211720FEF738
:103B8000B5FF06212820FEF7B1FF07211C20FEF714
:103B9000ADFF0C212520FEF7A9FF0C212620FEF702
:103BA000A5FF0C212720FEF7A1FFBDE808400C214E
:103BB0004720FEF79BBF000008B5FFF70DFE00F0A1
:103BC0007DF8FEF7A9FF00F03DF8FFF7CBFDBDE85B
:103BD0000840FFF7F7BC000002684368114301602A
:103BE00003B1184770470000143000F00DBA000010
:103BF0004FF0FF33143000F007BA0000383000F007
:103C000083BA00004FF0FF33383000F07DBA000077
:103C1000143000F0D3B900004FF0FF31143000F041
:103C2000CDB90000383000F02DBA00004FF0FF325F
:103C3000383000F027BA0000012914BF6FF01300DC
:103C40000020704700F070B837B515460E4A026084
:103C500000224260C0E902220122044602740B469F
:103C6000009000F15C014FF48072143000F07CF998
:103C700000942B464FF4807204F5AE7104F13800C5
:103C800000F0F4F903B030BD4843000838B5C3690B
:103C900004460D461BB904210844FFF79DFF294641
:103CA00004F1140000F06EF9002806DA201D4FF42C
:103CB0000061BDE83840FFF78FBF38BD0023054ADB
:103CC00019460133102BC2E9001102F10802F8D1A4
:103CD000704700BF883800200268436811430160C4
:103CE00003B1184770470000024AD36843F0C0038D
:103CF000D360704700100140024AD36843F0C0030C
:103D0000D360704700440040024AD36843F0C003C8
:103D1000D360704700480040024AD36843F0C003B4
:103D2000D36070470014014070B5134C134A144D12
:103D3000144E20460021FFF787FF134B134AC4E9B6
:103D40009735134C00212046FFF77EFF114B124A96
:103D5000C4E99736114C00212046FFF775FF104B40
:103D6000104AC4E99736104C00212046FFF76CFF3B
:103D70000E4BC4E9973570BD08390020E93C0008B6
:103D800000BD010580DE800200100140F93C000802
:103D9000743B002000440040093D0008E03D002045
:103DA00000480040193D00084C400020001401402C
:103DB0002DE9F041D0F85C62F7683368DA05044613
:103DC0009DB20DD5302383F311884FF48061043008
:103DD000FFF782FF6FF480733360002383F3118851
:103DE000302383F3118804F1040815F02F033AD12E
:103DF00083F31188380615D5290613D5302383F3AC
:103E0000118804F1380000F065F900284EDA082125
:103E1000201DFFF761FF4FF67F733B40F3600023E7
:103E200083F311887A0616D56B0614D5302383F3F5
:103E30001188D4E913239A420AD1236C43B127F0A5
:103E400040073F041021201D3F0CFFF745FFF7609E
:103E5000002383F31188D4F86822D36843B3BDE804
:103E6000F041106918472B0714D015F0080F0CBF4C
:103E700000214FF48071E80748BF41F02001AA07F4
:103E800048BF41F040016B0748BF41F08001404608
:103E9000FFF722FFAD06736805D594F8641220463B
:103EA0001940FFF7F3FE3568ADB29EE77060B6E7E4
:103EB000BDE8F081F8B5154682680669AA420B464E
:103EC000816938BF8568761AB54204460BD2184618
:103ED0002A46FDF7D3F8A3692B44A361A3685B1BB3
:103EE000A3602846F8BD0CD918463246FDF7C6F83F
:103EF000AF1BE1683A463044FDF7C0F8E3683B4445
:103F0000EBE718462A46FDF7B9F8E368E5E7000055
:103F100083689342F7B51546044638BF8568D0E9F3
:103F20000460361AB5420BD22A46FDF7A7F863693A
:103F30002B446361A36828465B1BA36003B0F0BDFC
:103F40000DD932460191FDF799F80199E068AF1B50
:103F50003A463144FDF792F8E3683B44E9E72A46E4
:103F6000FDF78CF8E368E4E710B50A440024C36168
:103F7000029B8460C0E90000C0E90511C1600261D4
:103F8000036210BD08B5D0E90532934201D18268C1
:103F900082B98268013282605A1C42611970D0E98C
:103FA00004329A4224BFC36843610021FEF722FF16
:103FB000002008BD4FF0FF30FBE7000070B5302354
:103FC00004460E4683F31188A568A5B1A368A269CB
:103FD000013BA360531CA36115782269934224BF5F
:103FE000E368A361E3690BB120469847002383F39C
:103FF0001188284607E031462046FEF7EBFE0028F0
:10400000E2DA85F3118870BD2DE9F74F04460E46BC
:1040100017469846D0F81C904FF0300A8AF3118862
:104020004FF0000B154665B12A4631462046FFF792
:1040300041FF034660B941462046FEF7CBFE00280B
:10404000F1D0002383F31188781B03B0BDE8F08F13
:10405000B9F1000F03D001902046C847019B8BF3B4
:104060001188ED1A1E448AF31188DCE7C0E90511B6
:10407000C160C3611144009B8260C0E9000001611E
:1040800003627047F8B504460D461646302383F3A5
:104090001188A768A7B1A368013BA36063695A1C94
:1040A00062611D70D4E904329A4224BFE3686361FF
:1040B000E3690BB120469847002080F3118807E0A0
:1040C00031462046FEF786FE0028E2DA87F31188A3
:1040D000F8BD0000D0E905239A4210B501D18268ED
:1040E0007AB98268013282605A1C82611C78036945
:1040F0009A4224BFC36883610021FEF77BFE2046FD
:1041000010BD4FF0FF30FBE72DE9F74F04460E4698
:1041100017469846D0F81C904FF0300A8AF3118861
:104120004FF0000B154665B12A4631462046FFF791
:10413000EFFE034660B941462046FEF74BFE0028DD
:10414000F1D0002383F31188781B03B0BDE8F08F12
:10415000B9F1000F03D001902046C847019B8BF3B3
:104160001188ED1A1E448AF31188DCE710B5013975
:104170000244904201D1002005E0037811F8014F7C
:10418000A34201D0181B10BD0130F2E72DE9F04128
:10419000A3B1C91A17780144044603F1FF3C8C42CD
:1041A000204601D9002009E00578BD4204F1010450
:1041B000F5D10CEB0405D618A54201D1BDE8F0817C
:1041C00015F8018D16F801EDF045F5D0E7E7000090
:1041D000034611F8012B03F8012B002AF9D170478F
:1041E00055534246342D43414E00000040A2E4F1B5
:1041F000646891060041A3E5F2656992070000003A
:1042000063300000004200083036002040380020B3
:10421000004000000040000000400000004000009E
:104220000000010000000200000002000000020087
:104230000000020000000200000002000000020076
:104240006D61696E0069646C65000000A000A82AB9
:1042500000000000FAAABEAA50001424FFFF0000CC
:1042600000770000709709000000A0000000000027
:10427000AAAAFAAA00005000FFFF000000000000F8
:104280000077000000A0040000000000AAFAAAAA1B
:1042900000500000FFFD000000000088000000004A
:1042A0000000000000000000AAAAAAAA0000000066
:1042B000FFFF000000000000000000000000000000
:1042C00000000000AAAAAAAA00000000FFFF000048
:1042D00000000000000000000000000000000000DE
:1042E000AAAAAAAA00000000FFFF00000000000028
:1042F000000000000000000000000000AAAAAAAA16
:1043000000000000FFFF00000000000000000000AF
:1043100000000000000000000A0000000000000093
:10432000030000000000000000000000000000008A
:10433000000000000000000000000000000000007D
:10434000000000000000000000000000053C000824
:10435000F13B00082D3C0008193C0008253C0008F2
:10436000113C0008FD3B0008E93B0008393C00080F
:10437000F60300000000000000000F000000000035
:10438000640000000000000040420F00FE2A01000F
:04439000D204000053
:00000001FF
